{
  "contractName": "Warranty",
  "abi": [
    {
      "inputs": [],
      "payable": false,
      "stateMutability": "nonpayable",
      "type": "constructor"
    },
    {
      "anonymous": false,
      "inputs": [
        {
          "indexed": true,
          "internalType": "address",
          "name": "owner",
          "type": "address"
        },
        {
          "indexed": true,
          "internalType": "address",
          "name": "approved",
          "type": "address"
        },
        {
          "indexed": true,
          "internalType": "uint256",
          "name": "tokenId",
          "type": "uint256"
        }
      ],
      "name": "Approval",
      "type": "event"
    },
    {
      "anonymous": false,
      "inputs": [
        {
          "indexed": true,
          "internalType": "address",
          "name": "owner",
          "type": "address"
        },
        {
          "indexed": true,
          "internalType": "address",
          "name": "operator",
          "type": "address"
        },
        {
          "indexed": false,
          "internalType": "bool",
          "name": "approved",
          "type": "bool"
        }
      ],
      "name": "ApprovalForAll",
      "type": "event"
    },
    {
      "anonymous": false,
      "inputs": [
        {
          "indexed": true,
          "internalType": "address",
          "name": "addr",
          "type": "address"
        },
        {
          "indexed": false,
          "internalType": "uint256",
          "name": "amount",
          "type": "uint256"
        },
        {
          "indexed": false,
          "internalType": "uint256",
          "name": "balance",
          "type": "uint256"
        },
        {
          "indexed": false,
          "internalType": "bool",
          "name": "negative",
          "type": "bool"
        }
      ],
      "name": "BalanceUpdated",
      "type": "event"
    },
    {
      "anonymous": false,
      "inputs": [
        {
          "indexed": true,
          "internalType": "uint256",
          "name": "tokenId",
          "type": "uint256"
        },
        {
          "indexed": false,
          "internalType": "uint256",
          "name": "value",
          "type": "uint256"
        }
      ],
      "name": "ClaimBalanceUpdated",
      "type": "event"
    },
    {
      "anonymous": false,
      "inputs": [
        {
          "indexed": true,
          "internalType": "address",
          "name": "warrantor",
          "type": "address"
        },
        {
          "indexed": true,
          "internalType": "address",
          "name": "warrantee",
          "type": "address"
        },
        {
          "indexed": true,
          "internalType": "uint256",
          "name": "tokenId",
          "type": "uint256"
        },
        {
          "indexed": false,
          "internalType": "bool",
          "name": "redeemed",
          "type": "bool"
        }
      ],
      "name": "Fulfilled",
      "type": "event"
    },
    {
      "anonymous": false,
      "inputs": [
        {
          "indexed": true,
          "internalType": "address",
          "name": "warrantor",
          "type": "address"
        },
        {
          "indexed": true,
          "internalType": "uint256",
          "name": "tokenId",
          "type": "uint256"
        }
      ],
      "name": "Guaranteed",
      "type": "event"
    },
    {
      "anonymous": false,
      "inputs": [
        {
          "indexed": false,
          "internalType": "address",
          "name": "account",
          "type": "address"
        }
      ],
      "name": "Paused",
      "type": "event"
    },
    {
      "anonymous": false,
      "inputs": [
        {
          "indexed": true,
          "internalType": "address",
          "name": "account",
          "type": "address"
        }
      ],
      "name": "PauserAdded",
      "type": "event"
    },
    {
      "anonymous": false,
      "inputs": [
        {
          "indexed": true,
          "internalType": "address",
          "name": "account",
          "type": "address"
        }
      ],
      "name": "PauserRemoved",
      "type": "event"
    },
    {
      "anonymous": false,
      "inputs": [
        {
          "indexed": true,
          "internalType": "address",
          "name": "warrantor",
          "type": "address"
        },
        {
          "indexed": true,
          "internalType": "address",
          "name": "warrantee",
          "type": "address"
        },
        {
          "indexed": true,
          "internalType": "uint256",
          "name": "tokenId",
          "type": "uint256"
        },
        {
          "indexed": false,
          "internalType": "bool",
          "name": "redeemed",
          "type": "bool"
        }
      ],
      "name": "Redeemed",
      "type": "event"
    },
    {
      "anonymous": false,
      "inputs": [
        {
          "indexed": true,
          "internalType": "uint256",
          "name": "tokenId",
          "type": "uint256"
        }
      ],
      "name": "Terminated",
      "type": "event"
    },
    {
      "anonymous": false,
      "inputs": [
        {
          "indexed": true,
          "internalType": "address",
          "name": "from",
          "type": "address"
        },
        {
          "indexed": true,
          "internalType": "address",
          "name": "to",
          "type": "address"
        },
        {
          "indexed": true,
          "internalType": "uint256",
          "name": "tokenId",
          "type": "uint256"
        }
      ],
      "name": "Transfer",
      "type": "event"
    },
    {
      "anonymous": false,
      "inputs": [
        {
          "indexed": false,
          "internalType": "address",
          "name": "account",
          "type": "address"
        }
      ],
      "name": "Unpaused",
      "type": "event"
    },
    {
      "anonymous": false,
      "inputs": [
        {
          "indexed": true,
          "internalType": "address",
          "name": "addr",
          "type": "address"
        },
        {
          "indexed": true,
          "internalType": "address",
          "name": "target",
          "type": "address"
        },
        {
          "indexed": false,
          "internalType": "uint256",
          "name": "amount",
          "type": "uint256"
        },
        {
          "indexed": false,
          "internalType": "uint256",
          "name": "balance",
          "type": "uint256"
        }
      ],
      "name": "Withdrawn",
      "type": "event"
    },
    {
      "payable": true,
      "stateMutability": "payable",
      "type": "fallback"
    },
    {
      "constant": true,
      "inputs": [
        {
          "internalType": "address",
          "name": "",
          "type": "address"
        }
      ],
      "name": "_balances",
      "outputs": [
        {
          "internalType": "uint256",
          "name": "",
          "type": "uint256"
        }
      ],
      "payable": false,
      "stateMutability": "view",
      "type": "function"
    },
    {
      "constant": true,
      "inputs": [
        {
          "internalType": "uint256",
          "name": "",
          "type": "uint256"
        }
      ],
      "name": "_claims",
      "outputs": [
        {
          "internalType": "address",
          "name": "warrantor",
          "type": "address"
        },
        {
          "internalType": "uint256",
          "name": "value",
          "type": "uint256"
        },
        {
          "internalType": "uint256",
          "name": "valuation",
          "type": "uint256"
        },
        {
          "internalType": "uint256",
          "name": "expiresAfter",
          "type": "uint256"
        },
        {
          "internalType": "uint256",
          "name": "activatedAt",
          "type": "uint256"
        },
        {
          "internalType": "uint256",
          "name": "delayTime",
          "type": "uint256"
        },
        {
          "internalType": "bool",
          "name": "redeemed",
          "type": "bool"
        },
        {
          "internalType": "bool",
          "name": "fulfilled",
          "type": "bool"
        },
        {
          "internalType": "bool",
          "name": "terminated",
          "type": "bool"
        },
        {
          "internalType": "string",
          "name": "notes",
          "type": "string"
        }
      ],
      "payable": false,
      "stateMutability": "view",
      "type": "function"
    },
    {
      "constant": true,
      "inputs": [
        {
          "internalType": "uint256",
          "name": "",
          "type": "uint256"
        }
      ],
      "name": "_pendingTransfer",
      "outputs": [
        {
          "internalType": "address",
          "name": "",
          "type": "address"
        }
      ],
      "payable": false,
      "stateMutability": "view",
      "type": "function"
    },
    {
      "constant": false,
      "inputs": [
        {
          "internalType": "address",
          "name": "account",
          "type": "address"
        }
      ],
      "name": "addPauser",
      "outputs": [],
      "payable": false,
      "stateMutability": "nonpayable",
      "type": "function"
    },
    {
      "constant": false,
      "inputs": [
        {
          "internalType": "address",
          "name": "to",
          "type": "address"
        },
        {
          "internalType": "uint256",
          "name": "tokenId",
          "type": "uint256"
        }
      ],
      "name": "approve",
      "outputs": [],
      "payable": false,
      "stateMutability": "nonpayable",
      "type": "function"
    },
    {
      "constant": true,
      "inputs": [
        {
          "internalType": "address",
          "name": "owner",
          "type": "address"
        }
      ],
      "name": "balanceOf",
      "outputs": [
        {
          "internalType": "uint256",
          "name": "",
          "type": "uint256"
        }
      ],
      "payable": false,
      "stateMutability": "view",
      "type": "function"
    },
    {
      "constant": true,
      "inputs": [
        {
          "internalType": "uint256",
          "name": "tokenId",
          "type": "uint256"
        }
      ],
      "name": "getApproved",
      "outputs": [
        {
          "internalType": "address",
          "name": "",
          "type": "address"
        }
      ],
      "payable": false,
      "stateMutability": "view",
      "type": "function"
    },
    {
      "constant": true,
      "inputs": [
        {
          "internalType": "address",
          "name": "owner",
          "type": "address"
        },
        {
          "internalType": "address",
          "name": "operator",
          "type": "address"
        }
      ],
      "name": "isApprovedForAll",
      "outputs": [
        {
          "internalType": "bool",
          "name": "",
          "type": "bool"
        }
      ],
      "payable": false,
      "stateMutability": "view",
      "type": "function"
    },
    {
      "constant": true,
      "inputs": [
        {
          "internalType": "address",
          "name": "account",
          "type": "address"
        }
      ],
      "name": "isPauser",
      "outputs": [
        {
          "internalType": "bool",
          "name": "",
          "type": "bool"
        }
      ],
      "payable": false,
      "stateMutability": "view",
      "type": "function"
    },
    {
      "constant": true,
      "inputs": [],
      "name": "name",
      "outputs": [
        {
          "internalType": "string",
          "name": "",
          "type": "string"
        }
      ],
      "payable": false,
      "stateMutability": "view",
      "type": "function"
    },
    {
      "constant": true,
      "inputs": [
        {
          "internalType": "uint256",
          "name": "tokenId",
          "type": "uint256"
        }
      ],
      "name": "ownerOf",
      "outputs": [
        {
          "internalType": "address",
          "name": "",
          "type": "address"
        }
      ],
      "payable": false,
      "stateMutability": "view",
      "type": "function"
    },
    {
      "constant": false,
      "inputs": [],
      "name": "pause",
      "outputs": [],
      "payable": false,
      "stateMutability": "nonpayable",
      "type": "function"
    },
    {
      "constant": true,
      "inputs": [],
      "name": "paused",
      "outputs": [
        {
          "internalType": "bool",
          "name": "",
          "type": "bool"
        }
      ],
      "payable": false,
      "stateMutability": "view",
      "type": "function"
    },
    {
      "constant": false,
      "inputs": [],
      "name": "renouncePauser",
      "outputs": [],
      "payable": false,
      "stateMutability": "nonpayable",
      "type": "function"
    },
    {
      "constant": false,
      "inputs": [
        {
          "internalType": "address",
          "name": "from",
          "type": "address"
        },
        {
          "internalType": "address",
          "name": "to",
          "type": "address"
        },
        {
          "internalType": "uint256",
          "name": "tokenId",
          "type": "uint256"
        }
      ],
      "name": "safeTransferFrom",
      "outputs": [],
      "payable": false,
      "stateMutability": "nonpayable",
      "type": "function"
    },
    {
      "constant": false,
      "inputs": [
        {
          "internalType": "address",
          "name": "from",
          "type": "address"
        },
        {
          "internalType": "address",
          "name": "to",
          "type": "address"
        },
        {
          "internalType": "uint256",
          "name": "tokenId",
          "type": "uint256"
        },
        {
          "internalType": "bytes",
          "name": "_data",
          "type": "bytes"
        }
      ],
      "name": "safeTransferFrom",
      "outputs": [],
      "payable": false,
      "stateMutability": "nonpayable",
      "type": "function"
    },
    {
      "constant": false,
      "inputs": [
        {
          "internalType": "address",
          "name": "to",
          "type": "address"
        },
        {
          "internalType": "bool",
          "name": "approved",
          "type": "bool"
        }
      ],
      "name": "setApprovalForAll",
      "outputs": [],
      "payable": false,
      "stateMutability": "nonpayable",
      "type": "function"
    },
    {
      "constant": true,
      "inputs": [
        {
          "internalType": "bytes4",
          "name": "interfaceId",
          "type": "bytes4"
        }
      ],
      "name": "supportsInterface",
      "outputs": [
        {
          "internalType": "bool",
          "name": "",
          "type": "bool"
        }
      ],
      "payable": false,
      "stateMutability": "view",
      "type": "function"
    },
    {
      "constant": true,
      "inputs": [],
      "name": "symbol",
      "outputs": [
        {
          "internalType": "string",
          "name": "",
          "type": "string"
        }
      ],
      "payable": false,
      "stateMutability": "view",
      "type": "function"
    },
    {
      "constant": true,
      "inputs": [
        {
          "internalType": "uint256",
          "name": "tokenId",
          "type": "uint256"
        }
      ],
      "name": "tokenURI",
      "outputs": [
        {
          "internalType": "string",
          "name": "",
          "type": "string"
        }
      ],
      "payable": false,
      "stateMutability": "view",
      "type": "function"
    },
    {
      "constant": false,
      "inputs": [
        {
          "internalType": "address",
          "name": "from",
          "type": "address"
        },
        {
          "internalType": "address",
          "name": "to",
          "type": "address"
        },
        {
          "internalType": "uint256",
          "name": "tokenId",
          "type": "uint256"
        }
      ],
      "name": "transferFrom",
      "outputs": [],
      "payable": false,
      "stateMutability": "nonpayable",
      "type": "function"
    },
    {
      "constant": false,
      "inputs": [],
      "name": "unpause",
      "outputs": [],
      "payable": false,
      "stateMutability": "nonpayable",
      "type": "function"
    },
    {
      "constant": true,
      "inputs": [
        {
          "internalType": "address",
          "name": "account",
          "type": "address"
        },
        {
          "internalType": "uint256",
          "name": "tokenId",
          "type": "uint256"
        }
      ],
      "name": "isWarrantee",
      "outputs": [
        {
          "internalType": "bool",
          "name": "matches",
          "type": "bool"
        }
      ],
      "payable": false,
      "stateMutability": "view",
      "type": "function"
    },
    {
      "constant": true,
      "inputs": [
        {
          "internalType": "address",
          "name": "account",
          "type": "address"
        },
        {
          "internalType": "uint256",
          "name": "tokenId",
          "type": "uint256"
        }
      ],
      "name": "isWarrantor",
      "outputs": [
        {
          "internalType": "bool",
          "name": "matches",
          "type": "bool"
        }
      ],
      "payable": false,
      "stateMutability": "view",
      "type": "function"
    },
    {
      "constant": true,
      "inputs": [
        {
          "internalType": "address",
          "name": "account",
          "type": "address"
        }
      ],
      "name": "balance",
      "outputs": [
        {
          "internalType": "uint256",
          "name": "amount",
          "type": "uint256"
        }
      ],
      "payable": false,
      "stateMutability": "view",
      "type": "function"
    },
    {
      "constant": false,
      "inputs": [
        {
          "internalType": "uint256",
          "name": "tokenId",
          "type": "uint256"
        },
        {
          "internalType": "uint256",
          "name": "expiryTime",
          "type": "uint256"
        },
        {
          "internalType": "uint256",
          "name": "delayTime",
          "type": "uint256"
        }
      ],
      "name": "extendClaimExpiration",
      "outputs": [],
      "payable": false,
      "stateMutability": "nonpayable",
      "type": "function"
    },
    {
      "constant": false,
      "inputs": [
        {
          "internalType": "address",
          "name": "account",
          "type": "address"
        }
      ],
      "name": "deposit",
      "outputs": [],
      "payable": true,
      "stateMutability": "payable",
      "type": "function"
    },
    {
      "constant": false,
      "inputs": [
        {
          "internalType": "address",
          "name": "warrantee",
          "type": "address"
        },
        {
          "internalType": "uint256",
          "name": "tokenId",
          "type": "uint256"
        }
      ],
      "name": "fulfillClaim",
      "outputs": [],
      "payable": true,
      "stateMutability": "payable",
      "type": "function"
    },
    {
      "constant": false,
      "inputs": [
        {
          "internalType": "uint256",
          "name": "tokenId",
          "type": "uint256"
        }
      ],
      "name": "terminateClaim",
      "outputs": [],
      "payable": false,
      "stateMutability": "nonpayable",
      "type": "function"
    },
    {
      "constant": false,
      "inputs": [
        {
          "internalType": "address payable",
          "name": "account",
          "type": "address"
        },
        {
          "internalType": "uint256",
          "name": "amount",
          "type": "uint256"
        }
      ],
      "name": "releaseTo",
      "outputs": [],
      "payable": false,
      "stateMutability": "nonpayable",
      "type": "function"
    },
    {
      "constant": false,
      "inputs": [
        {
          "internalType": "address payable",
          "name": "warrantee",
          "type": "address"
        },
        {
          "internalType": "uint256",
          "name": "valuation",
          "type": "uint256"
        },
        {
          "internalType": "uint256",
          "name": "expiresAfter",
          "type": "uint256"
        },
        {
          "internalType": "string",
          "name": "tokenURI",
          "type": "string"
        },
        {
          "internalType": "string",
          "name": "notes",
          "type": "string"
        }
      ],
      "name": "createAndGuaranteeClaim",
      "outputs": [
        {
          "internalType": "uint256",
          "name": "",
          "type": "uint256"
        }
      ],
      "payable": true,
      "stateMutability": "payable",
      "type": "function"
    },
    {
      "constant": true,
      "inputs": [
        {
          "internalType": "uint256",
          "name": "tokenId",
          "type": "uint256"
        }
      ],
      "name": "claimExpireTime",
      "outputs": [
        {
          "internalType": "uint256",
          "name": "expireTime",
          "type": "uint256"
        }
      ],
      "payable": false,
      "stateMutability": "view",
      "type": "function"
    },
    {
      "constant": true,
      "inputs": [
        {
          "internalType": "uint256",
          "name": "tokenId",
          "type": "uint256"
        }
      ],
      "name": "timeToClaimExpire",
      "outputs": [
        {
          "internalType": "uint256",
          "name": "timeUntil",
          "type": "uint256"
        }
      ],
      "payable": false,
      "stateMutability": "view",
      "type": "function"
    },
    {
      "constant": false,
      "inputs": [
        {
          "internalType": "uint256",
          "name": "tokenId",
          "type": "uint256"
        },
        {
          "internalType": "uint256",
          "name": "value",
          "type": "uint256"
        }
      ],
      "name": "guaranteeClaim",
      "outputs": [],
      "payable": true,
      "stateMutability": "payable",
      "type": "function"
    },
    {
      "constant": false,
      "inputs": [
        {
          "internalType": "uint256",
          "name": "tokenId",
          "type": "uint256"
        },
        {
          "internalType": "address",
          "name": "account",
          "type": "address"
        }
      ],
      "name": "postClaim",
      "outputs": [],
      "payable": false,
      "stateMutability": "nonpayable",
      "type": "function"
    },
    {
      "constant": false,
      "inputs": [
        {
          "internalType": "uint256",
          "name": "tokenId",
          "type": "uint256"
        }
      ],
      "name": "depostClaim",
      "outputs": [],
      "payable": false,
      "stateMutability": "nonpayable",
      "type": "function"
    },
    {
      "constant": false,
      "inputs": [
        {
          "internalType": "uint256",
          "name": "tokenId",
          "type": "uint256"
        },
        {
          "internalType": "uint256",
          "name": "amount",
          "type": "uint256"
        }
      ],
      "name": "fundClaim",
      "outputs": [],
      "payable": true,
      "stateMutability": "payable",
      "type": "function"
    },
    {
      "constant": false,
      "inputs": [
        {
          "internalType": "uint256",
          "name": "tokenId",
          "type": "uint256"
        },
        {
          "internalType": "uint256",
          "name": "expiryTime",
          "type": "uint256"
        },
        {
          "internalType": "uint256",
          "name": "delayTime",
          "type": "uint256"
        }
      ],
      "name": "deredeemClaim",
      "outputs": [],
      "payable": false,
      "stateMutability": "nonpayable",
      "type": "function"
    },
    {
      "constant": false,
      "inputs": [
        {
          "internalType": "uint256",
          "name": "tokenId",
          "type": "uint256"
        }
      ],
      "name": "refundClaim",
      "outputs": [],
      "payable": false,
      "stateMutability": "nonpayable",
      "type": "function"
    },
    {
      "constant": false,
      "inputs": [
        {
          "internalType": "uint256",
          "name": "tokenId",
          "type": "uint256"
        }
      ],
      "name": "redeemClaim",
      "outputs": [],
      "payable": false,
      "stateMutability": "nonpayable",
      "type": "function"
    },
    {
      "constant": false,
      "inputs": [
        {
          "internalType": "address",
          "name": "to",
          "type": "address"
        },
        {
          "internalType": "uint256",
          "name": "tokenId",
          "type": "uint256"
        },
        {
          "internalType": "bytes",
          "name": "_data",
          "type": "bytes"
        }
      ],
      "name": "safeMint",
      "outputs": [
        {
          "internalType": "bool",
          "name": "",
          "type": "bool"
        }
      ],
      "payable": false,
      "stateMutability": "nonpayable",
      "type": "function"
    },
    {
      "constant": false,
      "inputs": [
        {
          "internalType": "address",
          "name": "warrantee",
          "type": "address"
        },
        {
          "internalType": "address",
          "name": "warrantor",
          "type": "address"
        },
        {
          "internalType": "uint256",
          "name": "valuation",
          "type": "uint256"
        },
        {
          "internalType": "uint256",
          "name": "expiresAfter",
          "type": "uint256"
        },
        {
          "internalType": "string",
          "name": "tokenURI",
          "type": "string"
        },
        {
          "internalType": "string",
          "name": "notes",
          "type": "string"
        }
      ],
      "name": "createClaim",
      "outputs": [
        {
          "internalType": "uint256",
          "name": "",
          "type": "uint256"
        }
      ],
      "payable": false,
      "stateMutability": "nonpayable",
      "type": "function"
    }
  ],
  "bytecode": "0x60806040523480156200001157600080fd5b50604080518082018252600981527f57617272616e74656500000000000000000000000000000000000000000000006020808301919091528251808401909352600483527f57524e54000000000000000000000000000000000000000000000000000000009083015290620000af7f01ffc9a7000000000000000000000000000000000000000000000000000000006001600160e01b036200018016565b620000e37f80ac58cd000000000000000000000000000000000000000000000000000000006001600160e01b036200018016565b8151620000f8906005906020850190620003d0565b5080516200010e906006906020840190620003d0565b50620001437f5b5e139f000000000000000000000000000000000000000000000000000000006001600160e01b036200018016565b5050600160085562000170620001616001600160e01b036200024f16565b6001600160e01b036200025416565b600a805460ff1916905562000472565b7fffffffff0000000000000000000000000000000000000000000000000000000080821614156200021257604080517f08c379a000000000000000000000000000000000000000000000000000000000815260206004820152601c60248201527f4552433136353a20696e76616c696420696e7465726661636520696400000000604482015290519081900360640190fd5b7fffffffff00000000000000000000000000000000000000000000000000000000166000908152602081905260409020805460ff19166001179055565b335b90565b6200026f816009620002a660201b62003dbd1790919060201c565b6040516001600160a01b038216907f6719d08c1888103bea251a4ed56406bd0c3e69723c8a1686e017e7bbe159b6f890600090a250565b620002bb82826001600160e01b036200034d16565b156200032857604080517f08c379a000000000000000000000000000000000000000000000000000000000815260206004820152601f60248201527f526f6c65733a206163636f756e7420616c72656164792068617320726f6c6500604482015290519081900360640190fd5b6001600160a01b0316600090815260209190915260409020805460ff19166001179055565b60006001600160a01b038216620003b0576040517f08c379a000000000000000000000000000000000000000000000000000000000815260040180806020018281038252602281526020018062004c5b6022913960400191505060405180910390fd5b506001600160a01b03166000908152602091909152604090205460ff1690565b828054600181600116156101000203166002900490600052602060002090601f016020900481019282601f106200041357805160ff191683800117855562000443565b8280016001018555821562000443579182015b828111156200044357825182559160200191906001019062000426565b506200045192915062000455565b5090565b6200025191905b808211156200045157600081556001016200045c565b6147d980620004826000396000f3fe6080604052600436106102515760003560e01c80637af74bb411610139578063b88d4fde116100b6578063e985e9c51161007a578063e985e9c514610c7a578063ec51a1f014610cb5578063f340fa0114610dfa578063f5fcd7b814610e20578063f6a83cf914610e4c578063fcf84a2114610e8557610251565b8063b88d4fde146109bb578063c87b56dd14610a8c578063dc72b6f814610ab6578063e3d670d714610c11578063e51e2c1814610c4457610251565b806395d89b41116100fd57806395d89b41146108cf57806396680cd4146108e4578063a22cb4651461091d578063ac5dc63714610958578063b450f9791461098257610251565b80637af74bb4146107745780637f7f80de1461079757806382dc1ec4146107c15780638456cb59146107f45780638832e6e31461080957610251565b80633f4ba83a116101d25780635c975abb116101965780635c975abb146105bb5780636352211e146105d05780636b7881d5146105fa5780636ebcf607146106f95780636ef8d66d1461072c57806370a082311461074157610251565b80633f4ba83a146104cd57806342842e0e146104e257806346fbf68e146105255780634c3fb9ec146105585780634e06bad11461058257610251565b80631bae137b116102195780631bae137b146103d757806323b872dd146104135780632bd89b56146104565780633500e4a9146104795780633902c338146104a357610251565b806301ffc9a71461025c57806306fdde03146102a4578063081812fc1461032e578063095ea7b3146103745780631133a823146103ad575b61025a33610ebb565b005b34801561026857600080fd5b506102906004803603602081101561027f57600080fd5b50356001600160e01b031916610f0e565b604080519115158252519081900360200190f35b3480156102b057600080fd5b506102b9610f31565b6040805160208082528351818301528351919283929083019185019080838360005b838110156102f35781810151838201526020016102db565b50505050905090810190601f1680156103205780820380516001836020036101000a031916815260200191505b509250505060405180910390f35b34801561033a57600080fd5b506103586004803603602081101561035157600080fd5b5035610fc8565b604080516001600160a01b039092168252519081900360200190f35b34801561038057600080fd5b5061025a6004803603604081101561039757600080fd5b506001600160a01b03813516906020013561102a565b3480156103b957600080fd5b5061025a600480360360208110156103d057600080fd5b5035611152565b3480156103e357600080fd5b50610401600480360360208110156103fa57600080fd5b5035611250565b60408051918252519081900360200190f35b34801561041f57600080fd5b5061025a6004803603606081101561043657600080fd5b506001600160a01b0381358116916020810135909116906040013561131c565b61025a6004803603604081101561046c57600080fd5b5080359060200135611378565b34801561048557600080fd5b5061025a6004803603602081101561049c57600080fd5b50356113fe565b3480156104af57600080fd5b5061025a600480360360208110156104c657600080fd5b5035611700565b3480156104d957600080fd5b5061025a611806565b3480156104ee57600080fd5b5061025a6004803603606081101561050557600080fd5b506001600160a01b038135811691602081013590911690604001356118ef565b34801561053157600080fd5b506102906004803603602081101561054857600080fd5b50356001600160a01b031661190a565b34801561056457600080fd5b506103586004803603602081101561057b57600080fd5b503561191d565b34801561058e57600080fd5b5061025a600480360360408110156105a557600080fd5b506001600160a01b038135169060200135611938565b3480156105c757600080fd5b50610290611ac1565b3480156105dc57600080fd5b50610358600480360360208110156105f357600080fd5b5035611aca565b34801561060657600080fd5b506106246004803603602081101561061d57600080fd5b5035611b1e565b604051808b6001600160a01b03166001600160a01b031681526020018a815260200189815260200188815260200187815260200186815260200185151515158152602001841515151581526020018315151515815260200180602001828103825283818151815260200191508051906020019080838360005b838110156106b557818101518382015260200161069d565b50505050905090810190601f1680156106e25780820380516001836020036101000a031916815260200191505b509b50505050505050505050505060405180910390f35b34801561070557600080fd5b506104016004803603602081101561071c57600080fd5b50356001600160a01b0316611c1b565b34801561073857600080fd5b5061025a611c2d565b34801561074d57600080fd5b506104016004803603602081101561076457600080fd5b50356001600160a01b0316611c3f565b61025a6004803603604081101561078a57600080fd5b5080359060200135611ca7565b3480156107a357600080fd5b50610401600480360360208110156107ba57600080fd5b5035611fe3565b3480156107cd57600080fd5b5061025a600480360360208110156107e457600080fd5b50356001600160a01b031661206f565b34801561080057600080fd5b5061025a6120be565b34801561081557600080fd5b506102906004803603606081101561082c57600080fd5b6001600160a01b0382351691602081013591810190606081016040820135600160201b81111561085b57600080fd5b82018360208201111561086d57600080fd5b803590602001918460018302840111600160201b8311171561088e57600080fd5b91908080601f016020809104026020016040519081016040528093929190818152602001838380828437600092019190915250929550612180945050505050565b3480156108db57600080fd5b506102b9612197565b3480156108f057600080fd5b5061025a6004803603604081101561090757600080fd5b50803590602001356001600160a01b03166121f8565b34801561092957600080fd5b5061025a6004803603604081101561094057600080fd5b506001600160a01b03813516906020013515156122f2565b34801561096457600080fd5b5061025a6004803603602081101561097b57600080fd5b50356123f7565b34801561098e57600080fd5b50610290600480360360408110156109a557600080fd5b506001600160a01b03813516906020013561259e565b3480156109c757600080fd5b5061025a600480360360808110156109de57600080fd5b6001600160a01b03823581169260208101359091169160408201359190810190608081016060820135600160201b811115610a1857600080fd5b820183602082011115610a2a57600080fd5b803590602001918460018302840111600160201b83111715610a4b57600080fd5b91908080601f0160208091040260200160405190810160405280939291908181526020018383808284376000920191909152509295506125d4945050505050565b348015610a9857600080fd5b506102b960048036036020811015610aaf57600080fd5b503561262c565b348015610ac257600080fd5b50610401600480360360c0811015610ad957600080fd5b6001600160a01b03823581169260208101359091169160408201359160608101359181019060a081016080820135600160201b811115610b1857600080fd5b820183602082011115610b2a57600080fd5b803590602001918460018302840111600160201b83111715610b4b57600080fd5b91908080601f0160208091040260200160405190810160405280939291908181526020018383808284376000920191909152509295949360208101935035915050600160201b811115610b9d57600080fd5b820183602082011115610baf57600080fd5b803590602001918460018302840111600160201b83111715610bd057600080fd5b91908080601f016020809104026020016040519081016040528093929190818152602001838380828437600092019190915250929550612711945050505050565b348015610c1d57600080fd5b5061040160048036036020811015610c3457600080fd5b50356001600160a01b03166129d1565b348015610c5057600080fd5b5061025a60048036036060811015610c6757600080fd5b50803590602081013590604001356129ec565b348015610c8657600080fd5b5061029060048036036040811015610c9d57600080fd5b506001600160a01b0381358116916020013516612c65565b610401600480360360a0811015610ccb57600080fd5b6001600160a01b038235169160208101359160408201359190810190608081016060820135600160201b811115610d0157600080fd5b820183602082011115610d1357600080fd5b803590602001918460018302840111600160201b83111715610d3457600080fd5b91908080601f0160208091040260200160405190810160405280939291908181526020018383808284376000920191909152509295949360208101935035915050600160201b811115610d8657600080fd5b820183602082011115610d9857600080fd5b803590602001918460018302840111600160201b83111715610db957600080fd5b91908080601f016020809104026020016040519081016040528093929190818152602001838380828437600092019190915250929550612c93945050505050565b61025a60048036036020811015610e1057600080fd5b50356001600160a01b0316610ebb565b61025a60048036036040811015610e3657600080fd5b506001600160a01b038135169060200135612cba565b348015610e5857600080fd5b5061029060048036036040811015610e6f57600080fd5b506001600160a01b038135169060200135612f4b565b348015610e9157600080fd5b5061025a60048036036060811015610ea857600080fd5b5080359060208101359060400135612fd3565b600a5460ff1615610f01576040805162461bcd60e51b815260206004820152601060248201526000805160206146bf833981519152604482015290519081900360640190fd5b610f0b8134613237565b50565b6001600160e01b0319811660009081526020819052604090205460ff165b919050565b60058054604080516020601f6002600019610100600188161502019095169490940493840181900481028201810190925282815260609390929091830182828015610fbd5780601f10610f9257610100808354040283529160200191610fbd565b820191906000526020600020905b815481529060010190602001808311610fa057829003601f168201915b505050505090505b90565b6000610fd382613243565b61100e5760405162461bcd60e51b815260040180806020018281038252602c815260200180614586602c913960400191505060405180910390fd5b506000908152600260205260409020546001600160a01b031690565b600061103582611aca565b9050806001600160a01b0316836001600160a01b031614156110885760405162461bcd60e51b815260040180806020018281038252602181526020018061467a6021913960400191505060405180910390fd5b806001600160a01b031661109a613260565b6001600160a01b031614806110bb57506110bb816110b6613260565b612c65565b6110f65760405162461bcd60e51b815260040180806020018281038252603881526020018061443a6038913960400191505060405180910390fd5b60008281526002602052604080822080546001600160a01b0319166001600160a01b0387811691821790925591518593918516917f8c5be1e5ebec7d5bd14f71427d1e84f3dd0314c0f7b2291e5b200ac8c7c3b92591a4505050565b600a5460ff1615611198576040805162461bcd60e51b815260206004820152601060248201526000805160206146bf833981519152604482015290519081900360640190fd5b806111a33382612f4b565b806111b357506111b3338261259e565b6111ee5760405162461bcd60e51b815260040180806020018281038252604281526020018061473e6042913960600191505060405180910390fd5b6000828152600b60205260409020546001600160a01b03166112415760405162461bcd60e51b815260040180806020018281038252602f8152602001806141fb602f913960400191505060405180910390fd5b61124c826000613264565b5050565b600a5460009060ff1615611299576040805162461bcd60e51b815260206004820152601060248201526000805160206146bf833981519152604482015290519081900360640190fd5b611316600d83815481106112a957fe5b90600052602060002090600802016003015461130a600d85815481106112cb57fe5b906000526020600020906008020160050154600d86815481106112ea57fe5b90600052602060002090600802016004015461329290919063ffffffff16565b9063ffffffff61329216565b92915050565b61132d611327613260565b826132f3565b6113685760405162461bcd60e51b815260040180806020018281038252603181526020018061470d6031913960400191505060405180910390fd5b61137383838361338f565b505050565b81600d818154811061138657fe5b906000526020600020906008020160060160029054906101000a900460ff16156113e15760405162461bcd60e51b815260040180806020018281038252602e8152602001806146df602e913960400191505060405180910390fd5b6113ea33610ebb565b6113f483836134d3565b6113733383613513565b600a5460ff1615611444576040805162461bcd60e51b815260206004820152601060248201526000805160206146bf833981519152604482015290519081900360640190fd5b8061144f3382612f4b565b61148a5760405162461bcd60e51b81526004018080602001828103825260258152602001806147806025913960400191505060405180910390fd5b81600d818154811061149857fe5b600091825260209091206006600890920201015460ff16156114eb5760405162461bcd60e51b815260040180806020018281038252602c81526020018061440e602c913960400191505060405180910390fd5b82600d81815481106114f957fe5b906000526020600020906008020160060160029054906101000a900460ff16156115545760405162461bcd60e51b815260040180806020018281038252602e8152602001806146df602e913960400191505060405180910390fd5b600d848154811061156157fe5b600091825260209091206006600890920201015460ff16156115ca576040805162461bcd60e51b815260206004820152601860248201527f636c61696d2063616e6e6f742062652072656465656d65640000000000000000604482015290519081900360640190fd5b6001600d85815481106115d957fe5b600091825260209182902060089190910201600601805460ff191692151592909217909155604080516331a9108f60e11b815260048101879052905186923092636352211e9260248083019392829003018186803b15801561163a57600080fd5b505afa15801561164e573d6000803e3d6000fd5b505050506040513d602081101561166457600080fd5b5051600d80546001600160a01b03909216918790811061168057fe5b6000918252602090912060089091020154600d80546001600160a01b03909216917f086c06b0f41de14dcd2062b4043c61c41fabf8b24e9ea76e5d08c56f7e8ecbce9190899081106116ce57fe5b6000918252602091829020600660089092020101546040805160ff90921615158252519081900390910190a450505050565b600a5460ff1615611746576040805162461bcd60e51b815260206004820152601060248201526000805160206146bf833981519152604482015290519081900360640190fd5b806117513382612f4b565b806117615750611761338261259e565b61179c5760405162461bcd60e51b815260040180806020018281038252604281526020018061473e6042913960600191505060405180910390fd5b81600d81815481106117aa57fe5b600091825260209091206006600890920201015460ff16156117fd5760405162461bcd60e51b815260040180806020018281038252602c81526020018061440e602c913960400191505060405180910390fd5b6113738361351f565b611816611811613260565b61190a565b6118515760405162461bcd60e51b81526004018080602001828103825260308152602001806142836030913960400191505060405180910390fd5b600a5460ff1661189f576040805162461bcd60e51b815260206004820152601460248201527314185d5cd8589b194e881b9bdd081c185d5cd95960621b604482015290519081900360640190fd5b600a805460ff191690557f5db9ee0a495bf2e6ff9c91a7834c1ba4fdd244a5e8aa4e537bd38aeae4b073aa6118d2613260565b604080516001600160a01b039092168252519081900360200190a1565b611373838383604051806020016040528060008152506125d4565b600061131660098363ffffffff61372a16565b600b602052600090815260409020546001600160a01b031681565b6008805460010190819055600a5460ff1615611989576040805162461bcd60e51b815260206004820152601060248201526000805160206146bf833981519152604482015290519081900360640190fd5b336000908152600c602052604090205482808210156119d95760405162461bcd60e51b815260040180806020018281038252602481526020018061469b6024913960400191505060405180910390fd5b33856001600160a01b0381166119ec5750805b6119f68287613513565b611a0f6001600160a01b0382168763ffffffff61379116565b6001600160a01b038281166000818152600c60209081526040918290205482518b8152918201528151938516937f91fb9d98b786c57d74c099ccd2beca1739e9f6a81fb49001ca465c4b7591bbe2929181900390910190a3505050506008548114611373576040805162461bcd60e51b815260206004820152601f60248201527f5265656e7472616e637947756172643a207265656e7472616e742063616c6c00604482015290519081900360640190fd5b600a5460ff1690565b6000818152600160205260408120546001600160a01b0316806113165760405162461bcd60e51b81526004018080602001828103825260298152602001806144cc6029913960400191505060405180910390fd5b600d8181548110611b2b57fe5b6000918252602091829020600891909102018054600180830154600280850154600386015460048701546005880154600689015460078a018054604080516101009b8316158c026000190190921698909804601f81018e90048e0282018e019098528781526001600160a01b03909a169c50969a949993989297919660ff8083169793830481169662010000909304169493929091830182828015611c115780601f10611be657610100808354040283529160200191611c11565b820191906000526020600020905b815481529060010190602001808311611bf457829003601f168201915b505050505090508a565b600c6020526000908152604090205481565b611c3d611c38613260565b613877565b565b60006001600160a01b038216611c865760405162461bcd60e51b815260040180806020018281038252602a8152602001806144a2602a913960400191505060405180910390fd5b6001600160a01b0382166000908152600360205260409020611316906138bf565b600a5460ff1615611ced576040805162461bcd60e51b815260206004820152601060248201526000805160206146bf833981519152604482015290519081900360640190fd5b81600d8181548110611cfb57fe5b600091825260209091206006600890920201015460ff1615611d4e5760405162461bcd60e51b815260040180806020018281038252602c81526020018061440e602c913960400191505060405180910390fd5b82600d8181548110611d5c57fe5b906000526020600020906008020160060160029054906101000a900460ff1615611db75760405162461bcd60e51b815260040180806020018281038252602e8152602001806146df602e913960400191505060405180910390fd5b6000600d8581548110611dc657fe5b6000918252602090912060089091020180549091506001600160a01b03161580611dfa575080546001600160a01b03163314155b15611fd257600481015415611f72576000858152600b60205260409020546001600160a01b0316611e72576040805162461bcd60e51b815260206004820152601e60248201527f636c61696d206d7573742062652070656e64696e67207472616e736665720000604482015290519081900360640190fd5b80546001600160a01b0316611eb85760405162461bcd60e51b815260040180806020018281038252602681526020018061453f6026913960400191505060405180910390fd5b80546001820154611ed2916001600160a01b031690613237565b6000611ee13461130a336129d1565b90508160010154811015611f265760405162461bcd60e51b81526004018080602001828103825260308152602001806144726030913960400191505060405180910390fd5b8160010154851015611f695760405162461bcd60e51b815260040180806020018281038252602a8152602001806143e4602a913960400191505060405180910390fd5b50600060018201555b611f7d856000613264565b80546001600160a01b031916331781556004810154611fa457611f9e6138c3565b60048201555b604051859033907f79ff72c889eb977f60e9db2618527ce958c1f2be891bb1fac455217c07d4f64590600090a35b611fdc8585611378565b5050505050565b600a5460009060ff161561202c576040805162461bcd60e51b815260206004820152601060248201526000805160206146bf833981519152604482015290519081900360640190fd5b600061203783611250565b905060006120436138c3565b905080821161205757600092505050610f2c565b612067828263ffffffff6138c716565b949350505050565b61207a611811613260565b6120b55760405162461bcd60e51b81526004018080602001828103825260308152602001806142836030913960400191505060405180910390fd5b610f0b81613909565b6120c9611811613260565b6121045760405162461bcd60e51b81526004018080602001828103825260308152602001806142836030913960400191505060405180910390fd5b600a5460ff161561214a576040805162461bcd60e51b815260206004820152601060248201526000805160206146bf833981519152604482015290519081900360640190fd5b600a805460ff191660011790557f62e78cea01bee320cd4e420270b5ea74000d11b0c9f74754ebdbfc544b05a2586118d2613260565b600061218d848484613951565b5060019392505050565b60068054604080516020601f6002600019610100600188161502019095169490940493840181900481028201810190925282815260609390929091830182828015610fbd5780601f10610f9257610100808354040283529160200191610fbd565b600a5460ff161561223e576040805162461bcd60e51b815260206004820152601060248201526000805160206146bf833981519152604482015290519081900360640190fd5b816122493382612f4b565b806122595750612259338261259e565b6122945760405162461bcd60e51b815260040180806020018281038252604281526020018061473e6042913960600191505060405180910390fd5b6000838152600b60205260409020546001600160a01b0316156122e85760405162461bcd60e51b815260040180806020018281038252603a8152602001806142dd603a913960400191505060405180910390fd5b6113738383613264565b6122fa613260565b6001600160a01b0316826001600160a01b03161415612360576040805162461bcd60e51b815260206004820152601960248201527f4552433732313a20617070726f766520746f2063616c6c657200000000000000604482015290519081900360640190fd5b806004600061236d613260565b6001600160a01b03908116825260208083019390935260409182016000908120918716808252919093529120805460ff1916921515929092179091556123b1613260565b60408051841515815290516001600160a01b0392909216917f17307eab39ab6107e8899845ad3d59bd9653f200f220920489ca2b5937696c319181900360200190a35050565b600a5460ff161561243d576040805162461bcd60e51b815260206004820152601060248201526000805160206146bf833981519152604482015290519081900360640190fd5b80612448338261259e565b6124835760405162461bcd60e51b81526004018080602001828103825260298152602001806145166029913960400191505060405180910390fd5b81600d818154811061249157fe5b906000526020600020906008020160060160029054906101000a900460ff16156124ec5760405162461bcd60e51b815260040180806020018281038252602e8152602001806146df602e913960400191505060405180910390fd5b6000600d84815481106124fb57fe5b90600052602060002090600802019050612588306001600160a01b0316636352211e866040518263ffffffff1660e01b81526004018082815260200191505060206040518083038186803b15801561255257600080fd5b505afa158015612566573d6000803e3d6000fd5b505050506040513d602081101561257c57600080fd5b50516001830154613237565b600060018201556125988461351f565b50505050565b6000600d82815481106125ad57fe5b60009182526020909120600890910201546001600160a01b03848116911614905092915050565b6125e56125df613260565b836132f3565b6126205760405162461bcd60e51b815260040180806020018281038252603181526020018061470d6031913960400191505060405180910390fd5b612598848484846139a3565b606061263782613243565b6126725760405162461bcd60e51b815260040180806020018281038252602f815260200180614629602f913960400191505060405180910390fd5b60008281526007602090815260409182902080548351601f6002600019610100600186161502019093169290920491820184900484028101840190945280845290918301828280156127055780601f106126da57610100808354040283529160200191612705565b820191906000526020600020905b8154815290600101906020018083116126e857829003601f168201915b50505050509050919050565b600a5460009060ff161561275a576040805162461bcd60e51b815260206004820152601060248201526000805160206146bf833981519152604482015290519081900360640190fd5b600d5464174876e80085106127a05760405162461bcd60e51b815260040180806020018281038252602781526020018061422a6027913960400191505060405180910390fd5b6127aa88826139f5565b8351156127bb576127bb8185613a0f565b6040805161014081018252600080825260208083018281529383018a8152606084018a81526080850184815260a0860185815260c0870186815260e08801878152610100808a018981526101208b018f8152600d80546001810180835591909c528c516008909c027fd7b6990105719101dabeb77144f2a3385c8033acd3af97e9423a695e81ad1eb5810180546001600160a01b039e909e166001600160a01b0319909e169d909d178d559d517fd7b6990105719101dabeb77144f2a3385c8033acd3af97e9423a695e81ad1eb68f015598517fd7b6990105719101dabeb77144f2a3385c8033acd3af97e9423a695e81ad1eb78e015596517fd7b6990105719101dabeb77144f2a3385c8033acd3af97e9423a695e81ad1eb88d015594517fd7b6990105719101dabeb77144f2a3385c8033acd3af97e9423a695e81ad1eb98c015592517fd7b6990105719101dabeb77144f2a3385c8033acd3af97e9423a695e81ad1eba8b015590517fd7b6990105719101dabeb77144f2a3385c8033acd3af97e9423a695e81ad1ebb8a018054925194511515620100000262ff00001995151590940261ff001992151560ff19949094169390931791909116919091179290921617905551805191956129b8937fd7b6990105719101dabeb77144f2a3385c8033acd3af97e9423a695e81ad1ebc90910192910190614162565b505050506129c68188613264565b979650505050505050565b6001600160a01b03166000908152600c602052604090205490565b600a5460ff1615612a32576040805162461bcd60e51b815260206004820152601060248201526000805160206146bf833981519152604482015290519081900360640190fd5b82612a3d338261259e565b612a785760405162461bcd60e51b81526004018080602001828103825260298152602001806145166029913960400191505060405180910390fd5b83600d8181548110612a8657fe5b906000526020600020906008020160060160029054906101000a900460ff1615612ae15760405162461bcd60e51b815260040180806020018281038252602e8152602001806146df602e913960400191505060405180910390fd5b84600d8181548110612aef57fe5b600091825260209091206006600890920201015460ff1615612b425760405162461bcd60e51b815260040180806020018281038252602c81526020018061440e602c913960400191505060405180910390fd5b612b578561130a86600d8a815481106112ea57fe5b600d8781548110612b6457fe5b90600052602060002090600802016004015480821015612bb55760405162461bcd60e51b815260040180806020018281038252602481526020018061469b6024913960400191505060405180910390fd5b612be686600d8a81548110612bc657fe5b90600052602060002090600802016005015461329290919063ffffffff16565b600d8981548110612bf357fe5b906000526020600020906008020160050181905550612c3987600d8a81548110612c1957fe5b90600052602060002090600802016003015461329290919063ffffffff16565b600d8981548110612c4657fe5b9060005260206000209060080201600301819055505050505050505050565b6001600160a01b03918216600090815260046020908152604080832093909416825291909152205460ff1690565b600080612ca4873388888888612711565b9050612cb08134611ca7565b9695505050505050565b600a5460ff1615612d00576040805162461bcd60e51b815260206004820152601060248201526000805160206146bf833981519152604482015290519081900360640190fd5b80612d0b338261259e565b612d465760405162461bcd60e51b81526004018080602001828103825260298152602001806145166029913960400191505060405180910390fd5b82826001600160a01b03821615612d9c57612d618282612f4b565b612d9c5760405162461bcd60e51b815260040180806020018281038252602a8152602001806142b3602a913960400191505060405180910390fd5b6000600d8581548110612dab57fe5b906000526020600020906008020190506000612dc6336129d1565b9050612dd23382613513565b6000612def8261130a34866001015461329290919063ffffffff16565b90508260020154811015612e345760405162461bcd60e51b81526004018080602001828103825260438152602001806143176043913960600191505060405180910390fd5b612e5433612e4f8560020154846138c790919063ffffffff16565b613237565b612ed1306001600160a01b0316636352211e896040518263ffffffff1660e01b81526004018082815260200191505060206040518083038186803b158015612e9b57600080fd5b505afa158015612eaf573d6000803e3d6000fd5b505050506040513d6020811015612ec557600080fd5b50516002850154613237565b612edc876000613a72565b60068301805461ff00191661010017908190556040805160ff92909216151582525188916001600160a01b038b169133917fc708b61d056f0c33ad63ad27614b9476c96fd7c8553410c3c85be27cc5ae4b71919081900360200190a4612f418761351f565b5050505050505050565b6000306001600160a01b0316636352211e836040518263ffffffff1660e01b81526004018082815260200191505060206040518083038186803b158015612f9157600080fd5b505afa158015612fa5573d6000803e3d6000fd5b505050506040513d6020811015612fbb57600080fd5b50516001600160a01b03848116911614905092915050565b600a5460ff1615613019576040805162461bcd60e51b815260206004820152601060248201526000805160206146bf833981519152604482015290519081900360640190fd5b826130243382612f4b565b806130345750613034338261259e565b61306f5760405162461bcd60e51b815260040180806020018281038252604281526020018061473e6042913960600191505060405180910390fd5b600d848154811061307c57fe5b600091825260209091206006600890920201015460ff166130ce5760405162461bcd60e51b81526004018080602001828103825260228152602001806146586022913960400191505060405180910390fd5b6000600d85815481106130dd57fe5b600091825260209182902060089190910201600601805460ff191692151592909217909155604080516331a9108f60e11b815260048101879052905186923092636352211e9260248083019392829003018186803b15801561313e57600080fd5b505afa158015613152573d6000803e3d6000fd5b505050506040513d602081101561316857600080fd5b5051600d80546001600160a01b03909216918790811061318457fe5b6000918252602090912060089091020154600d80546001600160a01b03909216917f086c06b0f41de14dcd2062b4043c61c41fabf8b24e9ea76e5d08c56f7e8ecbce9190899081106131d257fe5b6000918252602091829020600660089092020101546040805160ff90921615158252519081900390910190a4600d848154811061320b57fe5b60009182526020909120600890910201546001600160a01b0316331415612598576125988484846129ec565b61124c82826000613ad1565b6000908152600160205260409020546001600160a01b0316151590565b3390565b6000918252600b602052604090912080546001600160a01b0319166001600160a01b03909216919091179055565b6000828201838110156132ec576040805162461bcd60e51b815260206004820152601b60248201527f536166654d6174683a206164646974696f6e206f766572666c6f770000000000604482015290519081900360640190fd5b9392505050565b60006132fe82613243565b6133395760405162461bcd60e51b815260040180806020018281038252602c8152602001806143b8602c913960400191505060405180910390fd5b600061334483611aca565b9050806001600160a01b0316846001600160a01b0316148061337f5750836001600160a01b031661337484610fc8565b6001600160a01b0316145b8061206757506120678185612c65565b826001600160a01b03166133a282611aca565b6001600160a01b0316146133e75760405162461bcd60e51b81526004018080602001828103825260298152602001806146006029913960400191505060405180910390fd5b6001600160a01b03821661342c5760405162461bcd60e51b815260040180806020018281038252602481526020018061435a6024913960400191505060405180910390fd5b61343581613bc9565b6001600160a01b038316600090815260036020526040902061345690613c04565b6001600160a01b038216600090815260036020526040902061347790613c1b565b60008181526001602052604080822080546001600160a01b0319166001600160a01b0386811691821790925591518493918716917fddf252ad1be2c89b69c2b068fc378daa952ba7f163c4a11628f55a4df523b3ef91a4505050565b801561124c5761124c8261350e83600d86815481106134ee57fe5b90600052602060002090600802016001015461329290919063ffffffff16565b613a72565b61124c82826001613ad1565b80600d818154811061352d57fe5b906000526020600020906008020160060160029054906101000a900460ff16156135885760405162461bcd60e51b815260040180806020018281038252602e8152602001806146df602e913960400191505060405180910390fd5b6000600d838154811061359757fe5b906000526020600020906008020190508060060160019054906101000a900460ff161580156135c95750600181015415155b156136e75760006135ed6135dc85611fe3565b60038401549063ffffffff6138c716565b905060006136448360030154613638613613858760010154613c2490919063ffffffff16565b6003870154600188015461362c9163ffffffff613c2416565b9063ffffffff6138c716565b9063ffffffff613c7d16565b90506136bf306001600160a01b0316636352211e876040518263ffffffff1660e01b81526004018082815260200191505060206040518083038186803b15801561368d57600080fd5b505afa1580156136a1573d6000803e3d6000fd5b505050506040513d60208110156136b757600080fd5b505182613237565b825460018401546136e4916001600160a01b031690612e4f908463ffffffff6138c716565b50505b60068101805462ff000019166201000017905560405183907f9a9cad27a1bdce3d7cb0602aaf727dfaad03ba6524d9bca7b9615867fa6802b490600090a2505050565b60006001600160a01b0382166137715760405162461bcd60e51b81526004018080602001828103825260228152602001806145de6022913960400191505060405180910390fd5b506001600160a01b03166000908152602091909152604090205460ff1690565b30318111156137e7576040805162461bcd60e51b815260206004820152601d60248201527f416464726573733a20696e73756666696369656e742062616c616e6365000000604482015290519081900360640190fd5b6040516000906001600160a01b0384169083908381818185875af1925050503d8060008114613832576040519150601f19603f3d011682016040523d82523d6000602084013e613837565b606091505b50509050806113735760405162461bcd60e51b815260040180806020018281038252603a81526020018061437e603a913960400191505060405180910390fd5b61388860098263ffffffff613cbf16565b6040516001600160a01b038216907fcd265ebaf09df2871cc7bd4133404a235ba12eff2041bb89d9c714a2621c7c7e90600090a250565b5490565b4290565b60006132ec83836040518060400160405280601e81526020017f536166654d6174683a207375627472616374696f6e206f766572666c6f770000815250613d26565b61391a60098263ffffffff613dbd16565b6040516001600160a01b038216907f6719d08c1888103bea251a4ed56406bd0c3e69723c8a1686e017e7bbe159b6f890600090a250565b61395b8383613e3e565b6139686000848484613f6f565b6113735760405162461bcd60e51b81526004018080602001828103825260328152602001806142516032913960400191505060405180910390fd5b6139ae84848461338f565b6139ba84848484613f6f565b6125985760405162461bcd60e51b81526004018080602001828103825260328152602001806142516032913960400191505060405180910390fd5b61124c828260405180602001604052806000815250613951565b613a1882613243565b613a535760405162461bcd60e51b815260040180806020018281038252602c8152602001806145b2602c913960400191505060405180910390fd5b6000828152600760209081526040909120825161137392840190614162565b80600d8381548110613a8057fe5b906000526020600020906008020160010181905550817f9cb6070e4e6933d173cce37f39b46799295f49a5148d3713bbd9caab39b696b4826040518082815260200191505060405180910390a25050565b81613adb57611373565b8015613b28576001600160a01b0383166000908152600c6020526040902054613b0a908363ffffffff6138c716565b6001600160a01b0384166000908152600c6020526040902055613b6b565b6001600160a01b0383166000908152600c6020526040902054613b51908363ffffffff61329216565b6001600160a01b0384166000908152600c60205260409020555b6001600160a01b0383166000818152600c6020908152604091829020548251868152918201528315158183015290517f7d016f8eb7665cdc83ca6289966f4c4c45a0b3e2add7bd7952ebb8aca1831d019181900360600190a2505050565b6000818152600260205260409020546001600160a01b031615610f0b57600090815260026020526040902080546001600160a01b0319169055565b8054613c1790600163ffffffff6138c716565b9055565b80546001019055565b600082613c3357506000611316565b82820282848281613c4057fe5b04146132ec5760405162461bcd60e51b81526004018080602001828103825260218152602001806145656021913960400191505060405180910390fd5b60006132ec83836040518060400160405280601a81526020017f536166654d6174683a206469766973696f6e206279207a65726f0000000000008152506140c6565b613cc9828261372a565b613d045760405162461bcd60e51b81526004018080602001828103825260218152602001806144f56021913960400191505060405180910390fd5b6001600160a01b0316600090815260209190915260409020805460ff19169055565b60008184841115613db55760405162461bcd60e51b81526004018080602001828103825283818151815260200191508051906020019080838360005b83811015613d7a578181015183820152602001613d62565b50505050905090810190601f168015613da75780820380516001836020036101000a031916815260200191505b509250505060405180910390fd5b505050900390565b613dc7828261372a565b15613e19576040805162461bcd60e51b815260206004820152601f60248201527f526f6c65733a206163636f756e7420616c72656164792068617320726f6c6500604482015290519081900360640190fd5b6001600160a01b0316600090815260209190915260409020805460ff19166001179055565b6001600160a01b038216613e99576040805162461bcd60e51b815260206004820181905260248201527f4552433732313a206d696e7420746f20746865207a65726f2061646472657373604482015290519081900360640190fd5b613ea281613243565b15613ef4576040805162461bcd60e51b815260206004820152601c60248201527f4552433732313a20746f6b656e20616c7265616479206d696e74656400000000604482015290519081900360640190fd5b600081815260016020908152604080832080546001600160a01b0319166001600160a01b038716908117909155835260039091529020613f3390613c1b565b60405181906001600160a01b038416906000907fddf252ad1be2c89b69c2b068fc378daa952ba7f163c4a11628f55a4df523b3ef908290a45050565b6000613f83846001600160a01b031661412b565b613f8f57506001612067565b6000846001600160a01b031663150b7a02613fa8613260565b8887876040518563ffffffff1660e01b815260040180856001600160a01b03166001600160a01b03168152602001846001600160a01b03166001600160a01b0316815260200183815260200180602001828103825283818151815260200191508051906020019080838360005b8381101561402d578181015183820152602001614015565b50505050905090810190601f16801561405a5780820380516001836020036101000a031916815260200191505b5095505050505050602060405180830381600087803b15801561407c57600080fd5b505af1158015614090573d6000803e3d6000fd5b505050506040513d60208110156140a657600080fd5b50516001600160e01b031916630a85bd0160e11b14915050949350505050565b600081836141155760405162461bcd60e51b8152602060048201818152835160248401528351909283926044909101919085019080838360008315613d7a578181015183820152602001613d62565b50600083858161412157fe5b0495945050505050565b6000813f7fc5d2460186f7233c927e7db2dcc703c0e500b653ca82273b7bfad8045d85a47081158015906120675750141592915050565b828054600181600116156101000203166002900490600052602060002090601f016020900481019282601f106141a357805160ff19168380011785556141d0565b828001600101855582156141d0579182015b828111156141d05782518255916020019190600101906141b5565b506141dc9291506141e0565b5090565b610fc591905b808211156141dc57600081556001016141e656fe6f6e6c7920636c61696d73207468617420617265206265696e6720736f6c642063616e206265206465706f73746564657870697265732061667465722076616c75652063616e6e6f7420626520746f6f206c617267654552433732313a207472616e7366657220746f206e6f6e20455243373231526563656976657220696d706c656d656e746572506175736572526f6c653a2063616c6c657220646f6573206e6f742068617665207468652050617573657220726f6c656d75737420626520776f726b696e6720776974682074686520636f72726563742077617272616e7465656f6e6c7920636c61696d73207468617420617265206e6f74206265696e6720736f6c642063616e2062652070757420757020666f722073616c65636c61696d2063616e206f6e6c792062652066756c6c66696c6c656420666f7220746865206f726967696e616c206167726565642075706f6e2076616c756174696f6e4552433732313a207472616e7366657220746f20746865207a65726f2061646472657373416464726573733a20756e61626c6520746f2073656e642076616c75652c20726563697069656e74206d617920686176652072657665727465644552433732313a206f70657261746f7220717565727920666f72206e6f6e6578697374656e7420746f6b656e636c61696d206d7573742070726573657276652063757272656e746c79206261636b65642076616c75656f6e6c79206e6f6e2072656465656d656420636c61696d732063616e207573652074686973206d6574686f644552433732313a20617070726f76652063616c6c6572206973206e6f74206f776e6572206e6f7220617070726f76656420666f7220616c6c617661696c61626c6520637265646974206d757374206d656574206f722065786365656420636c61696d2076616c75654552433732313a2062616c616e636520717565727920666f7220746865207a65726f20616464726573734552433732313a206f776e657220717565727920666f72206e6f6e6578697374656e7420746f6b656e526f6c65733a206163636f756e7420646f6573206e6f74206861766520726f6c6573656e646572206d757374206265207468652077617272616e746f72206f662074686520746f6b656e636c61696d206d7573742062652067756172616e7465656420746f20686176652076616c7565536166654d6174683a206d756c7469706c69636174696f6e206f766572666c6f774552433732313a20617070726f76656420717565727920666f72206e6f6e6578697374656e7420746f6b656e4552433732314d657461646174613a2055524920736574206f66206e6f6e6578697374656e7420746f6b656e526f6c65733a206163636f756e7420697320746865207a65726f20616464726573734552433732313a207472616e73666572206f6620746f6b656e2074686174206973206e6f74206f776e4552433732314d657461646174613a2055524920717565727920666f72206e6f6e6578697374656e7420746f6b656e6f6e6c7920612072656465656d656420636c61696d2063616e2062652072657365744552433732313a20617070726f76616c20746f2063757272656e74206f776e657261206d7573742062652067726561746572207468616e206f7220657175616c20746f20625061757361626c653a20706175736564000000000000000000000000000000006f6e6c79206e6f6e207465726d696e6174656420636c61696d732063616e207573652074686973206d6574686f644552433732313a207472616e736665722063616c6c6572206973206e6f74206f776e6572206e6f7220617070726f76656473656e646572206d757374206569746865722062652074686520746f6b656e206f776e6572202877617272616e74656529206f72207468652077617272616e746f7273656e646572206d75737420626520746865206f776e6572206f662074686520746f6b656ea265627a7a723158200b2f3f2b5017f8a34fe4e6312bfbc0b5b9d2f4bcf2bec25ed2941d2e2636b6b164736f6c634300050c0032526f6c65733a206163636f756e7420697320746865207a65726f2061646472657373",
  "source": "pragma solidity >=0.4.21 <0.7.0;\n\nimport \"@openzeppelin/contracts/math/SafeMath.sol\";\nimport \"@openzeppelin/contracts/math/Math.sol\";\nimport \"@openzeppelin/contracts/utils/Address.sol\";\nimport \"@openzeppelin/contracts/token/ERC721/ERC721Metadata.sol\";\nimport \"@openzeppelin/contracts/utils/ReentrancyGuard.sol\";\nimport \"@openzeppelin/contracts/lifecycle/Pausable.sol\";\n\n/**\n * @title A digital relationship between two entities\n * @author Michael McLaughlin\n * @notice You can use this contract for basic warranties\n */\ncontract Warranty is ERC721Metadata, ReentrancyGuard, Pausable {\n  using SafeMath for uint256;\n  using Math for uint256;\n  using Address for address payable;\n\n  mapping(uint256 => address) public _pendingTransfer;\n  mapping(address => uint256) public _balances;\n\n  Claim[] public _claims;\n  struct Claim {\n    address warrantor;\n    uint256 value;\n    uint256 valuation;\n    uint256 expiresAfter;\n    uint256 activatedAt;\n    uint256 delayTime;\n    bool redeemed;\n    bool fulfilled;\n    bool terminated;\n    string notes;\n  }\n\n  event BalanceUpdated(address indexed addr, uint256 amount, uint256 balance, bool negative);\n  event Withdrawn(address indexed addr, address indexed target, uint256 amount, uint256 balance);\n  event Redeemed(address indexed warrantor, address indexed warrantee, uint256 indexed tokenId, bool redeemed);\n  event Fulfilled(address indexed warrantor, address indexed warrantee, uint256 indexed tokenId, bool redeemed);\n  event Terminated(uint256 indexed tokenId);\n  event Guaranteed(address indexed warrantor, uint256 indexed tokenId);\n  event ClaimBalanceUpdated(uint256 indexed tokenId, uint256 value);\n\n  constructor()\n    ERC721Metadata(\"Warrantee\", \"WRNT\")\n    ReentrancyGuard()\n    Pausable()\n    public\n  {}\n\n  /**\n   * @notice Allows only the two entities to run operation\n   * @param tokenId uint256 ID is the token in question\n   */\n  modifier warranteeOrWarrantorOnly(uint256 tokenId) {\n    require((\n      isWarrantee(msg.sender, tokenId) ||\n      isWarrantor(msg.sender, tokenId)\n    ), \"sender must either be the token owner (warrantee) or the warrantor\");\n    _;\n  }\n  /**\n   * @notice Allows only the warrantee of a claim to operate\n   * @param tokenId uint256 ID is the token in question\n   */\n  modifier warranteeOnly(uint256 tokenId) {\n    require(isWarrantee(msg.sender, tokenId), \"sender must be the owner of the token\");\n    _;\n  }\n  /**\n   * @notice Allows only the warrantor of a claim to operate\n   * @param tokenId uint256 ID is the token in question\n   */\n  modifier warrantorOnly(uint256 tokenId) {\n    require(isWarrantor(msg.sender, tokenId), \"sender must be the warrantor of the token\");\n    _;\n  }\n  /**\n   * @notice Allows only non redeemed tokens to be operated upon\n   * @param tokenId uint256 ID is the token in question\n   */\n  modifier notRedeemedOnly(uint256 tokenId) {\n    require(!_claims[tokenId].redeemed, \"only non redeemed claims can use this method\");\n    _;\n  }\n  /**\n   * @notice Allows only non terminated tokens to be operated upon\n   * @param tokenId uint256 ID is the token in question\n   */\n  modifier notTerminatedOnly(uint256 tokenId) {\n    require(!_claims[tokenId].terminated, \"only non terminated claims can use this method\");\n    _;\n  }\n  /**\n   * @notice Requires two values to be greater than or equal\n   * when compared to one another\n   * @param a uint256 is the first value, which must be greater than or equal to the second parameter\n   * @param b uint256 is the second value, which must be less than or equal to the first parameter\n   */\n  modifier greaterThanOrEqual(uint256 a, uint256 b) {\n    require(a >= b, \"a must be greater than or equal to b\");\n    _;\n  }\n  /**\n   * @notice Checks whether a given token is owned by a particular address\n   * @param warrantee address is the owner in question\n   * @param tokenId uint256 is the token in question\n   */\n  modifier checkWarranteeOf(address warrantee, uint256 tokenId) {\n    if (warrantee != address(0)) { // any owner is honored\n      require(isWarrantee(warrantee, tokenId), \"must be working with the correct warrantee\");\n    }\n    _;\n  }\n  /**\n   * @notice Makes sure that the account passed is the owner of the token\n   * @param account address is the address being checked against\n   * @param tokenId uint256 ID is the token in question\n   * @return matches as bool whether the account is indeed the owner of the token\n   */\n  function isWarrantee(address account, uint256 tokenId) public view returns(bool matches) {\n    return account == this.ownerOf(tokenId);\n  }\n  /**\n   * @notice Makes sure that the account passed is set as the token's warrantor\n   * @param account address is the address being checked against\n   * @param tokenId uint256 ID is the token in question\n   * @return matches as bool whether the account is indeed the warrantor of the token\n   */\n  function isWarrantor(address account, uint256 tokenId) public view returns(bool matches) {\n    return account == _claims[tokenId].warrantor;\n  }\n  function timestamp() internal view returns(uint256) {\n    return block.timestamp;\n  }\n  /**\n   * @notice Checks the balance of a given account\n   * @param account address to check the balance credited by the contract\n   * @return amount as uint256 as the balance credited to the account and available for withdrawal\n   */\n  function balance(address account) public view returns(uint256 amount) {\n    return _balances[account];\n  }\n  /**\n   * @notice Extend the timeline until the claim expires\n   * @param tokenId uint256 as the targeted token\n   * @param expiryTime uint256 as the amount of time to be added to the expiry time first set when the claim was created\n   * @param delayTime uint256 as the amount of time to be added to the delay time first set to zero\n   */\n  function extendClaimExpiration(uint256 tokenId, uint256 expiryTime, uint256 delayTime)\n    public\n    whenNotPaused\n    warrantorOnly(tokenId)\n    notTerminatedOnly(tokenId)\n    notRedeemedOnly(tokenId)\n    // ensure no overflow occurs\n    greaterThanOrEqual(_claims[tokenId].activatedAt.add(delayTime).add(expiryTime), _claims[tokenId].activatedAt)\n  {\n    _claims[tokenId].delayTime = _claims[tokenId].delayTime.add(delayTime);\n    _claims[tokenId].expiresAfter = _claims[tokenId].expiresAfter.add(expiryTime);\n  }\n  /**\n   * @notice Updates a given account's credited balance.\n   * @param account address to be credited or debited\n   * @param amount uint256 is the amount to add or subtract\n   * @param negative bool defines whether or not the value should be added or subtracted\n   */\n  function updateBalance(address account, uint256 amount, bool negative) internal {\n    if (amount == 0) return;\n    if (negative) {\n      _balances[account] = _balances[account].sub(amount);\n    } else {\n      _balances[account] = _balances[account].add(amount);\n    }\n    emit BalanceUpdated(account, amount, _balances[account], negative);\n  }\n  function credit(address payee, uint256 amount) internal {\n    updateBalance(payee, amount, false);\n  }\n  function debit(address payer, uint256 amount) internal {\n    updateBalance(payer, amount, true);\n  }\n  /**\n   * @notice Deposits eth and directly credits an account\n   * @param account address to send the eth to\n   */\n  function deposit(address account) public payable whenNotPaused {\n    credit(account, msg.value);\n  }\n  /**\n   * @notice Warrantor can fulfill the claim for the amount agreed upon when the claim was first created.\n   * @param warrantee address to check ownership of the token (optional)\n   * @param tokenId uint256 the id of the token in question\n   */\n  function fulfillClaim(address warrantee, uint256 tokenId)\n    public\n    payable\n    whenNotPaused\n    warrantorOnly(tokenId)\n    checkWarranteeOf(warrantee, tokenId)\n  {\n    Claim storage claim = _claims[tokenId];\n    // if the warrantor sends more than enough or has enough in their balance\n    uint256 bal = balance(msg.sender);\n    debit(msg.sender, bal); // guarantor temporarily has zero balance\n    uint256 value = claim.value.add(msg.value).add(bal);\n    require(value >= claim.valuation, \"claim can only be fullfilled for the original agreed upon valuation\");\n    credit(msg.sender, value.sub(claim.valuation));\n    credit(this.ownerOf(tokenId), claim.valuation);\n    updateClaimValue(tokenId, 0); // remove funds locked in claim\n    claim.fulfilled = true;\n    emit Fulfilled(msg.sender, warrantee, tokenId, claim.redeemed);\n    _terminateClaim(tokenId);\n  }\n  function _terminateClaim(uint256 tokenId)\n    internal\n    notTerminatedOnly(tokenId)\n  {\n    Claim storage claim = _claims[tokenId];\n    if (!claim.fulfilled && claim.value != 0) {\n      // should only have value assigned, to be divii'd up if claim has not been fulfilled\n      uint256 elapsed = claim.expiresAfter.sub(timeToClaimExpire(tokenId));\n      uint256 leftover = claim.value.mul(claim.expiresAfter).sub(claim.value.mul(elapsed)).div(claim.expiresAfter);\n      credit(this.ownerOf(tokenId), leftover);\n      credit(claim.warrantor, claim.value.sub(leftover));\n    }\n    claim.terminated = true;\n    emit Terminated(tokenId);\n  }\n  /**\n   * @notice Terminates the claim in question. Ends the claim completely and hands all funds over to the warrantor.\n   * disallow redeemed tokens from being terminated\n   * @param tokenId uint256 is the targeted token\n   */\n  function terminateClaim(uint256 tokenId)\n    public\n    whenNotPaused\n    warranteeOrWarrantorOnly(tokenId)\n    notRedeemedOnly(tokenId)\n  {\n    _terminateClaim(tokenId);\n  }\n  /**\n   * @notice Releases funds credited to the sender to a given account\n   * @dev account param will, in most cases, be the sender's address\n   * @dev nonReentrant modifier used to prevent double spends\n   * @param account address the account to send the eth to\n   * @param amount uint256 the amount of eth to send to the account\n   */\n  function releaseTo(address payable account, uint256 amount)\n    public\n    nonReentrant\n    whenNotPaused\n    greaterThanOrEqual(_balances[msg.sender], amount)\n  {\n    address payable sender = msg.sender;\n    address payable target = account;\n    if (address(0) == target) {\n      target = sender;\n    }\n    debit(sender, amount);\n    target.sendValue(amount);\n    emit Withdrawn(sender, target, amount, _balances[sender]);\n  }\n  /**\n   * @notice Creates and guarantees a claim\n   * @param warrantee address is the new owner of the token\n   * @param valuation uint256 is the value agreed that is required to fulfill the claim at the end of its life\n   * @param expiresAfter uint256 creates a window in seconds within which a claim can be redeemed to be subesequently fulfilled.\n   */\n  function createAndGuaranteeClaim(\n    address payable warrantee,\n    uint256 valuation,\n    uint256 expiresAfter,\n    string memory tokenURI,\n    string memory notes\n  )\n    public\n    payable\n    returns(uint256)\n  {\n    uint256 tokenId = createClaim(warrantee, msg.sender, valuation, expiresAfter, tokenURI, notes);\n    guaranteeClaim(tokenId, msg.value);\n    return tokenId;\n  }\n  /**\n   * @notice provides the full timeline for a given claim's expiration\n   * @param tokenId uint256 defines the token in question\n   * @return expireTime uint256 defines when the claim will no longer be redeemable by the warrantee\n   */\n  function claimExpireTime(uint256 tokenId)\n    public\n    view\n    whenNotPaused\n    returns(uint256 expireTime)\n  {\n    return _claims[tokenId].activatedAt.add(_claims[tokenId].delayTime).add(_claims[tokenId].expiresAfter);\n  }\n  /**\n   * @notice provides the number of seconds until the expireTime will be reached\n   * @param tokenId uint256 the token in question\n   * @return timeUntil uint256 defines the number of seconds until the expireTime is met\n   */\n  function timeToClaimExpire(uint256 tokenId)\n    public\n    view\n    whenNotPaused\n    returns(uint256 timeUntil)\n  {\n    uint256 expireTime = claimExpireTime(tokenId);\n    uint256 tsmp = timestamp();\n    if (expireTime <= tsmp) {\n      return 0;\n    }\n    return expireTime.sub(tsmp);\n  }\n  /**\n   * @notice Guarantees a claim by claiming responsibility for the other side of the transaction, the warrantor\n   * also useful when being sold a warranty by another warrantor or by the warrantee\n   * @param tokenId uint256 targets a specific token\n   */\n  function guaranteeClaim(uint256 tokenId, uint256 value)\n    public\n    payable\n    whenNotPaused\n    notRedeemedOnly(tokenId)\n    notTerminatedOnly(tokenId)\n  {\n    Claim storage claim = _claims[tokenId];\n    if ((claim.warrantor == address(0)) || (claim.warrantor != msg.sender)) {\n      // activatedAt will not yet be set if first time\n      if (claim.activatedAt != 0) {\n        require(_pendingTransfer[tokenId] != address(0), \"claim must be pending transfer\");\n        require(claim.warrantor != address(0), \"claim must be guaranteed to have value\");\n        credit(claim.warrantor, claim.value); // give back the value provided by previous warrantor\n        uint256 availableCredit = balance(msg.sender).add(msg.value);\n        require(availableCredit >= claim.value, \"available credit must meet or exceed claim value\");\n        require(value >= claim.value, \"claim must preserve currently backed value\");\n        claim.value = 0; // reset value\n      }\n      _pendingTransferClaim(tokenId, address(0));\n      claim.warrantor = msg.sender;\n      if (claim.activatedAt == 0) {\n        claim.activatedAt = timestamp();\n      }\n      emit Guaranteed(msg.sender, tokenId);\n    }\n    fundClaim(tokenId, value); // back claim with new value\n  }\n  /**\n   * @notice Posts a claim to be picked up \"guaranteed\" by another entity\n   * @dev can only sell if the token is not already being sold\n   * @param tokenId uint256 the targeted token\n   * @param account address the buyer to pick up the claim\n   */\n  function postClaim(uint256 tokenId, address account)\n    public\n    whenNotPaused\n    warranteeOrWarrantorOnly(tokenId)\n  {\n    require(_pendingTransfer[tokenId] == address(0), \"only claims that are not being sold can be put up for sale\");\n    _pendingTransferClaim(tokenId, account);\n  }\n  /**\n   * @notice Un-posts a claim that was previously posted.\n   * If there is a disagreement, the warrantee can refuse the transfer\n   * @param tokenId uint256 the targeted token\n   */\n  function depostClaim(uint256 tokenId)\n    public\n    whenNotPaused\n    warranteeOrWarrantorOnly(tokenId)\n  {\n    require(_pendingTransfer[tokenId] != address(0), \"only claims that are being sold can be deposted\");\n    _pendingTransferClaim(tokenId, address(0));\n  }\n  function _pendingTransferClaim(uint256 tokenId, address account) internal {\n    _pendingTransfer[tokenId] = account;\n  }\n  // anybody can add to a claim's value. value will only be accessable to the owner\n  /**\n   * @notice Fund a claim\n   * @dev only funds if the claim has not already been terminated.\n   * Otherwise it would go directly to the warrantor or the warrantee if it was redeemed.\n   * That's just confusing.\n   * @param tokenId uint256 the token to be targeted\n   */\n  function fundClaim(uint256 tokenId, uint256 amount)\n    public\n    payable\n    notTerminatedOnly(tokenId)\n  {\n    deposit(msg.sender);\n    creditClaim(tokenId, amount);\n    debit(msg.sender, amount);\n  }\n  function creditClaim(uint256 tokenId, uint256 value) internal {\n    if (value != 0) {\n      updateClaimValue(tokenId, _claims[tokenId].value.add(value));\n    }\n  }\n  function updateClaimValue(uint256 tokenId, uint256 value) internal {\n    _claims[tokenId].value = value;\n    emit ClaimBalanceUpdated(tokenId, value);\n  }\n  /**\n   * @notice De-Redeems a claim. Allows for warrantee or warrantor to reset time if guarantee's submission did not meet agreement, or for any other reason\n   * @dev Can only be completed by the warrantee or warrantor.\n   * only warrantor adds extra time. transactions would be no-ops if they came from user, or at worst would waste the tx fees from the business\n   * @param tokenId uint256 targets a token\n   * @param expiryTime uint256 adds more time (in seconds) to the expiration decay\n   * @param delayTime uint256 adds more time to the delay offset (in seconds)\n   */\n  function deredeemClaim(uint256 tokenId, uint256 expiryTime, uint256 delayTime)\n    public\n    whenNotPaused\n    warranteeOrWarrantorOnly(tokenId)\n  {\n    require(_claims[tokenId].redeemed, \"only a redeemed claim can be reset\");\n    _claims[tokenId].redeemed = false;\n    emit Redeemed(_claims[tokenId].warrantor, this.ownerOf(tokenId), tokenId, _claims[tokenId].redeemed);\n    if (msg.sender == _claims[tokenId].warrantor) {\n      extendClaimExpiration(tokenId, expiryTime, delayTime);\n    }\n  }\n  function refundClaim(uint256 tokenId)\n    public\n    whenNotPaused\n    warrantorOnly(tokenId)\n    // can be expired, just not terminated\n    notTerminatedOnly(tokenId)\n  {\n    Claim storage claim = _claims[tokenId];\n    credit(this.ownerOf(tokenId), claim.value);\n    claim.value = 0;\n    _terminateClaim(tokenId);\n  }\n  /**\n   * @notice Redeems a claim such that an account is notified that it needs to be fulfilled\n   * if claim is accepted guarantee will get the funds defined in valuation back\n   * @param tokenId targets a given token\n   */\n  function redeemClaim(uint256 tokenId)\n    public\n    whenNotPaused\n    warranteeOnly(tokenId)\n    notRedeemedOnly(tokenId)\n    notTerminatedOnly(tokenId)\n  {\n    require(!_claims[tokenId].redeemed, \"claim cannot be redeemed\");\n    _claims[tokenId].redeemed = true;\n    emit Redeemed(_claims[tokenId].warrantor, this.ownerOf(tokenId), tokenId, _claims[tokenId].redeemed);\n  }\n  /**\n   * @notice overwrites an internal safeMint to allow anyone to mint their own\n   * could probably be gotten rid of if a factory was used instead\n   * @param to address the address to assign ownership of the newly minted token to\n   * @param tokenId uint256 the id of the token to be minted\n   * @param _data bytes a set of bytes to hold with the tokenId\n   */\n  function safeMint(address to, uint256 tokenId, bytes memory _data) public returns (bool) {\n    _safeMint(to, tokenId, _data);\n    return true;\n  }\n  /**\n   * @notice Create a claim by minting it yourself or any given contract\n   * @dev safeMint is used so integrating with a contract should be possible\n   * @param warrantee address is the address that should own the token to start\n   * @param warrantor is the address that the claim should be posted to for sale\n   * @param valuation holds the agreed upon valuation of the claim\n   * @param expiresAfter holds the number of seconds after the claim is guaranteed by a warrantor that the warranty should expire\n   * @return tokenId uint256 sends back the tokenId created\n   */\n  function createClaim(\n    address warrantee,\n    address warrantor,\n    uint256 valuation,\n    uint256 expiresAfter,\n    string memory tokenURI,\n    string memory notes\n  )\n    public\n    whenNotPaused\n    returns(uint256)\n  {\n    uint256 tokenId = _claims.length;\n    require(expiresAfter < 100000000000, \"expires after value cannot be too large\");\n    _safeMint(warrantee, tokenId);\n    if (bytes(tokenURI).length > 0) {\n      _setTokenURI(tokenId, tokenURI);\n    }\n    // metadata to associate with the id\n    _claims.push(Claim({\n      valuation: valuation,\n      // set when the claim is guaranteed\n      value: 0,\n      warrantor: address(0),\n      activatedAt: 0,\n      delayTime: 0,\n      // only need approximations\n      expiresAfter: expiresAfter,\n      redeemed: false,\n      fulfilled: false,\n      terminated: false,\n      // arbitrary data that must be on chain\n      notes: notes\n    }));\n    _pendingTransferClaim(tokenId, warrantor);\n    return tokenId;\n  }\n\n  function () external payable {\n    deposit(msg.sender);\n  }\n}\n",
  "sourcePath": "/Users/michaelmclaughlin/Sites/blockchain/ethereum/warrantee/contracts/Warranty.sol",
  "compiler": {
    "name": "solc",
    "version": "0.5.12+commit.7709ece9.Emscripten.clang"
  },
  "schemaVersion": "3.0.19",
  "updatedAt": "2020-02-01T05:02:49.429Z",
  "networkType": "ethereum",
  "devdoc": {
    "author": "Michael McLaughlin",
    "methods": {
      "approve(address,uint256)": {
        "details": "Approves another address to transfer the given token ID The zero address indicates there is no approved address. There can only be one approved address per token at a given time. Can only be called by the token owner or an approved operator.",
        "params": {
          "to": "address to be approved for the given token ID",
          "tokenId": "uint256 ID of the token to be approved"
        }
      },
      "balance(address)": {
        "params": {
          "account": "address to check the balance credited by the contract"
        },
        "return": "amount as uint256 as the balance credited to the account and available for withdrawal"
      },
      "balanceOf(address)": {
        "details": "Gets the balance of the specified address.",
        "params": {
          "owner": "address to query the balance of"
        },
        "return": "uint256 representing the amount owned by the passed address"
      },
      "claimExpireTime(uint256)": {
        "params": {
          "tokenId": "uint256 defines the token in question"
        },
        "return": "expireTime uint256 defines when the claim will no longer be redeemable by the warrantee"
      },
      "createAndGuaranteeClaim(address,uint256,uint256,string,string)": {
        "params": {
          "expiresAfter": "uint256 creates a window in seconds within which a claim can be redeemed to be subesequently fulfilled.",
          "valuation": "uint256 is the value agreed that is required to fulfill the claim at the end of its life",
          "warrantee": "address is the new owner of the token"
        }
      },
      "createClaim(address,address,uint256,uint256,string,string)": {
        "details": "safeMint is used so integrating with a contract should be possible",
        "params": {
          "expiresAfter": "holds the number of seconds after the claim is guaranteed by a warrantor that the warranty should expire",
          "valuation": "holds the agreed upon valuation of the claim",
          "warrantee": "address is the address that should own the token to start",
          "warrantor": "is the address that the claim should be posted to for sale"
        },
        "return": "tokenId uint256 sends back the tokenId created"
      },
      "deposit(address)": {
        "params": {
          "account": "address to send the eth to"
        }
      },
      "depostClaim(uint256)": {
        "params": {
          "tokenId": "uint256 the targeted token"
        }
      },
      "deredeemClaim(uint256,uint256,uint256)": {
        "details": "Can only be completed by the warrantee or warrantor. only warrantor adds extra time. transactions would be no-ops if they came from user, or at worst would waste the tx fees from the business",
        "params": {
          "delayTime": "uint256 adds more time to the delay offset (in seconds)",
          "expiryTime": "uint256 adds more time (in seconds) to the expiration decay",
          "tokenId": "uint256 targets a token"
        }
      },
      "extendClaimExpiration(uint256,uint256,uint256)": {
        "params": {
          "delayTime": "uint256 as the amount of time to be added to the delay time first set to zero",
          "expiryTime": "uint256 as the amount of time to be added to the expiry time first set when the claim was created",
          "tokenId": "uint256 as the targeted token"
        }
      },
      "fulfillClaim(address,uint256)": {
        "params": {
          "tokenId": "uint256 the id of the token in question",
          "warrantee": "address to check ownership of the token (optional)"
        }
      },
      "fundClaim(uint256,uint256)": {
        "details": "only funds if the claim has not already been terminated. Otherwise it would go directly to the warrantor or the warrantee if it was redeemed. That's just confusing.",
        "params": {
          "tokenId": "uint256 the token to be targeted"
        }
      },
      "getApproved(uint256)": {
        "details": "Gets the approved address for a token ID, or zero if no address set Reverts if the token ID does not exist.",
        "params": {
          "tokenId": "uint256 ID of the token to query the approval of"
        },
        "return": "address currently approved for the given token ID"
      },
      "guaranteeClaim(uint256,uint256)": {
        "params": {
          "tokenId": "uint256 targets a specific token"
        }
      },
      "isApprovedForAll(address,address)": {
        "details": "Tells whether an operator is approved by a given owner.",
        "params": {
          "operator": "operator address which you want to query the approval of",
          "owner": "owner address which you want to query the approval of"
        },
        "return": "bool whether the given operator is approved by the given owner"
      },
      "isWarrantee(address,uint256)": {
        "params": {
          "account": "address is the address being checked against",
          "tokenId": "uint256 ID is the token in question"
        },
        "return": "matches as bool whether the account is indeed the owner of the token"
      },
      "isWarrantor(address,uint256)": {
        "params": {
          "account": "address is the address being checked against",
          "tokenId": "uint256 ID is the token in question"
        },
        "return": "matches as bool whether the account is indeed the warrantor of the token"
      },
      "name()": {
        "details": "Gets the token name.",
        "return": "string representing the token name"
      },
      "ownerOf(uint256)": {
        "details": "Gets the owner of the specified token ID.",
        "params": {
          "tokenId": "uint256 ID of the token to query the owner of"
        },
        "return": "address currently marked as the owner of the given token ID"
      },
      "pause()": {
        "details": "Called by a pauser to pause, triggers stopped state."
      },
      "paused()": {
        "details": "Returns true if the contract is paused, and false otherwise."
      },
      "postClaim(uint256,address)": {
        "details": "can only sell if the token is not already being sold",
        "params": {
          "account": "address the buyer to pick up the claim",
          "tokenId": "uint256 the targeted token"
        }
      },
      "redeemClaim(uint256)": {
        "params": {
          "tokenId": "targets a given token"
        }
      },
      "releaseTo(address,uint256)": {
        "details": "account param will, in most cases, be the sender's addressnonReentrant modifier used to prevent double spends",
        "params": {
          "account": "address the account to send the eth to",
          "amount": "uint256 the amount of eth to send to the account"
        }
      },
      "safeMint(address,uint256,bytes)": {
        "params": {
          "_data": "bytes a set of bytes to hold with the tokenId",
          "to": "address the address to assign ownership of the newly minted token to",
          "tokenId": "uint256 the id of the token to be minted"
        }
      },
      "safeTransferFrom(address,address,uint256)": {
        "details": "Safely transfers the ownership of a given token ID to another address If the target address is a contract, it must implement {IERC721Receiver-onERC721Received}, which is called upon a safe transfer, and return the magic value `bytes4(keccak256(\"onERC721Received(address,address,uint256,bytes)\"))`; otherwise, the transfer is reverted. Requires the msg.sender to be the owner, approved, or operator",
        "params": {
          "from": "current owner of the token",
          "to": "address to receive the ownership of the given token ID",
          "tokenId": "uint256 ID of the token to be transferred"
        }
      },
      "safeTransferFrom(address,address,uint256,bytes)": {
        "details": "Safely transfers the ownership of a given token ID to another address If the target address is a contract, it must implement {IERC721Receiver-onERC721Received}, which is called upon a safe transfer, and return the magic value `bytes4(keccak256(\"onERC721Received(address,address,uint256,bytes)\"))`; otherwise, the transfer is reverted. Requires the _msgSender() to be the owner, approved, or operator",
        "params": {
          "_data": "bytes data to send along with a safe transfer check",
          "from": "current owner of the token",
          "to": "address to receive the ownership of the given token ID",
          "tokenId": "uint256 ID of the token to be transferred"
        }
      },
      "setApprovalForAll(address,bool)": {
        "details": "Sets or unsets the approval of a given operator An operator is allowed to transfer all tokens of the sender on their behalf.",
        "params": {
          "approved": "representing the status of the approval to be set",
          "to": "operator address to set the approval"
        }
      },
      "supportsInterface(bytes4)": {
        "details": "See {IERC165-supportsInterface}.     * Time complexity O(1), guaranteed to always use less than 30 000 gas."
      },
      "symbol()": {
        "details": "Gets the token symbol.",
        "return": "string representing the token symbol"
      },
      "terminateClaim(uint256)": {
        "params": {
          "tokenId": "uint256 is the targeted token"
        }
      },
      "timeToClaimExpire(uint256)": {
        "params": {
          "tokenId": "uint256 the token in question"
        },
        "return": "timeUntil uint256 defines the number of seconds until the expireTime is met"
      },
      "tokenURI(uint256)": {
        "details": "Returns an URI for a given token ID. Throws if the token ID does not exist. May return an empty string.",
        "params": {
          "tokenId": "uint256 ID of the token to query"
        }
      },
      "transferFrom(address,address,uint256)": {
        "details": "Transfers the ownership of a given token ID to another address. Usage of this method is discouraged, use {safeTransferFrom} whenever possible. Requires the msg.sender to be the owner, approved, or operator.",
        "params": {
          "from": "current owner of the token",
          "to": "address to receive the ownership of the given token ID",
          "tokenId": "uint256 ID of the token to be transferred"
        }
      },
      "unpause()": {
        "details": "Called by a pauser to unpause, returns to normal state."
      }
    },
    "title": "A digital relationship between two entities"
  },
  "userdoc": {
    "methods": {
      "balance(address)": {
        "notice": "Checks the balance of a given account"
      },
      "claimExpireTime(uint256)": {
        "notice": "provides the full timeline for a given claim's expiration"
      },
      "createAndGuaranteeClaim(address,uint256,uint256,string,string)": {
        "notice": "Creates and guarantees a claim"
      },
      "createClaim(address,address,uint256,uint256,string,string)": {
        "notice": "Create a claim by minting it yourself or any given contract"
      },
      "deposit(address)": {
        "notice": "Deposits eth and directly credits an account"
      },
      "depostClaim(uint256)": {
        "notice": "Un-posts a claim that was previously posted. If there is a disagreement, the warrantee can refuse the transfer"
      },
      "deredeemClaim(uint256,uint256,uint256)": {
        "notice": "De-Redeems a claim. Allows for warrantee or warrantor to reset time if guarantee's submission did not meet agreement, or for any other reason"
      },
      "extendClaimExpiration(uint256,uint256,uint256)": {
        "notice": "Extend the timeline until the claim expires"
      },
      "fulfillClaim(address,uint256)": {
        "notice": "Warrantor can fulfill the claim for the amount agreed upon when the claim was first created."
      },
      "fundClaim(uint256,uint256)": {
        "notice": "Fund a claim"
      },
      "guaranteeClaim(uint256,uint256)": {
        "notice": "Guarantees a claim by claiming responsibility for the other side of the transaction, the warrantor also useful when being sold a warranty by another warrantor or by the warrantee"
      },
      "isWarrantee(address,uint256)": {
        "notice": "Makes sure that the account passed is the owner of the token"
      },
      "isWarrantor(address,uint256)": {
        "notice": "Makes sure that the account passed is set as the token's warrantor"
      },
      "postClaim(uint256,address)": {
        "notice": "Posts a claim to be picked up \"guaranteed\" by another entity"
      },
      "redeemClaim(uint256)": {
        "notice": "Redeems a claim such that an account is notified that it needs to be fulfilled if claim is accepted guarantee will get the funds defined in valuation back"
      },
      "releaseTo(address,uint256)": {
        "notice": "Releases funds credited to the sender to a given account"
      },
      "safeMint(address,uint256,bytes)": {
        "notice": "overwrites an internal safeMint to allow anyone to mint their own could probably be gotten rid of if a factory was used instead"
      },
      "terminateClaim(uint256)": {
        "notice": "Terminates the claim in question. Ends the claim completely and hands all funds over to the warrantor. disallow redeemed tokens from being terminated"
      },
      "timeToClaimExpire(uint256)": {
        "notice": "provides the number of seconds until the expireTime will be reached"
      }
    },
    "notice": "You can use this contract for basic warranties"
  }
}