{
  "contractName": "Warranty",
  "abi": [
    {
      "inputs": [],
      "payable": false,
      "stateMutability": "nonpayable",
      "type": "constructor"
    },
    {
      "anonymous": false,
      "inputs": [
        {
          "indexed": true,
          "internalType": "address",
          "name": "owner",
          "type": "address"
        },
        {
          "indexed": true,
          "internalType": "address",
          "name": "approved",
          "type": "address"
        },
        {
          "indexed": true,
          "internalType": "uint256",
          "name": "tokenId",
          "type": "uint256"
        }
      ],
      "name": "Approval",
      "type": "event"
    },
    {
      "anonymous": false,
      "inputs": [
        {
          "indexed": true,
          "internalType": "address",
          "name": "owner",
          "type": "address"
        },
        {
          "indexed": true,
          "internalType": "address",
          "name": "operator",
          "type": "address"
        },
        {
          "indexed": false,
          "internalType": "bool",
          "name": "approved",
          "type": "bool"
        }
      ],
      "name": "ApprovalForAll",
      "type": "event"
    },
    {
      "anonymous": false,
      "inputs": [
        {
          "indexed": true,
          "internalType": "address",
          "name": "addr",
          "type": "address"
        },
        {
          "indexed": false,
          "internalType": "uint256",
          "name": "amount",
          "type": "uint256"
        },
        {
          "indexed": false,
          "internalType": "uint256",
          "name": "balance",
          "type": "uint256"
        },
        {
          "indexed": false,
          "internalType": "bool",
          "name": "negative",
          "type": "bool"
        }
      ],
      "name": "BalanceUpdated",
      "type": "event"
    },
    {
      "anonymous": false,
      "inputs": [
        {
          "indexed": true,
          "internalType": "uint256",
          "name": "tokenId",
          "type": "uint256"
        },
        {
          "indexed": false,
          "internalType": "uint256",
          "name": "value",
          "type": "uint256"
        }
      ],
      "name": "ClaimBalanceUpdated",
      "type": "event"
    },
    {
      "anonymous": false,
      "inputs": [
        {
          "indexed": true,
          "internalType": "address",
          "name": "warrantor",
          "type": "address"
        },
        {
          "indexed": true,
          "internalType": "address",
          "name": "warrantee",
          "type": "address"
        },
        {
          "indexed": true,
          "internalType": "uint256",
          "name": "tokenId",
          "type": "uint256"
        },
        {
          "indexed": false,
          "internalType": "bool",
          "name": "redeemed",
          "type": "bool"
        }
      ],
      "name": "Fulfilled",
      "type": "event"
    },
    {
      "anonymous": false,
      "inputs": [
        {
          "indexed": false,
          "internalType": "address",
          "name": "account",
          "type": "address"
        }
      ],
      "name": "Paused",
      "type": "event"
    },
    {
      "anonymous": false,
      "inputs": [
        {
          "indexed": true,
          "internalType": "address",
          "name": "account",
          "type": "address"
        }
      ],
      "name": "PauserAdded",
      "type": "event"
    },
    {
      "anonymous": false,
      "inputs": [
        {
          "indexed": true,
          "internalType": "address",
          "name": "account",
          "type": "address"
        }
      ],
      "name": "PauserRemoved",
      "type": "event"
    },
    {
      "anonymous": false,
      "inputs": [
        {
          "indexed": true,
          "internalType": "address",
          "name": "warrantor",
          "type": "address"
        },
        {
          "indexed": true,
          "internalType": "address",
          "name": "warrantee",
          "type": "address"
        },
        {
          "indexed": true,
          "internalType": "uint256",
          "name": "tokenId",
          "type": "uint256"
        },
        {
          "indexed": false,
          "internalType": "bool",
          "name": "redeemed",
          "type": "bool"
        }
      ],
      "name": "Redeemed",
      "type": "event"
    },
    {
      "anonymous": false,
      "inputs": [
        {
          "indexed": true,
          "internalType": "uint256",
          "name": "tokenId",
          "type": "uint256"
        }
      ],
      "name": "Terminated",
      "type": "event"
    },
    {
      "anonymous": false,
      "inputs": [
        {
          "indexed": true,
          "internalType": "address",
          "name": "from",
          "type": "address"
        },
        {
          "indexed": true,
          "internalType": "address",
          "name": "to",
          "type": "address"
        },
        {
          "indexed": true,
          "internalType": "uint256",
          "name": "tokenId",
          "type": "uint256"
        }
      ],
      "name": "Transfer",
      "type": "event"
    },
    {
      "anonymous": false,
      "inputs": [
        {
          "indexed": false,
          "internalType": "address",
          "name": "account",
          "type": "address"
        }
      ],
      "name": "Unpaused",
      "type": "event"
    },
    {
      "anonymous": false,
      "inputs": [
        {
          "indexed": true,
          "internalType": "address",
          "name": "warrantor",
          "type": "address"
        },
        {
          "indexed": true,
          "internalType": "uint256",
          "name": "tokenId",
          "type": "uint256"
        }
      ],
      "name": "WarrantorshipChanged",
      "type": "event"
    },
    {
      "anonymous": false,
      "inputs": [
        {
          "indexed": true,
          "internalType": "address",
          "name": "addr",
          "type": "address"
        },
        {
          "indexed": true,
          "internalType": "address",
          "name": "target",
          "type": "address"
        },
        {
          "indexed": false,
          "internalType": "uint256",
          "name": "amount",
          "type": "uint256"
        },
        {
          "indexed": false,
          "internalType": "uint256",
          "name": "balance",
          "type": "uint256"
        }
      ],
      "name": "Withdrawn",
      "type": "event"
    },
    {
      "payable": true,
      "stateMutability": "payable",
      "type": "fallback"
    },
    {
      "constant": true,
      "inputs": [
        {
          "internalType": "address",
          "name": "",
          "type": "address"
        }
      ],
      "name": "_balances",
      "outputs": [
        {
          "internalType": "uint256",
          "name": "",
          "type": "uint256"
        }
      ],
      "payable": false,
      "stateMutability": "view",
      "type": "function"
    },
    {
      "constant": true,
      "inputs": [
        {
          "internalType": "uint256",
          "name": "",
          "type": "uint256"
        }
      ],
      "name": "_claims",
      "outputs": [
        {
          "internalType": "address",
          "name": "warrantor",
          "type": "address"
        },
        {
          "internalType": "uint256",
          "name": "value",
          "type": "uint256"
        },
        {
          "internalType": "uint256",
          "name": "valuation",
          "type": "uint256"
        },
        {
          "internalType": "uint256",
          "name": "expiresAfter",
          "type": "uint256"
        },
        {
          "internalType": "uint256",
          "name": "activatedAt",
          "type": "uint256"
        },
        {
          "internalType": "uint256",
          "name": "delayTime",
          "type": "uint256"
        },
        {
          "internalType": "bool",
          "name": "redeemed",
          "type": "bool"
        },
        {
          "internalType": "bool",
          "name": "fulfilled",
          "type": "bool"
        },
        {
          "internalType": "bool",
          "name": "terminated",
          "type": "bool"
        },
        {
          "internalType": "string",
          "name": "notes",
          "type": "string"
        }
      ],
      "payable": false,
      "stateMutability": "view",
      "type": "function"
    },
    {
      "constant": true,
      "inputs": [
        {
          "internalType": "uint256",
          "name": "",
          "type": "uint256"
        }
      ],
      "name": "_pendingTransfer",
      "outputs": [
        {
          "internalType": "address",
          "name": "",
          "type": "address"
        }
      ],
      "payable": false,
      "stateMutability": "view",
      "type": "function"
    },
    {
      "constant": false,
      "inputs": [
        {
          "internalType": "address",
          "name": "account",
          "type": "address"
        }
      ],
      "name": "addPauser",
      "outputs": [],
      "payable": false,
      "stateMutability": "nonpayable",
      "type": "function"
    },
    {
      "constant": false,
      "inputs": [
        {
          "internalType": "address",
          "name": "to",
          "type": "address"
        },
        {
          "internalType": "uint256",
          "name": "tokenId",
          "type": "uint256"
        }
      ],
      "name": "approve",
      "outputs": [],
      "payable": false,
      "stateMutability": "nonpayable",
      "type": "function"
    },
    {
      "constant": true,
      "inputs": [
        {
          "internalType": "address",
          "name": "owner",
          "type": "address"
        }
      ],
      "name": "balanceOf",
      "outputs": [
        {
          "internalType": "uint256",
          "name": "",
          "type": "uint256"
        }
      ],
      "payable": false,
      "stateMutability": "view",
      "type": "function"
    },
    {
      "constant": true,
      "inputs": [
        {
          "internalType": "uint256",
          "name": "tokenId",
          "type": "uint256"
        }
      ],
      "name": "getApproved",
      "outputs": [
        {
          "internalType": "address",
          "name": "",
          "type": "address"
        }
      ],
      "payable": false,
      "stateMutability": "view",
      "type": "function"
    },
    {
      "constant": true,
      "inputs": [
        {
          "internalType": "address",
          "name": "owner",
          "type": "address"
        },
        {
          "internalType": "address",
          "name": "operator",
          "type": "address"
        }
      ],
      "name": "isApprovedForAll",
      "outputs": [
        {
          "internalType": "bool",
          "name": "",
          "type": "bool"
        }
      ],
      "payable": false,
      "stateMutability": "view",
      "type": "function"
    },
    {
      "constant": true,
      "inputs": [
        {
          "internalType": "address",
          "name": "account",
          "type": "address"
        }
      ],
      "name": "isPauser",
      "outputs": [
        {
          "internalType": "bool",
          "name": "",
          "type": "bool"
        }
      ],
      "payable": false,
      "stateMutability": "view",
      "type": "function"
    },
    {
      "constant": true,
      "inputs": [],
      "name": "name",
      "outputs": [
        {
          "internalType": "string",
          "name": "",
          "type": "string"
        }
      ],
      "payable": false,
      "stateMutability": "view",
      "type": "function"
    },
    {
      "constant": true,
      "inputs": [
        {
          "internalType": "uint256",
          "name": "tokenId",
          "type": "uint256"
        }
      ],
      "name": "ownerOf",
      "outputs": [
        {
          "internalType": "address",
          "name": "",
          "type": "address"
        }
      ],
      "payable": false,
      "stateMutability": "view",
      "type": "function"
    },
    {
      "constant": false,
      "inputs": [],
      "name": "pause",
      "outputs": [],
      "payable": false,
      "stateMutability": "nonpayable",
      "type": "function"
    },
    {
      "constant": true,
      "inputs": [],
      "name": "paused",
      "outputs": [
        {
          "internalType": "bool",
          "name": "",
          "type": "bool"
        }
      ],
      "payable": false,
      "stateMutability": "view",
      "type": "function"
    },
    {
      "constant": false,
      "inputs": [],
      "name": "renouncePauser",
      "outputs": [],
      "payable": false,
      "stateMutability": "nonpayable",
      "type": "function"
    },
    {
      "constant": false,
      "inputs": [
        {
          "internalType": "address",
          "name": "from",
          "type": "address"
        },
        {
          "internalType": "address",
          "name": "to",
          "type": "address"
        },
        {
          "internalType": "uint256",
          "name": "tokenId",
          "type": "uint256"
        }
      ],
      "name": "safeTransferFrom",
      "outputs": [],
      "payable": false,
      "stateMutability": "nonpayable",
      "type": "function"
    },
    {
      "constant": false,
      "inputs": [
        {
          "internalType": "address",
          "name": "from",
          "type": "address"
        },
        {
          "internalType": "address",
          "name": "to",
          "type": "address"
        },
        {
          "internalType": "uint256",
          "name": "tokenId",
          "type": "uint256"
        },
        {
          "internalType": "bytes",
          "name": "_data",
          "type": "bytes"
        }
      ],
      "name": "safeTransferFrom",
      "outputs": [],
      "payable": false,
      "stateMutability": "nonpayable",
      "type": "function"
    },
    {
      "constant": false,
      "inputs": [
        {
          "internalType": "address",
          "name": "to",
          "type": "address"
        },
        {
          "internalType": "bool",
          "name": "approved",
          "type": "bool"
        }
      ],
      "name": "setApprovalForAll",
      "outputs": [],
      "payable": false,
      "stateMutability": "nonpayable",
      "type": "function"
    },
    {
      "constant": true,
      "inputs": [
        {
          "internalType": "bytes4",
          "name": "interfaceId",
          "type": "bytes4"
        }
      ],
      "name": "supportsInterface",
      "outputs": [
        {
          "internalType": "bool",
          "name": "",
          "type": "bool"
        }
      ],
      "payable": false,
      "stateMutability": "view",
      "type": "function"
    },
    {
      "constant": true,
      "inputs": [],
      "name": "symbol",
      "outputs": [
        {
          "internalType": "string",
          "name": "",
          "type": "string"
        }
      ],
      "payable": false,
      "stateMutability": "view",
      "type": "function"
    },
    {
      "constant": true,
      "inputs": [
        {
          "internalType": "uint256",
          "name": "tokenId",
          "type": "uint256"
        }
      ],
      "name": "tokenURI",
      "outputs": [
        {
          "internalType": "string",
          "name": "",
          "type": "string"
        }
      ],
      "payable": false,
      "stateMutability": "view",
      "type": "function"
    },
    {
      "constant": false,
      "inputs": [
        {
          "internalType": "address",
          "name": "from",
          "type": "address"
        },
        {
          "internalType": "address",
          "name": "to",
          "type": "address"
        },
        {
          "internalType": "uint256",
          "name": "tokenId",
          "type": "uint256"
        }
      ],
      "name": "transferFrom",
      "outputs": [],
      "payable": false,
      "stateMutability": "nonpayable",
      "type": "function"
    },
    {
      "constant": false,
      "inputs": [],
      "name": "unpause",
      "outputs": [],
      "payable": false,
      "stateMutability": "nonpayable",
      "type": "function"
    },
    {
      "constant": true,
      "inputs": [
        {
          "internalType": "address",
          "name": "account",
          "type": "address"
        },
        {
          "internalType": "uint256",
          "name": "tokenId",
          "type": "uint256"
        }
      ],
      "name": "isWarrantee",
      "outputs": [
        {
          "internalType": "bool",
          "name": "matches",
          "type": "bool"
        }
      ],
      "payable": false,
      "stateMutability": "view",
      "type": "function"
    },
    {
      "constant": true,
      "inputs": [
        {
          "internalType": "address",
          "name": "account",
          "type": "address"
        },
        {
          "internalType": "uint256",
          "name": "tokenId",
          "type": "uint256"
        }
      ],
      "name": "isWarrantor",
      "outputs": [
        {
          "internalType": "bool",
          "name": "matches",
          "type": "bool"
        }
      ],
      "payable": false,
      "stateMutability": "view",
      "type": "function"
    },
    {
      "constant": true,
      "inputs": [
        {
          "internalType": "address",
          "name": "account",
          "type": "address"
        }
      ],
      "name": "balance",
      "outputs": [
        {
          "internalType": "uint256",
          "name": "amount",
          "type": "uint256"
        }
      ],
      "payable": false,
      "stateMutability": "view",
      "type": "function"
    },
    {
      "constant": false,
      "inputs": [
        {
          "internalType": "uint256",
          "name": "tokenId",
          "type": "uint256"
        },
        {
          "internalType": "uint256",
          "name": "expiryTime",
          "type": "uint256"
        },
        {
          "internalType": "uint256",
          "name": "delayTime",
          "type": "uint256"
        }
      ],
      "name": "extendClaimExpiration",
      "outputs": [],
      "payable": false,
      "stateMutability": "nonpayable",
      "type": "function"
    },
    {
      "constant": false,
      "inputs": [
        {
          "internalType": "address",
          "name": "account",
          "type": "address"
        }
      ],
      "name": "deposit",
      "outputs": [],
      "payable": true,
      "stateMutability": "payable",
      "type": "function"
    },
    {
      "constant": false,
      "inputs": [
        {
          "internalType": "address",
          "name": "warrantee",
          "type": "address"
        },
        {
          "internalType": "uint256",
          "name": "tokenId",
          "type": "uint256"
        }
      ],
      "name": "fulfillClaim",
      "outputs": [],
      "payable": true,
      "stateMutability": "payable",
      "type": "function"
    },
    {
      "constant": false,
      "inputs": [
        {
          "internalType": "uint256",
          "name": "tokenId",
          "type": "uint256"
        }
      ],
      "name": "terminateClaim",
      "outputs": [],
      "payable": false,
      "stateMutability": "nonpayable",
      "type": "function"
    },
    {
      "constant": false,
      "inputs": [
        {
          "internalType": "address payable",
          "name": "account",
          "type": "address"
        },
        {
          "internalType": "uint256",
          "name": "amount",
          "type": "uint256"
        }
      ],
      "name": "releaseTo",
      "outputs": [],
      "payable": false,
      "stateMutability": "nonpayable",
      "type": "function"
    },
    {
      "constant": false,
      "inputs": [
        {
          "internalType": "address payable",
          "name": "warrantee",
          "type": "address"
        },
        {
          "internalType": "address payable",
          "name": "warrantor",
          "type": "address"
        },
        {
          "internalType": "uint256",
          "name": "valuation",
          "type": "uint256"
        },
        {
          "internalType": "uint256",
          "name": "expiresAfter",
          "type": "uint256"
        },
        {
          "internalType": "string",
          "name": "tokenURI",
          "type": "string"
        },
        {
          "internalType": "string",
          "name": "notes",
          "type": "string"
        }
      ],
      "name": "createAndFundClaim",
      "outputs": [
        {
          "internalType": "uint256",
          "name": "",
          "type": "uint256"
        }
      ],
      "payable": true,
      "stateMutability": "payable",
      "type": "function"
    },
    {
      "constant": false,
      "inputs": [
        {
          "internalType": "uint256",
          "name": "tokenId",
          "type": "uint256"
        },
        {
          "internalType": "address",
          "name": "account",
          "type": "address"
        }
      ],
      "name": "transferWarrantorship",
      "outputs": [],
      "payable": false,
      "stateMutability": "nonpayable",
      "type": "function"
    },
    {
      "constant": true,
      "inputs": [
        {
          "internalType": "uint256",
          "name": "tokenId",
          "type": "uint256"
        }
      ],
      "name": "claimExpireTime",
      "outputs": [
        {
          "internalType": "uint256",
          "name": "expireTime",
          "type": "uint256"
        }
      ],
      "payable": false,
      "stateMutability": "view",
      "type": "function"
    },
    {
      "constant": true,
      "inputs": [
        {
          "internalType": "uint256",
          "name": "tokenId",
          "type": "uint256"
        }
      ],
      "name": "timeToClaimExpire",
      "outputs": [
        {
          "internalType": "uint256",
          "name": "timeUntil",
          "type": "uint256"
        }
      ],
      "payable": false,
      "stateMutability": "view",
      "type": "function"
    },
    {
      "constant": false,
      "inputs": [
        {
          "internalType": "uint256",
          "name": "tokenId",
          "type": "uint256"
        },
        {
          "internalType": "uint256",
          "name": "value",
          "type": "uint256"
        }
      ],
      "name": "guaranteeClaim",
      "outputs": [],
      "payable": true,
      "stateMutability": "payable",
      "type": "function"
    },
    {
      "constant": false,
      "inputs": [
        {
          "internalType": "uint256",
          "name": "tokenId",
          "type": "uint256"
        },
        {
          "internalType": "address",
          "name": "account",
          "type": "address"
        }
      ],
      "name": "postClaim",
      "outputs": [],
      "payable": false,
      "stateMutability": "nonpayable",
      "type": "function"
    },
    {
      "constant": false,
      "inputs": [
        {
          "internalType": "uint256",
          "name": "tokenId",
          "type": "uint256"
        }
      ],
      "name": "depostClaim",
      "outputs": [],
      "payable": false,
      "stateMutability": "nonpayable",
      "type": "function"
    },
    {
      "constant": false,
      "inputs": [
        {
          "internalType": "uint256",
          "name": "tokenId",
          "type": "uint256"
        },
        {
          "internalType": "uint256",
          "name": "amount",
          "type": "uint256"
        }
      ],
      "name": "fundClaim",
      "outputs": [],
      "payable": true,
      "stateMutability": "payable",
      "type": "function"
    },
    {
      "constant": false,
      "inputs": [
        {
          "internalType": "uint256",
          "name": "tokenId",
          "type": "uint256"
        },
        {
          "internalType": "uint256",
          "name": "expiryTime",
          "type": "uint256"
        },
        {
          "internalType": "uint256",
          "name": "delayTime",
          "type": "uint256"
        }
      ],
      "name": "deredeemClaim",
      "outputs": [],
      "payable": false,
      "stateMutability": "nonpayable",
      "type": "function"
    },
    {
      "constant": false,
      "inputs": [
        {
          "internalType": "uint256",
          "name": "tokenId",
          "type": "uint256"
        }
      ],
      "name": "refundClaim",
      "outputs": [],
      "payable": false,
      "stateMutability": "nonpayable",
      "type": "function"
    },
    {
      "constant": false,
      "inputs": [
        {
          "internalType": "uint256",
          "name": "tokenId",
          "type": "uint256"
        }
      ],
      "name": "redeemClaim",
      "outputs": [],
      "payable": false,
      "stateMutability": "nonpayable",
      "type": "function"
    },
    {
      "constant": false,
      "inputs": [
        {
          "internalType": "address",
          "name": "to",
          "type": "address"
        },
        {
          "internalType": "uint256",
          "name": "tokenId",
          "type": "uint256"
        },
        {
          "internalType": "bytes",
          "name": "_data",
          "type": "bytes"
        }
      ],
      "name": "safeMint",
      "outputs": [
        {
          "internalType": "bool",
          "name": "",
          "type": "bool"
        }
      ],
      "payable": false,
      "stateMutability": "nonpayable",
      "type": "function"
    },
    {
      "constant": false,
      "inputs": [
        {
          "internalType": "address",
          "name": "warrantee",
          "type": "address"
        },
        {
          "internalType": "uint256",
          "name": "valuation",
          "type": "uint256"
        },
        {
          "internalType": "uint256",
          "name": "expiresAfter",
          "type": "uint256"
        },
        {
          "internalType": "string",
          "name": "tokenURI",
          "type": "string"
        },
        {
          "internalType": "string",
          "name": "notes",
          "type": "string"
        }
      ],
      "name": "createClaim",
      "outputs": [
        {
          "internalType": "uint256",
          "name": "",
          "type": "uint256"
        }
      ],
      "payable": false,
      "stateMutability": "nonpayable",
      "type": "function"
    }
  ],
  "bytecode": "0x60806040523480156200001157600080fd5b50604080518082018252600981527f57617272616e74656500000000000000000000000000000000000000000000006020808301919091528251808401909352600483527f57524e54000000000000000000000000000000000000000000000000000000009083015290620000af7f01ffc9a7000000000000000000000000000000000000000000000000000000006001600160e01b036200018016565b620000e37f80ac58cd000000000000000000000000000000000000000000000000000000006001600160e01b036200018016565b8151620000f8906005906020850190620003d0565b5080516200010e906006906020840190620003d0565b50620001437f5b5e139f000000000000000000000000000000000000000000000000000000006001600160e01b036200018016565b5050600160085562000170620001616001600160e01b036200024f16565b6001600160e01b036200025416565b600a805460ff1916905562000472565b7fffffffff0000000000000000000000000000000000000000000000000000000080821614156200021257604080517f08c379a000000000000000000000000000000000000000000000000000000000815260206004820152601c60248201527f4552433136353a20696e76616c696420696e7465726661636520696400000000604482015290519081900360640190fd5b7fffffffff00000000000000000000000000000000000000000000000000000000166000908152602081905260409020805460ff19166001179055565b335b90565b6200026f816009620002a660201b62003ebc1790919060201c565b6040516001600160a01b038216907f6719d08c1888103bea251a4ed56406bd0c3e69723c8a1686e017e7bbe159b6f890600090a250565b620002bb82826001600160e01b036200034d16565b156200032857604080517f08c379a000000000000000000000000000000000000000000000000000000000815260206004820152601f60248201527f526f6c65733a206163636f756e7420616c72656164792068617320726f6c6500604482015290519081900360640190fd5b6001600160a01b0316600090815260209190915260409020805460ff19166001179055565b60006001600160a01b038216620003b0576040517f08c379a000000000000000000000000000000000000000000000000000000000815260040180806020018281038252602281526020018062004d9e6022913960400191505060405180910390fd5b506001600160a01b03166000908152602091909152604090205460ff1690565b828054600181600116156101000203166002900490600052602060002090601f016020900481019282601f106200041357805160ff191683800117855562000443565b8280016001018555821562000443579182015b828111156200044357825182559160200191906001019062000426565b506200045192915062000455565b5090565b6200025191905b808211156200045157600081556001016200045c565b61491c80620004826000396000f3fe60806040526004361061025c5760003560e01c80636ef8d66d11610144578063b450f979116100b6578063e8630ae41161007a578063e8630ae414610cb5578063e985e9c514610e03578063f340fa0114610e3e578063f5fcd7b814610e64578063f6a83cf914610e90578063fcf84a2114610ec95761025c565b8063b450f97914610b18578063b88d4fde14610b51578063c87b56dd14610c22578063e3d670d714610c4c578063e51e2c1814610c7f5761025c565b80638456cb59116101085780638456cb591461098a5780638832e6e31461099f57806395d89b4114610a6557806396680cd414610a7a578063a22cb46514610ab3578063ac5dc63714610aee5761025c565b80636ef8d66d146108c257806370a08231146108d75780637af74bb41461090a5780637f7f80de1461092d57806382dc1ec4146109575761025c565b80633902c338116101dd5780634e06bad1116101a15780634e06bad1146105c6578063569a2df5146105ff5780635c975abb146107515780636352211e146107665780636b7881d5146107905780636ebcf6071461088f5761025c565b80633902c338146104e75780633f4ba83a1461051157806342842e0e1461052657806346fbf68e146105695780634c3fb9ec1461059c5761025c565b80631133a823116102245780631133a823146103f15780631bae137b1461041b57806323b872dd146104575780632bd89b561461049a5780633500e4a9146104bd5761025c565b806301ffc9a71461026757806306fdde03146102af578063081812fc1461033957806308aa83591461037f578063095ea7b3146103b8575b61026533610eff565b005b34801561027357600080fd5b5061029b6004803603602081101561028a57600080fd5b50356001600160e01b031916610f52565b604080519115158252519081900360200190f35b3480156102bb57600080fd5b506102c4610f75565b6040805160208082528351818301528351919283929083019185019080838360005b838110156102fe5781810151838201526020016102e6565b50505050905090810190601f16801561032b5780820380516001836020036101000a031916815260200191505b509250505060405180910390f35b34801561034557600080fd5b506103636004803603602081101561035c57600080fd5b503561100c565b604080516001600160a01b039092168252519081900360200190f35b34801561038b57600080fd5b50610265600480360360408110156103a257600080fd5b50803590602001356001600160a01b031661106e565b3480156103c457600080fd5b50610265600480360360408110156103db57600080fd5b506001600160a01b038135169060200135611211565b3480156103fd57600080fd5b506102656004803603602081101561041457600080fd5b5035611339565b34801561042757600080fd5b506104456004803603602081101561043e57600080fd5b5035611427565b60408051918252519081900360200190f35b34801561046357600080fd5b506102656004803603606081101561047a57600080fd5b506001600160a01b03813581169160208101359091169060400135611486565b610265600480360360408110156104b057600080fd5b50803590602001356114e2565b3480156104c957600080fd5b50610265600480360360208110156104e057600080fd5b5035611568565b3480156104f357600080fd5b506102656004803603602081101561050a57600080fd5b503561186a565b34801561051d57600080fd5b50610265611960565b34801561053257600080fd5b506102656004803603606081101561054957600080fd5b506001600160a01b03813581169160208101359091169060400135611a49565b34801561057557600080fd5b5061029b6004803603602081101561058c57600080fd5b50356001600160a01b0316611a64565b3480156105a857600080fd5b50610363600480360360208110156105bf57600080fd5b5035611a77565b3480156105d257600080fd5b50610265600480360360408110156105e957600080fd5b506001600160a01b038135169060200135611a92565b34801561060b57600080fd5b50610445600480360360a081101561062257600080fd5b6001600160a01b038235169160208101359160408201359190810190608081016060820135600160201b81111561065857600080fd5b82018360208201111561066a57600080fd5b803590602001918460018302840111600160201b8311171561068b57600080fd5b91908080601f0160208091040260200160405190810160405280939291908181526020018383808284376000920191909152509295949360208101935035915050600160201b8111156106dd57600080fd5b8201836020820111156106ef57600080fd5b803590602001918460018302840111600160201b8311171561071057600080fd5b91908080601f016020809104026020016040519081016040528093929190818152602001838380828437600092019190915250929550611c1b945050505050565b34801561075d57600080fd5b5061029b611e39565b34801561077257600080fd5b506103636004803603602081101561078957600080fd5b5035611e42565b34801561079c57600080fd5b506107ba600480360360208110156107b357600080fd5b5035611e96565b604051808b6001600160a01b03166001600160a01b031681526020018a815260200189815260200188815260200187815260200186815260200185151515158152602001841515151581526020018315151515815260200180602001828103825283818151815260200191508051906020019080838360005b8381101561084b578181015183820152602001610833565b50505050905090810190601f1680156108785780820380516001836020036101000a031916815260200191505b509b50505050505050505050505060405180910390f35b34801561089b57600080fd5b50610445600480360360208110156108b257600080fd5b50356001600160a01b0316611f93565b3480156108ce57600080fd5b50610265611fa5565b3480156108e357600080fd5b50610445600480360360208110156108fa57600080fd5b50356001600160a01b0316611fb7565b6102656004803603604081101561092057600080fd5b508035906020013561201f565b34801561093957600080fd5b506104456004803603602081101561095057600080fd5b50356122fd565b34801561096357600080fd5b506102656004803603602081101561097a57600080fd5b50356001600160a01b0316612389565b34801561099657600080fd5b506102656123d8565b3480156109ab57600080fd5b5061029b600480360360608110156109c257600080fd5b6001600160a01b0382351691602081013591810190606081016040820135600160201b8111156109f157600080fd5b820183602082011115610a0357600080fd5b803590602001918460018302840111600160201b83111715610a2457600080fd5b91908080601f01602080910402602001604051908101604052809392919081815260200183838082843760009201919091525092955061249a945050505050565b348015610a7157600080fd5b506102c46124b1565b348015610a8657600080fd5b5061026560048036036040811015610a9d57600080fd5b50803590602001356001600160a01b0316612512565b348015610abf57600080fd5b5061026560048036036040811015610ad657600080fd5b506001600160a01b0381351690602001351515612623565b348015610afa57600080fd5b5061026560048036036020811015610b1157600080fd5b5035612728565b348015610b2457600080fd5b5061029b60048036036040811015610b3b57600080fd5b506001600160a01b0381351690602001356128cf565b348015610b5d57600080fd5b5061026560048036036080811015610b7457600080fd5b6001600160a01b03823581169260208101359091169160408201359190810190608081016060820135600160201b811115610bae57600080fd5b820183602082011115610bc057600080fd5b803590602001918460018302840111600160201b83111715610be157600080fd5b91908080601f016020809104026020016040519081016040528093929190818152602001838380828437600092019190915250929550612905945050505050565b348015610c2e57600080fd5b506102c460048036036020811015610c4557600080fd5b503561295d565b348015610c5857600080fd5b5061044560048036036020811015610c6f57600080fd5b50356001600160a01b0316612a42565b348015610c8b57600080fd5b5061026560048036036060811015610ca257600080fd5b5080359060208101359060400135612a5d565b610445600480360360c0811015610ccb57600080fd5b6001600160a01b03823581169260208101359091169160408201359160608101359181019060a081016080820135600160201b811115610d0a57600080fd5b820183602082011115610d1c57600080fd5b803590602001918460018302840111600160201b83111715610d3d57600080fd5b91908080601f0160208091040260200160405190810160405280939291908181526020018383808284376000920191909152509295949360208101935035915050600160201b811115610d8f57600080fd5b820183602082011115610da157600080fd5b803590602001918460018302840111600160201b83111715610dc257600080fd5b91908080601f016020809104026020016040519081016040528093929190818152602001838380828437600092019190915250929550612cd6945050505050565b348015610e0f57600080fd5b5061029b60048036036040811015610e2657600080fd5b506001600160a01b0381358116916020013516612d07565b61026560048036036020811015610e5457600080fd5b50356001600160a01b0316610eff565b61026560048036036040811015610e7a57600080fd5b506001600160a01b038135169060200135612d35565b348015610e9c57600080fd5b5061029b60048036036040811015610eb357600080fd5b506001600160a01b038135169060200135612fc6565b348015610ed557600080fd5b5061026560048036036060811015610eec57600080fd5b508035906020810135906040013561304e565b600a5460ff1615610f45576040805162461bcd60e51b81526020600482015260106024820152600080516020614802833981519152604482015290519081900360640190fd5b610f4f81346132b2565b50565b6001600160e01b0319811660009081526020819052604090205460ff165b919050565b60058054604080516020601f60026000196101006001881615020190951694909404938401819004810282018101909252828152606093909290918301828280156110015780601f10610fd657610100808354040283529160200191611001565b820191906000526020600020905b815481529060010190602001808311610fe457829003601f168201915b505050505090505b90565b6000611017826132be565b6110525760405162461bcd60e51b815260040180806020018281038252602c8152602001806146c9602c913960400191505060405180910390fd5b506000908152600260205260409020546001600160a01b031690565b81600d818154811061107c57fe5b9060005260206000209060080201600401546000148061111e575061109f6132db565b61111c600d83815481106110af57fe5b906000526020600020906008020160030154611110600d85815481106110d157fe5b906000526020600020906008020160050154600d86815481106110f057fe5b9060005260206000209060080201600401546132df90919063ffffffff16565b9063ffffffff6132df16565b115b6111595760405162461bcd60e51b815260040180806020018281038252602b815260200180614522602b913960400191505060405180910390fd5b826111643382612fc6565b61119f5760405162461bcd60e51b81526004018080602001828103825260258152602001806148c36025913960400191505060405180910390fd5b6111a884613340565b82600d85815481106111b657fe5b6000918252602082206008919091020180546001600160a01b0319166001600160a01b0393841617905560405186928616917f7ed4ce39701467090fd4d49c922f99fa254785b631d2cea6fbcac060c391476f91a350505050565b600061121c82611e42565b9050806001600160a01b0316836001600160a01b0316141561126f5760405162461bcd60e51b81526004018080602001828103825260218152602001806147bd6021913960400191505060405180910390fd5b806001600160a01b0316611281613394565b6001600160a01b031614806112a257506112a28161129d613394565b612d07565b6112dd5760405162461bcd60e51b81526004018080602001828103825260388152602001806145a36038913960400191505060405180910390fd5b60008281526002602052604080822080546001600160a01b0319166001600160a01b0387811691821790925591518593918516917f8c5be1e5ebec7d5bd14f71427d1e84f3dd0314c0f7b2291e5b200ac8c7c3b92591a4505050565b600a5460ff161561137f576040805162461bcd60e51b81526020600482015260106024820152600080516020614802833981519152604482015290519081900360640190fd5b8061138a3382612fc6565b6113c55760405162461bcd60e51b81526004018080602001828103825260258152602001806148c36025913960400191505060405180910390fd5b6000828152600b60205260409020546001600160a01b03166114185760405162461bcd60e51b815260040180806020018281038252602f815260200180614339602f913960400191505060405180910390fd5b611423826000613398565b5050565b600a5460009060ff1615611470576040805162461bcd60e51b81526020600482015260106024820152600080516020614802833981519152604482015290519081900360640190fd5b611480600d83815481106110af57fe5b92915050565b611497611491613394565b826133c6565b6114d25760405162461bcd60e51b81526004018080602001828103825260318152602001806148506031913960400191505060405180910390fd5b6114dd838383613462565b505050565b81600d81815481106114f057fe5b906000526020600020906008020160060160029054906101000a900460ff161561154b5760405162461bcd60e51b815260040180806020018281038252602e815260200180614822602e913960400191505060405180910390fd5b61155433610eff565b61155e83836135a6565b6114dd33836135e6565b600a5460ff16156115ae576040805162461bcd60e51b81526020600482015260106024820152600080516020614802833981519152604482015290519081900360640190fd5b806115b93382612fc6565b6115f45760405162461bcd60e51b81526004018080602001828103825260258152602001806148c36025913960400191505060405180910390fd5b81600d818154811061160257fe5b600091825260209091206006600890920201015460ff16156116555760405162461bcd60e51b815260040180806020018281038252602c815260200180614577602c913960400191505060405180910390fd5b82600d818154811061166357fe5b906000526020600020906008020160060160029054906101000a900460ff16156116be5760405162461bcd60e51b815260040180806020018281038252602e815260200180614822602e913960400191505060405180910390fd5b600d84815481106116cb57fe5b600091825260209091206006600890920201015460ff1615611734576040805162461bcd60e51b815260206004820152601860248201527f636c61696d2063616e6e6f742062652072656465656d65640000000000000000604482015290519081900360640190fd5b6001600d858154811061174357fe5b600091825260209182902060089190910201600601805460ff191692151592909217909155604080516331a9108f60e11b815260048101879052905186923092636352211e9260248083019392829003018186803b1580156117a457600080fd5b505afa1580156117b8573d6000803e3d6000fd5b505050506040513d60208110156117ce57600080fd5b5051600d80546001600160a01b0390921691879081106117ea57fe5b6000918252602090912060089091020154600d80546001600160a01b03909216917f086c06b0f41de14dcd2062b4043c61c41fabf8b24e9ea76e5d08c56f7e8ecbce91908990811061183857fe5b6000918252602091829020600660089092020101546040805160ff90921615158252519081900390910190a450505050565b600a5460ff16156118b0576040805162461bcd60e51b81526020600482015260106024820152600080516020614802833981519152604482015290519081900360640190fd5b806118bb3382612fc6565b6118f65760405162461bcd60e51b81526004018080602001828103825260258152602001806148c36025913960400191505060405180910390fd5b81600d818154811061190457fe5b600091825260209091206006600890920201015460ff16156119575760405162461bcd60e51b815260040180806020018281038252602c815260200180614577602c913960400191505060405180910390fd5b6114dd836135f2565b61197061196b613394565b611a64565b6119ab5760405162461bcd60e51b81526004018080602001828103825260308152602001806143c16030913960400191505060405180910390fd5b600a5460ff166119f9576040805162461bcd60e51b815260206004820152601460248201527314185d5cd8589b194e881b9bdd081c185d5cd95960621b604482015290519081900360640190fd5b600a805460ff191690557f5db9ee0a495bf2e6ff9c91a7834c1ba4fdd244a5e8aa4e537bd38aeae4b073aa611a2c613394565b604080516001600160a01b039092168252519081900360200190a1565b6114dd83838360405180602001604052806000815250612905565b600061148060098363ffffffff61380816565b600b602052600090815260409020546001600160a01b031681565b6008805460010190819055600a5460ff1615611ae3576040805162461bcd60e51b81526020600482015260106024820152600080516020614802833981519152604482015290519081900360640190fd5b336000908152600c60205260409020548280821015611b335760405162461bcd60e51b81526004018080602001828103825260248152602001806147de6024913960400191505060405180910390fd5b33856001600160a01b038116611b465750805b611b5082876135e6565b611b696001600160a01b0382168763ffffffff61386f16565b6001600160a01b038281166000818152600c60209081526040918290205482518b8152918201528151938516937f91fb9d98b786c57d74c099ccd2beca1739e9f6a81fb49001ca465c4b7591bbe2929181900390910190a35050505060085481146114dd576040805162461bcd60e51b815260206004820152601f60248201527f5265656e7472616e637947756172643a207265656e7472616e742063616c6c00604482015290519081900360640190fd5b600a5460009060ff1615611c64576040805162461bcd60e51b81526020600482015260106024820152600080516020614802833981519152604482015290519081900360640190fd5b600d5464174876e8008510611caa5760405162461bcd60e51b81526004018080602001828103825260278152602001806143686027913960400191505060405180910390fd5b611cb48782613955565b835115611cc557611cc5818561396f565b600d604051806101400160405280896001600160a01b03168152602001600081526020018881526020018781526020016000815260200160008152602001600015158152602001600015158152602001600015158152602001858152509080600181540180825580915050906001820390600052602060002090600802016000909192909190915060008201518160000160006101000a8154816001600160a01b0302191690836001600160a01b031602179055506020820151816001015560408201518160020155606082015181600301556080820151816004015560a0820151816005015560c08201518160060160006101000a81548160ff02191690831515021790555060e08201518160060160016101000a81548160ff0219169083151502179055506101008201518160060160026101000a81548160ff021916908315150217905550610120820151816007019080519060200190611e2a929190614261565b50929998505050505050505050565b600a5460ff1690565b6000818152600160205260408120546001600160a01b0316806114805760405162461bcd60e51b81526004018080602001828103825260298152602001806146356029913960400191505060405180910390fd5b600d8181548110611ea357fe5b6000918252602091829020600891909102018054600180830154600280850154600386015460048701546005880154600689015460078a018054604080516101009b8316158c026000190190921698909804601f81018e90048e0282018e019098528781526001600160a01b03909a169c50969a949993989297919660ff8083169793830481169662010000909304169493929091830182828015611f895780601f10611f5e57610100808354040283529160200191611f89565b820191906000526020600020905b815481529060010190602001808311611f6c57829003601f168201915b505050505090508a565b600c6020526000908152604090205481565b611fb5611fb0613394565b6139d2565b565b60006001600160a01b038216611ffe5760405162461bcd60e51b815260040180806020018281038252602a81526020018061460b602a913960400191505060405180910390fd5b6001600160a01b038216600090815260036020526040902061148090613a1a565b600a5460ff1615612065576040805162461bcd60e51b81526020600482015260106024820152600080516020614802833981519152604482015290519081900360640190fd5b81600d818154811061207357fe5b600091825260209091206006600890920201015460ff16156120c65760405162461bcd60e51b815260040180806020018281038252602c815260200180614577602c913960400191505060405180910390fd5b82600d81815481106120d457fe5b906000526020600020906008020160060160029054906101000a900460ff161561212f5760405162461bcd60e51b815260040180806020018281038252602e815260200180614822602e913960400191505060405180910390fd5b6000600d858154811061213e57fe5b60009182526020808320888452600b909152604090922054600890910290910191506001600160a01b031633146121a65760405162461bcd60e51b815260040180806020018281038252603f8152602001806142fa603f913960400191505060405180910390fd5b60006121b53461111033612a42565b905081600101548110156121fa5760405162461bcd60e51b81526004018080602001828103825260308152602001806145db6030913960400191505060405180910390fd5b816001015485101561223d5760405162461bcd60e51b815260040180806020018281038252602a81526020018061454d602a913960400191505060405180910390fd5b6000306001600160a01b0316636352211e886040518263ffffffff1660e01b81526004018082815260200191505060206040518083038186803b15801561228357600080fd5b505afa158015612297573d6000803e3d6000fd5b505050506040513d60208110156122ad57600080fd5b505160018401549091506122c29082906132b2565b600060018401556122d387876114e2565b6122de813389611486565b6122e9816000612623565b6122f4876000613398565b50505050505050565b600a5460009060ff1615612346576040805162461bcd60e51b81526020600482015260106024820152600080516020614802833981519152604482015290519081900360640190fd5b600061235183611427565b9050600061235d6132db565b905080821161237157600092505050610f70565b612381828263ffffffff613a1e16565b949350505050565b61239461196b613394565b6123cf5760405162461bcd60e51b81526004018080602001828103825260308152602001806143c16030913960400191505060405180910390fd5b610f4f81613a60565b6123e361196b613394565b61241e5760405162461bcd60e51b81526004018080602001828103825260308152602001806143c16030913960400191505060405180910390fd5b600a5460ff1615612464576040805162461bcd60e51b81526020600482015260106024820152600080516020614802833981519152604482015290519081900360640190fd5b600a805460ff191660011790557f62e78cea01bee320cd4e420270b5ea74000d11b0c9f74754ebdbfc544b05a258611a2c613394565b60006124a7848484613aa8565b5060019392505050565b60068054604080516020601f60026000196101006001881615020190951694909404938401819004810282018101909252828152606093909290918301828280156110015780601f10610fd657610100808354040283529160200191611001565b600a5460ff1615612558576040805162461bcd60e51b81526020600482015260106024820152600080516020614802833981519152604482015290519081900360640190fd5b816125633382612fc6565b61259e5760405162461bcd60e51b81526004018080602001828103825260258152602001806148c36025913960400191505060405180910390fd5b6000838152600b60205260409020546001600160a01b0316156125f25760405162461bcd60e51b815260040180806020018281038252603a81526020018061441b603a913960400191505060405180910390fd5b6000838152600b6020526040902080546001600160a01b0319166001600160a01b0384161790556114dd8284611211565b61262b613394565b6001600160a01b0316826001600160a01b03161415612691576040805162461bcd60e51b815260206004820152601960248201527f4552433732313a20617070726f766520746f2063616c6c657200000000000000604482015290519081900360640190fd5b806004600061269e613394565b6001600160a01b03908116825260208083019390935260409182016000908120918716808252919093529120805460ff1916921515929092179091556126e2613394565b60408051841515815290516001600160a01b0392909216917f17307eab39ab6107e8899845ad3d59bd9653f200f220920489ca2b5937696c319181900360200190a35050565b600a5460ff161561276e576040805162461bcd60e51b81526020600482015260106024820152600080516020614802833981519152604482015290519081900360640190fd5b8061277933826128cf565b6127b45760405162461bcd60e51b815260040180806020018281038252602981526020018061467f6029913960400191505060405180910390fd5b81600d81815481106127c257fe5b906000526020600020906008020160060160029054906101000a900460ff161561281d5760405162461bcd60e51b815260040180806020018281038252602e815260200180614822602e913960400191505060405180910390fd5b6000600d848154811061282c57fe5b906000526020600020906008020190506128b9306001600160a01b0316636352211e866040518263ffffffff1660e01b81526004018082815260200191505060206040518083038186803b15801561288357600080fd5b505afa158015612897573d6000803e3d6000fd5b505050506040513d60208110156128ad57600080fd5b505160018301546132b2565b600060018201556128c9846135f2565b50505050565b6000600d82815481106128de57fe5b60009182526020909120600890910201546001600160a01b03848116911614905092915050565b612916612910613394565b836133c6565b6129515760405162461bcd60e51b81526004018080602001828103825260318152602001806148506031913960400191505060405180910390fd5b6128c984848484613afa565b6060612968826132be565b6129a35760405162461bcd60e51b815260040180806020018281038252602f81526020018061476c602f913960400191505060405180910390fd5b60008281526007602090815260409182902080548351601f600260001961010060018616150201909316929092049182018490048402810184019094528084529091830182828015612a365780601f10612a0b57610100808354040283529160200191612a36565b820191906000526020600020905b815481529060010190602001808311612a1957829003601f168201915b50505050509050919050565b6001600160a01b03166000908152600c602052604090205490565b600a5460ff1615612aa3576040805162461bcd60e51b81526020600482015260106024820152600080516020614802833981519152604482015290519081900360640190fd5b82612aae33826128cf565b612ae95760405162461bcd60e51b815260040180806020018281038252602981526020018061467f6029913960400191505060405180910390fd5b83600d8181548110612af757fe5b906000526020600020906008020160060160029054906101000a900460ff1615612b525760405162461bcd60e51b815260040180806020018281038252602e815260200180614822602e913960400191505060405180910390fd5b84600d8181548110612b6057fe5b600091825260209091206006600890920201015460ff1615612bb35760405162461bcd60e51b815260040180806020018281038252602c815260200180614577602c913960400191505060405180910390fd5b612bc88561111086600d8a815481106110f057fe5b600d8781548110612bd557fe5b90600052602060002090600802016004015480821015612c265760405162461bcd60e51b81526004018080602001828103825260248152602001806147de6024913960400191505060405180910390fd5b612c5786600d8a81548110612c3757fe5b9060005260206000209060080201600501546132df90919063ffffffff16565b600d8981548110612c6457fe5b906000526020600020906008020160050181905550612caa87600d8a81548110612c8a57fe5b9060005260206000209060080201600301546132df90919063ffffffff16565b600d8981548110612cb757fe5b9060005260206000209060080201600301819055505050505050505050565b600080612ce68887878787611c1b565b9050612cf2818861106e565b612cfc81346114e2565b979650505050505050565b6001600160a01b03918216600090815260046020908152604080832093909416825291909152205460ff1690565b600a5460ff1615612d7b576040805162461bcd60e51b81526020600482015260106024820152600080516020614802833981519152604482015290519081900360640190fd5b80612d8633826128cf565b612dc15760405162461bcd60e51b815260040180806020018281038252602981526020018061467f6029913960400191505060405180910390fd5b82826001600160a01b03821615612e1757612ddc8282612fc6565b612e175760405162461bcd60e51b815260040180806020018281038252602a8152602001806143f1602a913960400191505060405180910390fd5b6000600d8581548110612e2657fe5b906000526020600020906008020190506000612e4133612a42565b9050612e4d33826135e6565b6000612e6a826111103486600101546132df90919063ffffffff16565b90508260020154811015612eaf5760405162461bcd60e51b81526004018080602001828103825260438152602001806144556043913960600191505060405180910390fd5b612ecf33612eca856002015484613a1e90919063ffffffff16565b6132b2565b612f4c306001600160a01b0316636352211e896040518263ffffffff1660e01b81526004018082815260200191505060206040518083038186803b158015612f1657600080fd5b505afa158015612f2a573d6000803e3d6000fd5b505050506040513d6020811015612f4057600080fd5b505160028501546132b2565b612f57876000613b4c565b60068301805461ff00191661010017908190556040805160ff92909216151582525188916001600160a01b038b169133917fc708b61d056f0c33ad63ad27614b9476c96fd7c8553410c3c85be27cc5ae4b71919081900360200190a4612fbc876135f2565b5050505050505050565b6000306001600160a01b0316636352211e836040518263ffffffff1660e01b81526004018082815260200191505060206040518083038186803b15801561300c57600080fd5b505afa158015613020573d6000803e3d6000fd5b505050506040513d602081101561303657600080fd5b50516001600160a01b03848116911614905092915050565b600a5460ff1615613094576040805162461bcd60e51b81526020600482015260106024820152600080516020614802833981519152604482015290519081900360640190fd5b8261309f3382612fc6565b806130af57506130af33826128cf565b6130ea5760405162461bcd60e51b81526004018080602001828103825260428152602001806148816042913960600191505060405180910390fd5b600d84815481106130f757fe5b600091825260209091206006600890920201015460ff166131495760405162461bcd60e51b815260040180806020018281038252602281526020018061479b6022913960400191505060405180910390fd5b6000600d858154811061315857fe5b600091825260209182902060089190910201600601805460ff191692151592909217909155604080516331a9108f60e11b815260048101879052905186923092636352211e9260248083019392829003018186803b1580156131b957600080fd5b505afa1580156131cd573d6000803e3d6000fd5b505050506040513d60208110156131e357600080fd5b5051600d80546001600160a01b0390921691879081106131ff57fe5b6000918252602090912060089091020154600d80546001600160a01b03909216917f086c06b0f41de14dcd2062b4043c61c41fabf8b24e9ea76e5d08c56f7e8ecbce91908990811061324d57fe5b6000918252602091829020600660089092020101546040805160ff90921615158252519081900390910190a4600d848154811061328657fe5b60009182526020909120600890910201546001600160a01b03163314156128c9576128c9848484612a5d565b61142382826000613bd0565b6000908152600160205260409020546001600160a01b0316151590565b4290565b600082820183811015613339576040805162461bcd60e51b815260206004820152601b60248201527f536166654d6174683a206164646974696f6e206f766572666c6f770000000000604482015290519081900360640190fd5b9392505050565b600d818154811061334d57fe5b90600052602060002090600802016004015460001415610f4f5761336f6132db565b600d828154811061337c57fe5b90600052602060002090600802016004018190555050565b3390565b6000918252600b602052604090912080546001600160a01b0319166001600160a01b03909216919091179055565b60006133d1826132be565b61340c5760405162461bcd60e51b815260040180806020018281038252602c8152602001806144f6602c913960400191505060405180910390fd5b600061341783611e42565b9050806001600160a01b0316846001600160a01b031614806134525750836001600160a01b03166134478461100c565b6001600160a01b0316145b8061238157506123818185612d07565b826001600160a01b031661347582611e42565b6001600160a01b0316146134ba5760405162461bcd60e51b81526004018080602001828103825260298152602001806147436029913960400191505060405180910390fd5b6001600160a01b0382166134ff5760405162461bcd60e51b81526004018080602001828103825260248152602001806144986024913960400191505060405180910390fd5b61350881613cc8565b6001600160a01b038316600090815260036020526040902061352990613d03565b6001600160a01b038216600090815260036020526040902061354a90613d1a565b60008181526001602052604080822080546001600160a01b0319166001600160a01b0386811691821790925591518493918716917fddf252ad1be2c89b69c2b068fc378daa952ba7f163c4a11628f55a4df523b3ef91a4505050565b801561142357611423826135e183600d86815481106135c157fe5b9060005260206000209060080201600101546132df90919063ffffffff16565b613b4c565b61142382826001613bd0565b80600d818154811061360057fe5b906000526020600020906008020160060160029054906101000a900460ff161561365b5760405162461bcd60e51b815260040180806020018281038252602e815260200180614822602e913960400191505060405180910390fd5b6000600d838154811061366a57fe5b906000526020600020906008020190508060060160019054906101000a900460ff1615801561369c5750600181015415155b156137ba5760006136c06136af856122fd565b60038401549063ffffffff613a1e16565b90506000613717836003015461370b6136e6858760010154613d2390919063ffffffff16565b600387015460018801546136ff9163ffffffff613d2316565b9063ffffffff613a1e16565b9063ffffffff613d7c16565b9050613792306001600160a01b0316636352211e876040518263ffffffff1660e01b81526004018082815260200191505060206040518083038186803b15801561376057600080fd5b505afa158015613774573d6000803e3d6000fd5b505050506040513d602081101561378a57600080fd5b5051826132b2565b825460018401546137b7916001600160a01b031690612eca908463ffffffff613a1e16565b50505b60068101805462ff00001916620100001790556137d8836000613b4c565b60405183907f9a9cad27a1bdce3d7cb0602aaf727dfaad03ba6524d9bca7b9615867fa6802b490600090a2505050565b60006001600160a01b03821661384f5760405162461bcd60e51b81526004018080602001828103825260228152602001806147216022913960400191505060405180910390fd5b506001600160a01b03166000908152602091909152604090205460ff1690565b30318111156138c5576040805162461bcd60e51b815260206004820152601d60248201527f416464726573733a20696e73756666696369656e742062616c616e6365000000604482015290519081900360640190fd5b6040516000906001600160a01b0384169083908381818185875af1925050503d8060008114613910576040519150601f19603f3d011682016040523d82523d6000602084013e613915565b606091505b50509050806114dd5760405162461bcd60e51b815260040180806020018281038252603a8152602001806144bc603a913960400191505060405180910390fd5b611423828260405180602001604052806000815250613aa8565b613978826132be565b6139b35760405162461bcd60e51b815260040180806020018281038252602c8152602001806146f5602c913960400191505060405180910390fd5b600082815260076020908152604090912082516114dd92840190614261565b6139e360098263ffffffff613dbe16565b6040516001600160a01b038216907fcd265ebaf09df2871cc7bd4133404a235ba12eff2041bb89d9c714a2621c7c7e90600090a250565b5490565b600061333983836040518060400160405280601e81526020017f536166654d6174683a207375627472616374696f6e206f766572666c6f770000815250613e25565b613a7160098263ffffffff613ebc16565b6040516001600160a01b038216907f6719d08c1888103bea251a4ed56406bd0c3e69723c8a1686e017e7bbe159b6f890600090a250565b613ab28383613f3d565b613abf600084848461406e565b6114dd5760405162461bcd60e51b815260040180806020018281038252603281526020018061438f6032913960400191505060405180910390fd5b613b05848484613462565b613b118484848461406e565b6128c95760405162461bcd60e51b815260040180806020018281038252603281526020018061438f6032913960400191505060405180910390fd5b80600d8381548110613b5a57fe5b906000526020600020906008020160010154146114235780600d8381548110613b7f57fe5b906000526020600020906008020160010181905550817f9cb6070e4e6933d173cce37f39b46799295f49a5148d3713bbd9caab39b696b4826040518082815260200191505060405180910390a25050565b81613bda576114dd565b8015613c27576001600160a01b0383166000908152600c6020526040902054613c09908363ffffffff613a1e16565b6001600160a01b0384166000908152600c6020526040902055613c6a565b6001600160a01b0383166000908152600c6020526040902054613c50908363ffffffff6132df16565b6001600160a01b0384166000908152600c60205260409020555b6001600160a01b0383166000818152600c6020908152604091829020548251868152918201528315158183015290517f7d016f8eb7665cdc83ca6289966f4c4c45a0b3e2add7bd7952ebb8aca1831d019181900360600190a2505050565b6000818152600260205260409020546001600160a01b031615610f4f57600090815260026020526040902080546001600160a01b0319169055565b8054613d1690600163ffffffff613a1e16565b9055565b80546001019055565b600082613d3257506000611480565b82820282848281613d3f57fe5b04146133395760405162461bcd60e51b81526004018080602001828103825260218152602001806146a86021913960400191505060405180910390fd5b600061333983836040518060400160405280601a81526020017f536166654d6174683a206469766973696f6e206279207a65726f0000000000008152506141c5565b613dc88282613808565b613e035760405162461bcd60e51b815260040180806020018281038252602181526020018061465e6021913960400191505060405180910390fd5b6001600160a01b0316600090815260209190915260409020805460ff19169055565b60008184841115613eb45760405162461bcd60e51b81526004018080602001828103825283818151815260200191508051906020019080838360005b83811015613e79578181015183820152602001613e61565b50505050905090810190601f168015613ea65780820380516001836020036101000a031916815260200191505b509250505060405180910390fd5b505050900390565b613ec68282613808565b15613f18576040805162461bcd60e51b815260206004820152601f60248201527f526f6c65733a206163636f756e7420616c72656164792068617320726f6c6500604482015290519081900360640190fd5b6001600160a01b0316600090815260209190915260409020805460ff19166001179055565b6001600160a01b038216613f98576040805162461bcd60e51b815260206004820181905260248201527f4552433732313a206d696e7420746f20746865207a65726f2061646472657373604482015290519081900360640190fd5b613fa1816132be565b15613ff3576040805162461bcd60e51b815260206004820152601c60248201527f4552433732313a20746f6b656e20616c7265616479206d696e74656400000000604482015290519081900360640190fd5b600081815260016020908152604080832080546001600160a01b0319166001600160a01b03871690811790915583526003909152902061403290613d1a565b60405181906001600160a01b038416906000907fddf252ad1be2c89b69c2b068fc378daa952ba7f163c4a11628f55a4df523b3ef908290a45050565b6000614082846001600160a01b031661422a565b61408e57506001612381565b6000846001600160a01b031663150b7a026140a7613394565b8887876040518563ffffffff1660e01b815260040180856001600160a01b03166001600160a01b03168152602001846001600160a01b03166001600160a01b0316815260200183815260200180602001828103825283818151815260200191508051906020019080838360005b8381101561412c578181015183820152602001614114565b50505050905090810190601f1680156141595780820380516001836020036101000a031916815260200191505b5095505050505050602060405180830381600087803b15801561417b57600080fd5b505af115801561418f573d6000803e3d6000fd5b505050506040513d60208110156141a557600080fd5b50516001600160e01b031916630a85bd0160e11b14915050949350505050565b600081836142145760405162461bcd60e51b8152602060048201818152835160248401528351909283926044909101919085019080838360008315613e79578181015183820152602001613e61565b50600083858161422057fe5b0495945050505050565b6000813f7fc5d2460186f7233c927e7db2dcc703c0e500b653ca82273b7bfad8045d85a47081158015906123815750141592915050565b828054600181600116156101000203166002900490600052602060002090601f016020900481019282601f106142a257805160ff19168380011785556142cf565b828001600101855582156142cf579182015b828111156142cf5782518255916020019190600101906142b4565b506142db9291506142df565b5090565b61100991905b808211156142db57600081556001016142e556fe756e61626c6520746f2068616e64206f666620636c61696d20756e6c65737320697420697320666972737420706f7374656420666f72207472616e736665726f6e6c7920636c61696d73207468617420617265206265696e6720736f6c642063616e206265206465706f73746564657870697265732061667465722076616c75652063616e6e6f7420626520746f6f206c617267654552433732313a207472616e7366657220746f206e6f6e20455243373231526563656976657220696d706c656d656e746572506175736572526f6c653a2063616c6c657220646f6573206e6f742068617665207468652050617573657220726f6c656d75737420626520776f726b696e6720776974682074686520636f72726563742077617272616e7465656f6e6c7920636c61696d73207468617420617265206e6f74206265696e6720736f6c642063616e2062652070757420757020666f722073616c65636c61696d2063616e206f6e6c792062652066756c6c66696c6c656420666f7220746865206f726967696e616c206167726565642075706f6e2076616c756174696f6e4552433732313a207472616e7366657220746f20746865207a65726f2061646472657373416464726573733a20756e61626c6520746f2073656e642076616c75652c20726563697069656e74206d617920686176652072657665727465644552433732313a206f70657261746f7220717565727920666f72206e6f6e6578697374656e7420746f6b656e6f6e6c79206e6f6e206578706972656420636c61696d732063616e207573652074686973206d6574686f64636c61696d206d7573742070726573657276652063757272656e746c79206261636b65642076616c75656f6e6c79206e6f6e2072656465656d656420636c61696d732063616e207573652074686973206d6574686f644552433732313a20617070726f76652063616c6c6572206973206e6f74206f776e6572206e6f7220617070726f76656420666f7220616c6c617661696c61626c6520637265646974206d757374206d656574206f722065786365656420636c61696d2076616c75654552433732313a2062616c616e636520717565727920666f7220746865207a65726f20616464726573734552433732313a206f776e657220717565727920666f72206e6f6e6578697374656e7420746f6b656e526f6c65733a206163636f756e7420646f6573206e6f74206861766520726f6c6573656e646572206d757374206265207468652077617272616e746f72206f662074686520746f6b656e536166654d6174683a206d756c7469706c69636174696f6e206f766572666c6f774552433732313a20617070726f76656420717565727920666f72206e6f6e6578697374656e7420746f6b656e4552433732314d657461646174613a2055524920736574206f66206e6f6e6578697374656e7420746f6b656e526f6c65733a206163636f756e7420697320746865207a65726f20616464726573734552433732313a207472616e73666572206f6620746f6b656e2074686174206973206e6f74206f776e4552433732314d657461646174613a2055524920717565727920666f72206e6f6e6578697374656e7420746f6b656e6f6e6c7920612072656465656d656420636c61696d2063616e2062652072657365744552433732313a20617070726f76616c20746f2063757272656e74206f776e657261206d7573742062652067726561746572207468616e206f7220657175616c20746f20625061757361626c653a20706175736564000000000000000000000000000000006f6e6c79206e6f6e207465726d696e6174656420636c61696d732063616e207573652074686973206d6574686f644552433732313a207472616e736665722063616c6c6572206973206e6f74206f776e6572206e6f7220617070726f76656473656e646572206d757374206569746865722062652074686520746f6b656e206f776e6572202877617272616e74656529206f72207468652077617272616e746f7273656e646572206d75737420626520746865206f776e6572206f662074686520746f6b656ea265627a7a72315820c8119f80e82f9572cb2f43f803ae7830120c3f521da2b8597ec8eeed9dac34c964736f6c634300050c0032526f6c65733a206163636f756e7420697320746865207a65726f2061646472657373",
  "source": "pragma solidity >=0.4.21 <0.7.0;\n\nimport \"@openzeppelin/contracts/math/SafeMath.sol\";\nimport \"@openzeppelin/contracts/math/Math.sol\";\nimport \"@openzeppelin/contracts/utils/Address.sol\";\nimport \"@openzeppelin/contracts/token/ERC721/ERC721Metadata.sol\";\nimport \"@openzeppelin/contracts/utils/ReentrancyGuard.sol\";\nimport \"@openzeppelin/contracts/lifecycle/Pausable.sol\";\n\n/**\n * @title A digital relationship between two entities\n * @author Michael McLaughlin\n * @notice You can use this contract for basic warranties\n */\ncontract Warranty is ERC721Metadata, ReentrancyGuard, Pausable {\n  using SafeMath for uint256;\n  using Math for uint256;\n  using Address for address payable;\n\n  mapping(uint256 => address) public _pendingTransfer;\n  mapping(address => uint256) public _balances;\n\n  Claim[] public _claims;\n  struct Claim {\n    address warrantor;\n    uint256 value;\n    uint256 valuation;\n    uint256 expiresAfter;\n    uint256 activatedAt;\n    uint256 delayTime;\n    bool redeemed;\n    bool fulfilled;\n    bool terminated;\n    string notes;\n  }\n\n  event BalanceUpdated(address indexed addr, uint256 amount, uint256 balance, bool negative);\n  event Withdrawn(address indexed addr, address indexed target, uint256 amount, uint256 balance);\n  event Redeemed(address indexed warrantor, address indexed warrantee, uint256 indexed tokenId, bool redeemed);\n  event Fulfilled(address indexed warrantor, address indexed warrantee, uint256 indexed tokenId, bool redeemed);\n  event Terminated(uint256 indexed tokenId);\n  event WarrantorshipChanged(address indexed warrantor, uint256 indexed tokenId);\n  event ClaimBalanceUpdated(uint256 indexed tokenId, uint256 value);\n\n  constructor()\n    ERC721Metadata(\"Warrantee\", \"WRNT\")\n    ReentrancyGuard()\n    Pausable()\n    public\n  {}\n\n  function () external payable {\n    deposit(msg.sender);\n  }\n\n  /**\n   * @notice Allows only the two entities to run operation\n   * @param tokenId uint256 ID is the token in question\n   */\n  modifier warranteeOrWarrantorOnly(uint256 tokenId) {\n    require((\n      isWarrantee(msg.sender, tokenId) ||\n      isWarrantor(msg.sender, tokenId)\n    ), \"sender must either be the token owner (warrantee) or the warrantor\");\n    _;\n  }\n  /**\n   * @notice Allows only the warrantee of a claim to operate\n   * @param tokenId uint256 ID is the token in question\n   */\n  modifier warranteeOnly(uint256 tokenId) {\n    require(isWarrantee(msg.sender, tokenId), \"sender must be the owner of the token\");\n    _;\n  }\n  /**\n   * @notice Allows only the warrantor of a claim to operate\n   * @param tokenId uint256 ID is the token in question\n   */\n  modifier warrantorOnly(uint256 tokenId) {\n    require(isWarrantor(msg.sender, tokenId), \"sender must be the warrantor of the token\");\n    _;\n  }\n  /**\n   * @notice Allows only non redeemed tokens to be operated upon\n   * @param tokenId uint256 ID is the token in question\n   */\n  modifier notRedeemedOnly(uint256 tokenId) {\n    require(!_claims[tokenId].redeemed, \"only non redeemed claims can use this method\");\n    _;\n  }\n  /**\n   * @notice Allows only non terminated tokens to be operated upon\n   * @param tokenId uint256 ID is the token in question\n   */\n  modifier notTerminatedOnly(uint256 tokenId) {\n    require(!_claims[tokenId].terminated, \"only non terminated claims can use this method\");\n    _;\n  }\n  /**\n   * @notice Allows only non expired tokens to be operated upon\n   * @param tokenId uint256 ID is the token in question\n   */\n  modifier notExpiredOnly(uint256 tokenId) {\n    require(\n      _claims[tokenId].activatedAt == 0 ||\n      _claims[tokenId].activatedAt.add(_claims[tokenId].delayTime).add(_claims[tokenId].expiresAfter) > timestamp(),\n      \"only non expired claims can use this method\"\n    );\n    _;\n  }\n  /**\n   * @notice Requires two values to be greater than or equal\n   * when compared to one another\n   * @param a uint256 is the first value, which must be greater than or equal to the second parameter\n   * @param b uint256 is the second value, which must be less than or equal to the first parameter\n   */\n  modifier greaterThanOrEqual(uint256 a, uint256 b) {\n    require(a >= b, \"a must be greater than or equal to b\");\n    _;\n  }\n  /**\n   * @notice Checks whether a given token is owned by a particular address\n   * @param warrantee address is the owner in question\n   * @param tokenId uint256 is the token in question\n   */\n  modifier checkWarranteeOf(address warrantee, uint256 tokenId) {\n    if (warrantee != address(0)) { // any owner is honored\n      require(isWarrantee(warrantee, tokenId), \"must be working with the correct warrantee\");\n    }\n    _;\n  }\n  /**\n   * @notice Makes sure that the account passed is the owner of the token\n   * @param account address is the address being checked against\n   * @param tokenId uint256 ID is the token in question\n   * @return matches as bool whether the account is indeed the owner of the token\n   */\n  function isWarrantee(address account, uint256 tokenId) public view returns(bool matches) {\n    return account == this.ownerOf(tokenId);\n  }\n  /**\n   * @notice Makes sure that the account passed is set as the token's warrantor\n   * @param account address is the address being checked against\n   * @param tokenId uint256 ID is the token in question\n   * @return matches as bool whether the account is indeed the warrantor of the token\n   */\n  function isWarrantor(address account, uint256 tokenId) public view returns(bool matches) {\n    return account == _claims[tokenId].warrantor;\n  }\n  function timestamp() internal view returns(uint256) {\n    return block.timestamp;\n  }\n  /**\n   * @notice Checks the balance of a given account\n   * @param account address to check the balance credited by the contract\n   * @return amount as uint256 as the balance credited to the account and available for withdrawal\n   */\n  function balance(address account) public view returns(uint256 amount) {\n    return _balances[account];\n  }\n  /**\n   * @notice Extend the timeline until the claim expires\n   * @param tokenId uint256 as the targeted token\n   * @param expiryTime uint256 as the amount of time to be added to the expiry time first set when the claim was created\n   * @param delayTime uint256 as the amount of time to be added to the delay time first set to zero\n   */\n  function extendClaimExpiration(uint256 tokenId, uint256 expiryTime, uint256 delayTime)\n    public\n    whenNotPaused\n    warrantorOnly(tokenId)\n    notTerminatedOnly(tokenId)\n    notRedeemedOnly(tokenId)\n    // ensure no overflow occurs\n    greaterThanOrEqual(_claims[tokenId].activatedAt.add(delayTime).add(expiryTime), _claims[tokenId].activatedAt)\n  {\n    _claims[tokenId].delayTime = _claims[tokenId].delayTime.add(delayTime);\n    _claims[tokenId].expiresAfter = _claims[tokenId].expiresAfter.add(expiryTime);\n  }\n  /**\n   * @notice Updates a given account's credited balance.\n   * @param account address to be credited or debited\n   * @param amount uint256 is the amount to add or subtract\n   * @param negative bool defines whether or not the value should be added or subtracted\n   */\n  function updateBalance(address account, uint256 amount, bool negative) internal {\n    if (amount == 0) return;\n    if (negative) {\n      _balances[account] = _balances[account].sub(amount);\n    } else {\n      _balances[account] = _balances[account].add(amount);\n    }\n    emit BalanceUpdated(account, amount, _balances[account], negative);\n  }\n  function credit(address payee, uint256 amount) internal {\n    updateBalance(payee, amount, false);\n  }\n  function debit(address payer, uint256 amount) internal {\n    updateBalance(payer, amount, true);\n  }\n  /**\n   * @notice Deposits eth and directly credits an account\n   * @param account address to send the eth to\n   */\n  function deposit(address account) public payable whenNotPaused {\n    credit(account, msg.value);\n  }\n  /**\n   * @notice Warrantor can fulfill the claim for the amount agreed upon when the claim was first created.\n   * @param warrantee address to check ownership of the token (optional)\n   * @param tokenId uint256 the id of the token in question\n   */\n  function fulfillClaim(address warrantee, uint256 tokenId)\n    public\n    payable\n    whenNotPaused\n    warrantorOnly(tokenId)\n    checkWarranteeOf(warrantee, tokenId)\n  {\n    Claim storage claim = _claims[tokenId];\n    // if the warrantor sends more than enough or has enough in their balance\n    uint256 bal = balance(msg.sender);\n    debit(msg.sender, bal); // guarantor temporarily has zero balance\n    uint256 value = claim.value.add(msg.value).add(bal);\n    require(value >= claim.valuation, \"claim can only be fullfilled for the original agreed upon valuation\");\n    credit(msg.sender, value.sub(claim.valuation));\n    credit(this.ownerOf(tokenId), claim.valuation);\n    updateClaimValue(tokenId, 0); // remove funds locked in claim\n    claim.fulfilled = true;\n    emit Fulfilled(msg.sender, warrantee, tokenId, claim.redeemed);\n    _terminateClaim(tokenId);\n  }\n  function _terminateClaim(uint256 tokenId)\n    internal\n    notTerminatedOnly(tokenId)\n  {\n    Claim storage claim = _claims[tokenId];\n    if (!claim.fulfilled && claim.value != 0) {\n      // should only have value assigned, to be divii'd up if claim has not been fulfilled\n      uint256 elapsed = claim.expiresAfter.sub(timeToClaimExpire(tokenId));\n      uint256 leftover = claim.value.mul(claim.expiresAfter).sub(claim.value.mul(elapsed)).div(claim.expiresAfter);\n      credit(this.ownerOf(tokenId), leftover);\n      credit(claim.warrantor, claim.value.sub(leftover));\n    }\n    claim.terminated = true;\n    updateClaimValue(tokenId, 0); // remove funds locked in claim\n    emit Terminated(tokenId);\n  }\n  /**\n   * @notice Terminates the claim in question. Ends the claim completely and hands all funds over to the warrantor.\n   * disallow redeemed tokens from being terminated\n   * @param tokenId uint256 is the targeted token\n   */\n  function terminateClaim(uint256 tokenId)\n    public\n    whenNotPaused\n    warranteeOnly(tokenId)\n    notRedeemedOnly(tokenId)\n  {\n    _terminateClaim(tokenId);\n  }\n  /**\n   * @notice Releases funds credited to the sender to a given account\n   * @dev account param will, in most cases, be the sender's address\n   * @dev nonReentrant modifier used to prevent double spends\n   * @param account address the account to send the eth to\n   * @param amount uint256 the amount of eth to send to the account\n   */\n  function releaseTo(address payable account, uint256 amount)\n    public\n    nonReentrant\n    whenNotPaused\n    greaterThanOrEqual(_balances[msg.sender], amount)\n  {\n    address payable sender = msg.sender;\n    address payable target = account;\n    if (address(0) == target) {\n      target = sender;\n    }\n    debit(sender, amount);\n    target.sendValue(amount);\n    emit Withdrawn(sender, target, amount, _balances[sender]);\n  }\n  /**\n   * @notice Creates and guarantees a claim\n   * @param warrantee address is the new owner of the token\n   * @param warrantor address is the new recipient of the funds of the contract\n   * @param valuation uint256 is the value agreed that is required to fulfill the claim at the end of its life\n   * @param expiresAfter uint256 creates a window in seconds within which a claim can be redeemed to be subesequently fulfilled.\n   * @param tokenURI optional string provides the token uri in json format: https://eips.ethereum.org/EIPS/eip-721\n   * @param notes optional string provides extra arbitrary context\n   * @return tokenId uint256 sends back the tokenId created\n   */\n  function createAndFundClaim(\n    address payable warrantee,\n    address payable warrantor,\n    uint256 valuation,\n    uint256 expiresAfter,\n    string memory tokenURI,\n    string memory notes\n  )\n    public\n    payable\n    returns(uint256)\n  {\n    uint256 tokenId = createClaim(warrantee, valuation, expiresAfter, tokenURI, notes);\n    transferWarrantorship(tokenId, warrantor);\n    fundClaim(tokenId, msg.value);\n    return tokenId;\n  }\n  function transferWarrantorship(uint256 tokenId, address account)\n    public\n    notExpiredOnly(tokenId)\n    warranteeOnly(tokenId)\n  {\n    _activateClaim(tokenId);\n    _claims[tokenId].warrantor = account;\n    emit WarrantorshipChanged(account, tokenId);\n  }\n  /**\n   * @notice provides the full timeline for a given claim's expiration\n   * @param tokenId uint256 defines the token in question\n   * @return expireTime uint256 defines when the claim will no longer be redeemable by the warrantee\n   */\n  function claimExpireTime(uint256 tokenId)\n    public\n    view\n    whenNotPaused\n    returns(uint256 expireTime)\n  {\n    return _claims[tokenId].activatedAt.add(_claims[tokenId].delayTime).add(_claims[tokenId].expiresAfter);\n  }\n  /**\n   * @notice provides the number of seconds until the expireTime will be reached\n   * @param tokenId uint256 the token in question\n   * @return timeUntil uint256 defines the number of seconds until the expireTime is met\n   */\n  function timeToClaimExpire(uint256 tokenId)\n    public\n    view\n    whenNotPaused\n    returns(uint256 timeUntil)\n  {\n    uint256 expireTime = claimExpireTime(tokenId);\n    uint256 tsmp = timestamp();\n    if (expireTime <= tsmp) {\n      return 0;\n    }\n    return expireTime.sub(tsmp);\n  }\n  /**\n   * @notice Guarantees a claim by claiming responsibility for the other side of the transaction, the warrantor\n   * also useful when being sold a warranty by another warrantor or by the warrantee\n   * @param tokenId uint256 targets a specific token\n   */\n  function guaranteeClaim(uint256 tokenId, uint256 value)\n    public\n    payable\n    whenNotPaused\n    notRedeemedOnly(tokenId)\n    notTerminatedOnly(tokenId)\n  {\n    Claim storage claim = _claims[tokenId];\n    require((\n      _pendingTransfer[tokenId] == msg.sender\n    ), \"unable to hand off claim unless it is first posted for transfer\");\n    // activatedAt will not yet be set if first time\n    uint256 availableCredit = balance(msg.sender).add(msg.value);\n    require(availableCredit >= claim.value, \"available credit must meet or exceed claim value\");\n    require(value >= claim.value, \"claim must preserve currently backed value\");\n    address previousOwner = this.ownerOf(tokenId);\n    credit(previousOwner, claim.value); // give back the value provided by previous warrantor\n    claim.value = 0; // reset value\n    fundClaim(tokenId, value); // back claim with new and old value\n    transferFrom(previousOwner, msg.sender, tokenId); // transfer token\n    setApprovalForAll(previousOwner, false); // disallow previous owner to move token\n    _pendingTransferClaim(tokenId, address(0));\n  }\n  function _activateClaim(uint256 tokenId) internal {\n    if (_claims[tokenId].activatedAt == 0) {\n      _claims[tokenId].activatedAt = timestamp();\n    }\n  }\n  /**\n   * @notice Posts a claim to be picked up \"guaranteed\" by another entity\n   * @dev can only sell if the token is not already being sold\n   * @param tokenId uint256 the targeted token\n   * @param account address the buyer to pick up the claim\n   */\n  function postClaim(uint256 tokenId, address account)\n    public\n    whenNotPaused\n    warranteeOnly(tokenId)\n  {\n    require(_pendingTransfer[tokenId] == address(0), \"only claims that are not being sold can be put up for sale\");\n    _pendingTransfer[tokenId] = account;\n    approve(account, tokenId);\n  }\n  /**\n   * @notice Un-posts a claim that was previously posted.\n   * If there is a disagreement, the warrantee can refuse the transfer\n   * @param tokenId uint256 the targeted token\n   */\n  function depostClaim(uint256 tokenId)\n    public\n    whenNotPaused\n    warranteeOnly(tokenId)\n  {\n    require(_pendingTransfer[tokenId] != address(0), \"only claims that are being sold can be deposted\");\n    _pendingTransferClaim(tokenId, address(0));\n  }\n  function _pendingTransferClaim(uint256 tokenId, address account) internal {\n    _pendingTransfer[tokenId] = account;\n  }\n  // anybody can add to a claim's value. value will only be accessable to the owner\n  /**\n   * @notice Fund a claim\n   * @dev only funds if the claim has not already been terminated.\n   * Otherwise it would go directly to the warrantor or the warrantee if it was redeemed.\n   * That's just confusing.\n   * @param tokenId uint256 the token to be targeted\n   */\n  function fundClaim(uint256 tokenId, uint256 amount)\n    public\n    payable\n    notTerminatedOnly(tokenId)\n  {\n    deposit(msg.sender);\n    creditClaim(tokenId, amount);\n    debit(msg.sender, amount);\n  }\n  function creditClaim(uint256 tokenId, uint256 value) internal {\n    if (value != 0) {\n      updateClaimValue(tokenId, _claims[tokenId].value.add(value));\n    }\n  }\n  function updateClaimValue(uint256 tokenId, uint256 value) internal {\n    if (_claims[tokenId].value != value) {\n      _claims[tokenId].value = value;\n      emit ClaimBalanceUpdated(tokenId, value);\n    }\n  }\n  /**\n   * @notice De-Redeems a claim. Allows for warrantee or warrantor to reset time if guarantee's submission did not meet agreement, or for any other reason\n   * @dev Can only be completed by the warrantee or warrantor.\n   * only warrantor adds extra time. transactions would be no-ops if they came from user, or at worst would waste the tx fees from the business\n   * @param tokenId uint256 targets a token\n   * @param expiryTime uint256 adds more time (in seconds) to the expiration decay\n   * @param delayTime uint256 adds more time to the delay offset (in seconds)\n   */\n  function deredeemClaim(uint256 tokenId, uint256 expiryTime, uint256 delayTime)\n    public\n    whenNotPaused\n    warranteeOrWarrantorOnly(tokenId)\n  {\n    require(_claims[tokenId].redeemed, \"only a redeemed claim can be reset\");\n    _claims[tokenId].redeemed = false;\n    emit Redeemed(_claims[tokenId].warrantor, this.ownerOf(tokenId), tokenId, _claims[tokenId].redeemed);\n    if (msg.sender == _claims[tokenId].warrantor) {\n      extendClaimExpiration(tokenId, expiryTime, delayTime);\n    }\n  }\n  function refundClaim(uint256 tokenId)\n    public\n    whenNotPaused\n    warrantorOnly(tokenId)\n    // can be expired, just not terminated\n    notTerminatedOnly(tokenId)\n  {\n    Claim storage claim = _claims[tokenId];\n    credit(this.ownerOf(tokenId), claim.value);\n    claim.value = 0;\n    _terminateClaim(tokenId);\n  }\n  /**\n   * @notice Redeems a claim such that an account is notified that it needs to be fulfilled\n   * if claim is accepted guarantee will get the funds defined in valuation back\n   * @param tokenId targets a given token\n   */\n  function redeemClaim(uint256 tokenId)\n    public\n    whenNotPaused\n    warranteeOnly(tokenId)\n    notRedeemedOnly(tokenId)\n    notTerminatedOnly(tokenId)\n  {\n    require(!_claims[tokenId].redeemed, \"claim cannot be redeemed\");\n    _claims[tokenId].redeemed = true;\n    emit Redeemed(_claims[tokenId].warrantor, this.ownerOf(tokenId), tokenId, _claims[tokenId].redeemed);\n  }\n  /**\n   * @notice overwrites an internal safeMint to allow anyone to mint their own\n   * could probably be gotten rid of if a factory was used instead\n   * @param to address the address to assign ownership of the newly minted token to\n   * @param tokenId uint256 the id of the token to be minted\n   * @param _data bytes a set of bytes to hold with the tokenId\n   */\n  function safeMint(address to, uint256 tokenId, bytes memory _data) public returns (bool) {\n    _safeMint(to, tokenId, _data);\n    return true;\n  }\n  /**\n   * @notice Create a claim by minting it yourself or any given contract\n   * @notice A distinct Uniform Resource Identifier (URI) for a given asset.\n   * @dev safeMint is used so integrating with a contract should be possible\n   * @param warrantee address is the address that should own the token to start\n   * @param valuation holds the agreed upon valuation of the claim\n   * @param expiresAfter holds the number of seconds after the claim is guaranteed by a warrantor that the warranty should expire\n   * @param tokenURI optional string provides the token uri in json format: https://eips.ethereum.org/EIPS/eip-721\n   * @param notes optional string provides extra arbitrary context\n   * @return tokenId uint256 sends back the tokenId created\n   */\n  function createClaim(\n    address warrantee,\n    uint256 valuation,\n    uint256 expiresAfter,\n    string memory tokenURI,\n    string memory notes\n  )\n    public\n    whenNotPaused\n    returns(uint256)\n  {\n    uint256 tokenId = _claims.length;\n    require(expiresAfter < 100000000000, \"expires after value cannot be too large\");\n    _safeMint(warrantee, tokenId);\n    if (bytes(tokenURI).length > 0) {\n      _setTokenURI(tokenId, tokenURI);\n    }\n    // metadata to associate with the id\n    _claims.push(Claim({\n      valuation: valuation,\n      // set when the claim is guaranteed\n      value: 0,\n      warrantor: warrantee,\n      activatedAt: 0,\n      delayTime: 0,\n      // only need approximations\n      expiresAfter: expiresAfter,\n      redeemed: false,\n      fulfilled: false,\n      terminated: false,\n      // arbitrary data that must be on chain\n      notes: notes\n    }));\n    return tokenId;\n  }\n}\n",
  "sourcePath": "/Users/michaelmclaughlin/Sites/blockchain/ethereum/warrantee/contracts/Warranty.sol",
  "compiler": {
    "name": "solc",
    "version": "0.5.12+commit.7709ece9.Emscripten.clang"
  },
  "schemaVersion": "3.0.19",
  "updatedAt": "2020-02-01T09:20:11.147Z",
  "networkType": "ethereum",
  "devdoc": {
    "author": "Michael McLaughlin",
    "methods": {
      "approve(address,uint256)": {
        "details": "Approves another address to transfer the given token ID The zero address indicates there is no approved address. There can only be one approved address per token at a given time. Can only be called by the token owner or an approved operator.",
        "params": {
          "to": "address to be approved for the given token ID",
          "tokenId": "uint256 ID of the token to be approved"
        }
      },
      "balance(address)": {
        "params": {
          "account": "address to check the balance credited by the contract"
        },
        "return": "amount as uint256 as the balance credited to the account and available for withdrawal"
      },
      "balanceOf(address)": {
        "details": "Gets the balance of the specified address.",
        "params": {
          "owner": "address to query the balance of"
        },
        "return": "uint256 representing the amount owned by the passed address"
      },
      "claimExpireTime(uint256)": {
        "params": {
          "tokenId": "uint256 defines the token in question"
        },
        "return": "expireTime uint256 defines when the claim will no longer be redeemable by the warrantee"
      },
      "createAndFundClaim(address,address,uint256,uint256,string,string)": {
        "params": {
          "expiresAfter": "uint256 creates a window in seconds within which a claim can be redeemed to be subesequently fulfilled.",
          "notes": "optional string provides extra arbitrary context",
          "tokenURI": "optional string provides the token uri in json format: https://eips.ethereum.org/EIPS/eip-721",
          "valuation": "uint256 is the value agreed that is required to fulfill the claim at the end of its life",
          "warrantee": "address is the new owner of the token",
          "warrantor": "address is the new recipient of the funds of the contract"
        },
        "return": "tokenId uint256 sends back the tokenId created"
      },
      "createClaim(address,uint256,uint256,string,string)": {
        "details": "safeMint is used so integrating with a contract should be possible",
        "params": {
          "expiresAfter": "holds the number of seconds after the claim is guaranteed by a warrantor that the warranty should expire",
          "notes": "optional string provides extra arbitrary context",
          "tokenURI": "optional string provides the token uri in json format: https://eips.ethereum.org/EIPS/eip-721",
          "valuation": "holds the agreed upon valuation of the claim",
          "warrantee": "address is the address that should own the token to start"
        },
        "return": "tokenId uint256 sends back the tokenId created"
      },
      "deposit(address)": {
        "params": {
          "account": "address to send the eth to"
        }
      },
      "depostClaim(uint256)": {
        "params": {
          "tokenId": "uint256 the targeted token"
        }
      },
      "deredeemClaim(uint256,uint256,uint256)": {
        "details": "Can only be completed by the warrantee or warrantor. only warrantor adds extra time. transactions would be no-ops if they came from user, or at worst would waste the tx fees from the business",
        "params": {
          "delayTime": "uint256 adds more time to the delay offset (in seconds)",
          "expiryTime": "uint256 adds more time (in seconds) to the expiration decay",
          "tokenId": "uint256 targets a token"
        }
      },
      "extendClaimExpiration(uint256,uint256,uint256)": {
        "params": {
          "delayTime": "uint256 as the amount of time to be added to the delay time first set to zero",
          "expiryTime": "uint256 as the amount of time to be added to the expiry time first set when the claim was created",
          "tokenId": "uint256 as the targeted token"
        }
      },
      "fulfillClaim(address,uint256)": {
        "params": {
          "tokenId": "uint256 the id of the token in question",
          "warrantee": "address to check ownership of the token (optional)"
        }
      },
      "fundClaim(uint256,uint256)": {
        "details": "only funds if the claim has not already been terminated. Otherwise it would go directly to the warrantor or the warrantee if it was redeemed. That's just confusing.",
        "params": {
          "tokenId": "uint256 the token to be targeted"
        }
      },
      "getApproved(uint256)": {
        "details": "Gets the approved address for a token ID, or zero if no address set Reverts if the token ID does not exist.",
        "params": {
          "tokenId": "uint256 ID of the token to query the approval of"
        },
        "return": "address currently approved for the given token ID"
      },
      "guaranteeClaim(uint256,uint256)": {
        "params": {
          "tokenId": "uint256 targets a specific token"
        }
      },
      "isApprovedForAll(address,address)": {
        "details": "Tells whether an operator is approved by a given owner.",
        "params": {
          "operator": "operator address which you want to query the approval of",
          "owner": "owner address which you want to query the approval of"
        },
        "return": "bool whether the given operator is approved by the given owner"
      },
      "isWarrantee(address,uint256)": {
        "params": {
          "account": "address is the address being checked against",
          "tokenId": "uint256 ID is the token in question"
        },
        "return": "matches as bool whether the account is indeed the owner of the token"
      },
      "isWarrantor(address,uint256)": {
        "params": {
          "account": "address is the address being checked against",
          "tokenId": "uint256 ID is the token in question"
        },
        "return": "matches as bool whether the account is indeed the warrantor of the token"
      },
      "name()": {
        "details": "Gets the token name.",
        "return": "string representing the token name"
      },
      "ownerOf(uint256)": {
        "details": "Gets the owner of the specified token ID.",
        "params": {
          "tokenId": "uint256 ID of the token to query the owner of"
        },
        "return": "address currently marked as the owner of the given token ID"
      },
      "pause()": {
        "details": "Called by a pauser to pause, triggers stopped state."
      },
      "paused()": {
        "details": "Returns true if the contract is paused, and false otherwise."
      },
      "postClaim(uint256,address)": {
        "details": "can only sell if the token is not already being sold",
        "params": {
          "account": "address the buyer to pick up the claim",
          "tokenId": "uint256 the targeted token"
        }
      },
      "redeemClaim(uint256)": {
        "params": {
          "tokenId": "targets a given token"
        }
      },
      "releaseTo(address,uint256)": {
        "details": "account param will, in most cases, be the sender's addressnonReentrant modifier used to prevent double spends",
        "params": {
          "account": "address the account to send the eth to",
          "amount": "uint256 the amount of eth to send to the account"
        }
      },
      "safeMint(address,uint256,bytes)": {
        "params": {
          "_data": "bytes a set of bytes to hold with the tokenId",
          "to": "address the address to assign ownership of the newly minted token to",
          "tokenId": "uint256 the id of the token to be minted"
        }
      },
      "safeTransferFrom(address,address,uint256)": {
        "details": "Safely transfers the ownership of a given token ID to another address If the target address is a contract, it must implement {IERC721Receiver-onERC721Received}, which is called upon a safe transfer, and return the magic value `bytes4(keccak256(\"onERC721Received(address,address,uint256,bytes)\"))`; otherwise, the transfer is reverted. Requires the msg.sender to be the owner, approved, or operator",
        "params": {
          "from": "current owner of the token",
          "to": "address to receive the ownership of the given token ID",
          "tokenId": "uint256 ID of the token to be transferred"
        }
      },
      "safeTransferFrom(address,address,uint256,bytes)": {
        "details": "Safely transfers the ownership of a given token ID to another address If the target address is a contract, it must implement {IERC721Receiver-onERC721Received}, which is called upon a safe transfer, and return the magic value `bytes4(keccak256(\"onERC721Received(address,address,uint256,bytes)\"))`; otherwise, the transfer is reverted. Requires the _msgSender() to be the owner, approved, or operator",
        "params": {
          "_data": "bytes data to send along with a safe transfer check",
          "from": "current owner of the token",
          "to": "address to receive the ownership of the given token ID",
          "tokenId": "uint256 ID of the token to be transferred"
        }
      },
      "setApprovalForAll(address,bool)": {
        "details": "Sets or unsets the approval of a given operator An operator is allowed to transfer all tokens of the sender on their behalf.",
        "params": {
          "approved": "representing the status of the approval to be set",
          "to": "operator address to set the approval"
        }
      },
      "supportsInterface(bytes4)": {
        "details": "See {IERC165-supportsInterface}.     * Time complexity O(1), guaranteed to always use less than 30 000 gas."
      },
      "symbol()": {
        "details": "Gets the token symbol.",
        "return": "string representing the token symbol"
      },
      "terminateClaim(uint256)": {
        "params": {
          "tokenId": "uint256 is the targeted token"
        }
      },
      "timeToClaimExpire(uint256)": {
        "params": {
          "tokenId": "uint256 the token in question"
        },
        "return": "timeUntil uint256 defines the number of seconds until the expireTime is met"
      },
      "tokenURI(uint256)": {
        "details": "Returns an URI for a given token ID. Throws if the token ID does not exist. May return an empty string.",
        "params": {
          "tokenId": "uint256 ID of the token to query"
        }
      },
      "transferFrom(address,address,uint256)": {
        "details": "Transfers the ownership of a given token ID to another address. Usage of this method is discouraged, use {safeTransferFrom} whenever possible. Requires the msg.sender to be the owner, approved, or operator.",
        "params": {
          "from": "current owner of the token",
          "to": "address to receive the ownership of the given token ID",
          "tokenId": "uint256 ID of the token to be transferred"
        }
      },
      "unpause()": {
        "details": "Called by a pauser to unpause, returns to normal state."
      }
    },
    "title": "A digital relationship between two entities"
  },
  "userdoc": {
    "methods": {
      "balance(address)": {
        "notice": "Checks the balance of a given account"
      },
      "claimExpireTime(uint256)": {
        "notice": "provides the full timeline for a given claim's expiration"
      },
      "createAndFundClaim(address,address,uint256,uint256,string,string)": {
        "notice": "Creates and guarantees a claim"
      },
      "createClaim(address,uint256,uint256,string,string)": {
        "notice": "Create a claim by minting it yourself or any given contractA distinct Uniform Resource Identifier (URI) for a given asset."
      },
      "deposit(address)": {
        "notice": "Deposits eth and directly credits an account"
      },
      "depostClaim(uint256)": {
        "notice": "Un-posts a claim that was previously posted. If there is a disagreement, the warrantee can refuse the transfer"
      },
      "deredeemClaim(uint256,uint256,uint256)": {
        "notice": "De-Redeems a claim. Allows for warrantee or warrantor to reset time if guarantee's submission did not meet agreement, or for any other reason"
      },
      "extendClaimExpiration(uint256,uint256,uint256)": {
        "notice": "Extend the timeline until the claim expires"
      },
      "fulfillClaim(address,uint256)": {
        "notice": "Warrantor can fulfill the claim for the amount agreed upon when the claim was first created."
      },
      "fundClaim(uint256,uint256)": {
        "notice": "Fund a claim"
      },
      "guaranteeClaim(uint256,uint256)": {
        "notice": "Guarantees a claim by claiming responsibility for the other side of the transaction, the warrantor also useful when being sold a warranty by another warrantor or by the warrantee"
      },
      "isWarrantee(address,uint256)": {
        "notice": "Makes sure that the account passed is the owner of the token"
      },
      "isWarrantor(address,uint256)": {
        "notice": "Makes sure that the account passed is set as the token's warrantor"
      },
      "postClaim(uint256,address)": {
        "notice": "Posts a claim to be picked up \"guaranteed\" by another entity"
      },
      "redeemClaim(uint256)": {
        "notice": "Redeems a claim such that an account is notified that it needs to be fulfilled if claim is accepted guarantee will get the funds defined in valuation back"
      },
      "releaseTo(address,uint256)": {
        "notice": "Releases funds credited to the sender to a given account"
      },
      "safeMint(address,uint256,bytes)": {
        "notice": "overwrites an internal safeMint to allow anyone to mint their own could probably be gotten rid of if a factory was used instead"
      },
      "terminateClaim(uint256)": {
        "notice": "Terminates the claim in question. Ends the claim completely and hands all funds over to the warrantor. disallow redeemed tokens from being terminated"
      },
      "timeToClaimExpire(uint256)": {
        "notice": "provides the number of seconds until the expireTime will be reached"
      }
    },
    "notice": "You can use this contract for basic warranties"
  }
}