{
  "contractName": "Warranty",
  "abi": [
    {
      "inputs": [],
      "payable": false,
      "stateMutability": "nonpayable",
      "type": "constructor"
    },
    {
      "anonymous": false,
      "inputs": [
        {
          "indexed": true,
          "internalType": "address",
          "name": "owner",
          "type": "address"
        },
        {
          "indexed": true,
          "internalType": "address",
          "name": "approved",
          "type": "address"
        },
        {
          "indexed": true,
          "internalType": "uint256",
          "name": "tokenId",
          "type": "uint256"
        }
      ],
      "name": "Approval",
      "type": "event"
    },
    {
      "anonymous": false,
      "inputs": [
        {
          "indexed": true,
          "internalType": "address",
          "name": "owner",
          "type": "address"
        },
        {
          "indexed": true,
          "internalType": "address",
          "name": "operator",
          "type": "address"
        },
        {
          "indexed": false,
          "internalType": "bool",
          "name": "approved",
          "type": "bool"
        }
      ],
      "name": "ApprovalForAll",
      "type": "event"
    },
    {
      "anonymous": false,
      "inputs": [
        {
          "indexed": true,
          "internalType": "address",
          "name": "account",
          "type": "address"
        },
        {
          "indexed": false,
          "internalType": "uint256",
          "name": "amount",
          "type": "uint256"
        },
        {
          "indexed": false,
          "internalType": "uint256",
          "name": "balance",
          "type": "uint256"
        },
        {
          "indexed": false,
          "internalType": "bool",
          "name": "negative",
          "type": "bool"
        }
      ],
      "name": "BalanceUpdated",
      "type": "event"
    },
    {
      "anonymous": false,
      "inputs": [
        {
          "indexed": true,
          "internalType": "uint256",
          "name": "tokenId",
          "type": "uint256"
        },
        {
          "indexed": false,
          "internalType": "uint256",
          "name": "value",
          "type": "uint256"
        }
      ],
      "name": "ClaimBalanceUpdated",
      "type": "event"
    },
    {
      "anonymous": false,
      "inputs": [
        {
          "indexed": true,
          "internalType": "uint256",
          "name": "tokenId",
          "type": "uint256"
        },
        {
          "indexed": true,
          "internalType": "address",
          "name": "warrantor",
          "type": "address"
        },
        {
          "indexed": true,
          "internalType": "address",
          "name": "warrantee",
          "type": "address"
        },
        {
          "indexed": false,
          "internalType": "bool",
          "name": "redeemed",
          "type": "bool"
        }
      ],
      "name": "Fulfilled",
      "type": "event"
    },
    {
      "anonymous": false,
      "inputs": [
        {
          "indexed": true,
          "internalType": "uint256",
          "name": "tokenId",
          "type": "uint256"
        },
        {
          "indexed": true,
          "internalType": "address",
          "name": "account",
          "type": "address"
        },
        {
          "indexed": false,
          "internalType": "string",
          "name": "notes",
          "type": "string"
        }
      ],
      "name": "NotesAppended",
      "type": "event"
    },
    {
      "anonymous": false,
      "inputs": [
        {
          "indexed": false,
          "internalType": "address",
          "name": "account",
          "type": "address"
        }
      ],
      "name": "Paused",
      "type": "event"
    },
    {
      "anonymous": false,
      "inputs": [
        {
          "indexed": true,
          "internalType": "address",
          "name": "account",
          "type": "address"
        }
      ],
      "name": "PauserAdded",
      "type": "event"
    },
    {
      "anonymous": false,
      "inputs": [
        {
          "indexed": true,
          "internalType": "address",
          "name": "account",
          "type": "address"
        }
      ],
      "name": "PauserRemoved",
      "type": "event"
    },
    {
      "anonymous": false,
      "inputs": [
        {
          "indexed": true,
          "internalType": "uint256",
          "name": "tokenId",
          "type": "uint256"
        },
        {
          "indexed": true,
          "internalType": "address",
          "name": "warrantor",
          "type": "address"
        },
        {
          "indexed": true,
          "internalType": "address",
          "name": "warrantee",
          "type": "address"
        },
        {
          "indexed": false,
          "internalType": "bool",
          "name": "redeemed",
          "type": "bool"
        }
      ],
      "name": "Redeemed",
      "type": "event"
    },
    {
      "anonymous": false,
      "inputs": [
        {
          "indexed": true,
          "internalType": "uint256",
          "name": "tokenId",
          "type": "uint256"
        },
        {
          "indexed": true,
          "internalType": "address",
          "name": "account",
          "type": "address"
        }
      ],
      "name": "Terminated",
      "type": "event"
    },
    {
      "anonymous": false,
      "inputs": [
        {
          "indexed": true,
          "internalType": "address",
          "name": "from",
          "type": "address"
        },
        {
          "indexed": true,
          "internalType": "address",
          "name": "to",
          "type": "address"
        },
        {
          "indexed": true,
          "internalType": "uint256",
          "name": "tokenId",
          "type": "uint256"
        }
      ],
      "name": "Transfer",
      "type": "event"
    },
    {
      "anonymous": false,
      "inputs": [
        {
          "indexed": false,
          "internalType": "address",
          "name": "account",
          "type": "address"
        }
      ],
      "name": "Unpaused",
      "type": "event"
    },
    {
      "anonymous": false,
      "inputs": [
        {
          "indexed": true,
          "internalType": "uint256",
          "name": "tokenId",
          "type": "uint256"
        },
        {
          "indexed": true,
          "internalType": "address",
          "name": "warrantor",
          "type": "address"
        }
      ],
      "name": "WarrantorshipChanged",
      "type": "event"
    },
    {
      "anonymous": false,
      "inputs": [
        {
          "indexed": true,
          "internalType": "address",
          "name": "account",
          "type": "address"
        },
        {
          "indexed": true,
          "internalType": "address",
          "name": "target",
          "type": "address"
        },
        {
          "indexed": false,
          "internalType": "uint256",
          "name": "amount",
          "type": "uint256"
        },
        {
          "indexed": false,
          "internalType": "uint256",
          "name": "balance",
          "type": "uint256"
        }
      ],
      "name": "Withdrawn",
      "type": "event"
    },
    {
      "payable": true,
      "stateMutability": "payable",
      "type": "fallback"
    },
    {
      "constant": true,
      "inputs": [
        {
          "internalType": "address",
          "name": "",
          "type": "address"
        }
      ],
      "name": "_balances",
      "outputs": [
        {
          "internalType": "uint256",
          "name": "",
          "type": "uint256"
        }
      ],
      "payable": false,
      "stateMutability": "view",
      "type": "function"
    },
    {
      "constant": true,
      "inputs": [
        {
          "internalType": "uint256",
          "name": "",
          "type": "uint256"
        }
      ],
      "name": "_claims",
      "outputs": [
        {
          "internalType": "address",
          "name": "warrantor",
          "type": "address"
        },
        {
          "internalType": "uint256",
          "name": "value",
          "type": "uint256"
        },
        {
          "internalType": "uint256",
          "name": "valuation",
          "type": "uint256"
        },
        {
          "internalType": "uint256",
          "name": "expiresAfter",
          "type": "uint256"
        },
        {
          "internalType": "uint256",
          "name": "activatedAt",
          "type": "uint256"
        },
        {
          "internalType": "uint256",
          "name": "delayTime",
          "type": "uint256"
        },
        {
          "internalType": "bool",
          "name": "redeemed",
          "type": "bool"
        },
        {
          "internalType": "bool",
          "name": "fulfilled",
          "type": "bool"
        },
        {
          "internalType": "bool",
          "name": "terminated",
          "type": "bool"
        }
      ],
      "payable": false,
      "stateMutability": "view",
      "type": "function"
    },
    {
      "constant": true,
      "inputs": [
        {
          "internalType": "uint256",
          "name": "",
          "type": "uint256"
        }
      ],
      "name": "_pendingTransfer",
      "outputs": [
        {
          "internalType": "address",
          "name": "",
          "type": "address"
        }
      ],
      "payable": false,
      "stateMutability": "view",
      "type": "function"
    },
    {
      "constant": false,
      "inputs": [
        {
          "internalType": "address",
          "name": "account",
          "type": "address"
        }
      ],
      "name": "addPauser",
      "outputs": [],
      "payable": false,
      "stateMutability": "nonpayable",
      "type": "function"
    },
    {
      "constant": false,
      "inputs": [
        {
          "internalType": "address",
          "name": "to",
          "type": "address"
        },
        {
          "internalType": "uint256",
          "name": "tokenId",
          "type": "uint256"
        }
      ],
      "name": "approve",
      "outputs": [],
      "payable": false,
      "stateMutability": "nonpayable",
      "type": "function"
    },
    {
      "constant": true,
      "inputs": [
        {
          "internalType": "address",
          "name": "owner",
          "type": "address"
        }
      ],
      "name": "balanceOf",
      "outputs": [
        {
          "internalType": "uint256",
          "name": "",
          "type": "uint256"
        }
      ],
      "payable": false,
      "stateMutability": "view",
      "type": "function"
    },
    {
      "constant": true,
      "inputs": [
        {
          "internalType": "uint256",
          "name": "tokenId",
          "type": "uint256"
        }
      ],
      "name": "getApproved",
      "outputs": [
        {
          "internalType": "address",
          "name": "",
          "type": "address"
        }
      ],
      "payable": false,
      "stateMutability": "view",
      "type": "function"
    },
    {
      "constant": true,
      "inputs": [
        {
          "internalType": "address",
          "name": "owner",
          "type": "address"
        },
        {
          "internalType": "address",
          "name": "operator",
          "type": "address"
        }
      ],
      "name": "isApprovedForAll",
      "outputs": [
        {
          "internalType": "bool",
          "name": "",
          "type": "bool"
        }
      ],
      "payable": false,
      "stateMutability": "view",
      "type": "function"
    },
    {
      "constant": true,
      "inputs": [
        {
          "internalType": "address",
          "name": "account",
          "type": "address"
        }
      ],
      "name": "isPauser",
      "outputs": [
        {
          "internalType": "bool",
          "name": "",
          "type": "bool"
        }
      ],
      "payable": false,
      "stateMutability": "view",
      "type": "function"
    },
    {
      "constant": true,
      "inputs": [],
      "name": "name",
      "outputs": [
        {
          "internalType": "string",
          "name": "",
          "type": "string"
        }
      ],
      "payable": false,
      "stateMutability": "view",
      "type": "function"
    },
    {
      "constant": true,
      "inputs": [
        {
          "internalType": "uint256",
          "name": "tokenId",
          "type": "uint256"
        }
      ],
      "name": "ownerOf",
      "outputs": [
        {
          "internalType": "address",
          "name": "",
          "type": "address"
        }
      ],
      "payable": false,
      "stateMutability": "view",
      "type": "function"
    },
    {
      "constant": false,
      "inputs": [],
      "name": "pause",
      "outputs": [],
      "payable": false,
      "stateMutability": "nonpayable",
      "type": "function"
    },
    {
      "constant": true,
      "inputs": [],
      "name": "paused",
      "outputs": [
        {
          "internalType": "bool",
          "name": "",
          "type": "bool"
        }
      ],
      "payable": false,
      "stateMutability": "view",
      "type": "function"
    },
    {
      "constant": false,
      "inputs": [],
      "name": "renouncePauser",
      "outputs": [],
      "payable": false,
      "stateMutability": "nonpayable",
      "type": "function"
    },
    {
      "constant": false,
      "inputs": [
        {
          "internalType": "address",
          "name": "from",
          "type": "address"
        },
        {
          "internalType": "address",
          "name": "to",
          "type": "address"
        },
        {
          "internalType": "uint256",
          "name": "tokenId",
          "type": "uint256"
        }
      ],
      "name": "safeTransferFrom",
      "outputs": [],
      "payable": false,
      "stateMutability": "nonpayable",
      "type": "function"
    },
    {
      "constant": false,
      "inputs": [
        {
          "internalType": "address",
          "name": "from",
          "type": "address"
        },
        {
          "internalType": "address",
          "name": "to",
          "type": "address"
        },
        {
          "internalType": "uint256",
          "name": "tokenId",
          "type": "uint256"
        },
        {
          "internalType": "bytes",
          "name": "_data",
          "type": "bytes"
        }
      ],
      "name": "safeTransferFrom",
      "outputs": [],
      "payable": false,
      "stateMutability": "nonpayable",
      "type": "function"
    },
    {
      "constant": false,
      "inputs": [
        {
          "internalType": "address",
          "name": "to",
          "type": "address"
        },
        {
          "internalType": "bool",
          "name": "approved",
          "type": "bool"
        }
      ],
      "name": "setApprovalForAll",
      "outputs": [],
      "payable": false,
      "stateMutability": "nonpayable",
      "type": "function"
    },
    {
      "constant": true,
      "inputs": [
        {
          "internalType": "bytes4",
          "name": "interfaceId",
          "type": "bytes4"
        }
      ],
      "name": "supportsInterface",
      "outputs": [
        {
          "internalType": "bool",
          "name": "",
          "type": "bool"
        }
      ],
      "payable": false,
      "stateMutability": "view",
      "type": "function"
    },
    {
      "constant": true,
      "inputs": [],
      "name": "symbol",
      "outputs": [
        {
          "internalType": "string",
          "name": "",
          "type": "string"
        }
      ],
      "payable": false,
      "stateMutability": "view",
      "type": "function"
    },
    {
      "constant": true,
      "inputs": [
        {
          "internalType": "uint256",
          "name": "tokenId",
          "type": "uint256"
        }
      ],
      "name": "tokenURI",
      "outputs": [
        {
          "internalType": "string",
          "name": "",
          "type": "string"
        }
      ],
      "payable": false,
      "stateMutability": "view",
      "type": "function"
    },
    {
      "constant": false,
      "inputs": [
        {
          "internalType": "address",
          "name": "from",
          "type": "address"
        },
        {
          "internalType": "address",
          "name": "to",
          "type": "address"
        },
        {
          "internalType": "uint256",
          "name": "tokenId",
          "type": "uint256"
        }
      ],
      "name": "transferFrom",
      "outputs": [],
      "payable": false,
      "stateMutability": "nonpayable",
      "type": "function"
    },
    {
      "constant": false,
      "inputs": [],
      "name": "unpause",
      "outputs": [],
      "payable": false,
      "stateMutability": "nonpayable",
      "type": "function"
    },
    {
      "constant": true,
      "inputs": [
        {
          "internalType": "address",
          "name": "account",
          "type": "address"
        },
        {
          "internalType": "uint256",
          "name": "tokenId",
          "type": "uint256"
        }
      ],
      "name": "isWarrantee",
      "outputs": [
        {
          "internalType": "bool",
          "name": "matches",
          "type": "bool"
        }
      ],
      "payable": false,
      "stateMutability": "view",
      "type": "function"
    },
    {
      "constant": true,
      "inputs": [
        {
          "internalType": "address",
          "name": "account",
          "type": "address"
        },
        {
          "internalType": "uint256",
          "name": "tokenId",
          "type": "uint256"
        }
      ],
      "name": "isWarrantor",
      "outputs": [
        {
          "internalType": "bool",
          "name": "matches",
          "type": "bool"
        }
      ],
      "payable": false,
      "stateMutability": "view",
      "type": "function"
    },
    {
      "constant": true,
      "inputs": [
        {
          "internalType": "address",
          "name": "account",
          "type": "address"
        }
      ],
      "name": "balance",
      "outputs": [
        {
          "internalType": "uint256",
          "name": "amount",
          "type": "uint256"
        }
      ],
      "payable": false,
      "stateMutability": "view",
      "type": "function"
    },
    {
      "constant": false,
      "inputs": [
        {
          "internalType": "uint256",
          "name": "tokenId",
          "type": "uint256"
        },
        {
          "internalType": "uint256",
          "name": "expiryTime",
          "type": "uint256"
        },
        {
          "internalType": "uint256",
          "name": "delayTime",
          "type": "uint256"
        }
      ],
      "name": "extendClaimExpiration",
      "outputs": [],
      "payable": false,
      "stateMutability": "nonpayable",
      "type": "function"
    },
    {
      "constant": false,
      "inputs": [
        {
          "internalType": "address",
          "name": "account",
          "type": "address"
        }
      ],
      "name": "depositToAccount",
      "outputs": [],
      "payable": true,
      "stateMutability": "payable",
      "type": "function"
    },
    {
      "constant": false,
      "inputs": [
        {
          "internalType": "address",
          "name": "warrantee",
          "type": "address"
        },
        {
          "internalType": "uint256",
          "name": "tokenId",
          "type": "uint256"
        }
      ],
      "name": "fulfillClaim",
      "outputs": [],
      "payable": true,
      "stateMutability": "payable",
      "type": "function"
    },
    {
      "constant": false,
      "inputs": [
        {
          "internalType": "uint256",
          "name": "tokenId",
          "type": "uint256"
        }
      ],
      "name": "terminateClaim",
      "outputs": [],
      "payable": false,
      "stateMutability": "nonpayable",
      "type": "function"
    },
    {
      "constant": false,
      "inputs": [
        {
          "internalType": "address payable",
          "name": "account",
          "type": "address"
        },
        {
          "internalType": "uint256",
          "name": "amount",
          "type": "uint256"
        }
      ],
      "name": "releaseTo",
      "outputs": [],
      "payable": false,
      "stateMutability": "nonpayable",
      "type": "function"
    },
    {
      "constant": false,
      "inputs": [
        {
          "internalType": "address payable",
          "name": "warrantee",
          "type": "address"
        },
        {
          "internalType": "address payable",
          "name": "warrantor",
          "type": "address"
        },
        {
          "internalType": "uint256",
          "name": "valuation",
          "type": "uint256"
        },
        {
          "internalType": "uint256",
          "name": "expiresAfter",
          "type": "uint256"
        },
        {
          "internalType": "string",
          "name": "tokenURI",
          "type": "string"
        }
      ],
      "name": "createAndFundClaim",
      "outputs": [
        {
          "internalType": "uint256",
          "name": "",
          "type": "uint256"
        }
      ],
      "payable": true,
      "stateMutability": "payable",
      "type": "function"
    },
    {
      "constant": false,
      "inputs": [
        {
          "internalType": "uint256",
          "name": "tokenId",
          "type": "uint256"
        },
        {
          "internalType": "address",
          "name": "account",
          "type": "address"
        }
      ],
      "name": "transferWarrantorship",
      "outputs": [],
      "payable": false,
      "stateMutability": "nonpayable",
      "type": "function"
    },
    {
      "constant": true,
      "inputs": [
        {
          "internalType": "uint256",
          "name": "tokenId",
          "type": "uint256"
        }
      ],
      "name": "claimExpireTime",
      "outputs": [
        {
          "internalType": "uint256",
          "name": "expireTime",
          "type": "uint256"
        }
      ],
      "payable": false,
      "stateMutability": "view",
      "type": "function"
    },
    {
      "constant": true,
      "inputs": [
        {
          "internalType": "uint256",
          "name": "tokenId",
          "type": "uint256"
        }
      ],
      "name": "timeToClaimExpire",
      "outputs": [
        {
          "internalType": "uint256",
          "name": "timeUntil",
          "type": "uint256"
        }
      ],
      "payable": false,
      "stateMutability": "view",
      "type": "function"
    },
    {
      "constant": false,
      "inputs": [
        {
          "internalType": "uint256",
          "name": "tokenId",
          "type": "uint256"
        },
        {
          "internalType": "uint256",
          "name": "value",
          "type": "uint256"
        }
      ],
      "name": "guaranteeClaim",
      "outputs": [],
      "payable": true,
      "stateMutability": "payable",
      "type": "function"
    },
    {
      "constant": false,
      "inputs": [
        {
          "internalType": "uint256",
          "name": "tokenId",
          "type": "uint256"
        },
        {
          "internalType": "address",
          "name": "account",
          "type": "address"
        }
      ],
      "name": "postClaim",
      "outputs": [],
      "payable": false,
      "stateMutability": "nonpayable",
      "type": "function"
    },
    {
      "constant": false,
      "inputs": [
        {
          "internalType": "uint256",
          "name": "tokenId",
          "type": "uint256"
        }
      ],
      "name": "depostClaim",
      "outputs": [],
      "payable": false,
      "stateMutability": "nonpayable",
      "type": "function"
    },
    {
      "constant": false,
      "inputs": [
        {
          "internalType": "uint256",
          "name": "tokenId",
          "type": "uint256"
        },
        {
          "internalType": "uint256",
          "name": "amount",
          "type": "uint256"
        }
      ],
      "name": "fundClaim",
      "outputs": [],
      "payable": true,
      "stateMutability": "payable",
      "type": "function"
    },
    {
      "constant": false,
      "inputs": [
        {
          "internalType": "uint256",
          "name": "tokenId",
          "type": "uint256"
        },
        {
          "internalType": "uint256",
          "name": "expiryTime",
          "type": "uint256"
        },
        {
          "internalType": "uint256",
          "name": "delayTime",
          "type": "uint256"
        }
      ],
      "name": "deredeemClaim",
      "outputs": [],
      "payable": false,
      "stateMutability": "nonpayable",
      "type": "function"
    },
    {
      "constant": false,
      "inputs": [
        {
          "internalType": "uint256",
          "name": "tokenId",
          "type": "uint256"
        }
      ],
      "name": "refundClaim",
      "outputs": [],
      "payable": false,
      "stateMutability": "nonpayable",
      "type": "function"
    },
    {
      "constant": false,
      "inputs": [
        {
          "internalType": "uint256",
          "name": "tokenId",
          "type": "uint256"
        }
      ],
      "name": "redeemClaim",
      "outputs": [],
      "payable": false,
      "stateMutability": "nonpayable",
      "type": "function"
    },
    {
      "constant": false,
      "inputs": [
        {
          "internalType": "address",
          "name": "to",
          "type": "address"
        },
        {
          "internalType": "uint256",
          "name": "tokenId",
          "type": "uint256"
        },
        {
          "internalType": "bytes",
          "name": "_data",
          "type": "bytes"
        }
      ],
      "name": "safeMint",
      "outputs": [
        {
          "internalType": "bool",
          "name": "",
          "type": "bool"
        }
      ],
      "payable": false,
      "stateMutability": "nonpayable",
      "type": "function"
    },
    {
      "constant": false,
      "inputs": [
        {
          "internalType": "address",
          "name": "warrantee",
          "type": "address"
        },
        {
          "internalType": "uint256",
          "name": "valuation",
          "type": "uint256"
        },
        {
          "internalType": "uint256",
          "name": "expiresAfter",
          "type": "uint256"
        },
        {
          "internalType": "string",
          "name": "tokenURI",
          "type": "string"
        }
      ],
      "name": "createClaim",
      "outputs": [
        {
          "internalType": "uint256",
          "name": "",
          "type": "uint256"
        }
      ],
      "payable": false,
      "stateMutability": "nonpayable",
      "type": "function"
    },
    {
      "constant": false,
      "inputs": [
        {
          "internalType": "uint256",
          "name": "tokenId",
          "type": "uint256"
        },
        {
          "internalType": "string",
          "name": "notes",
          "type": "string"
        }
      ],
      "name": "addNotes",
      "outputs": [],
      "payable": false,
      "stateMutability": "nonpayable",
      "type": "function"
    }
  ],
  "bytecode": "0x60806040523480156200001157600080fd5b50604080518082018252600981527f57617272616e74656500000000000000000000000000000000000000000000006020808301919091528251808401909352600483527f57524e54000000000000000000000000000000000000000000000000000000009083015290620000af7f01ffc9a7000000000000000000000000000000000000000000000000000000006001600160e01b036200018016565b620000e37f80ac58cd000000000000000000000000000000000000000000000000000000006001600160e01b036200018016565b8151620000f8906005906020850190620003d0565b5080516200010e906006906020840190620003d0565b50620001437f5b5e139f000000000000000000000000000000000000000000000000000000006001600160e01b036200018016565b5050600160085562000170620001616001600160e01b036200024f16565b6001600160e01b036200025416565b600a805460ff1916905562000472565b7fffffffff0000000000000000000000000000000000000000000000000000000080821614156200021257604080517f08c379a000000000000000000000000000000000000000000000000000000000815260206004820152601c60248201527f4552433136353a20696e76616c696420696e7465726661636520696400000000604482015290519081900360640190fd5b7fffffffff00000000000000000000000000000000000000000000000000000000166000908152602081905260409020805460ff19166001179055565b335b90565b6200026f816009620002a660201b62003f401790919060201c565b6040516001600160a01b038216907f6719d08c1888103bea251a4ed56406bd0c3e69723c8a1686e017e7bbe159b6f890600090a250565b620002bb82826001600160e01b036200034d16565b156200032857604080517f08c379a000000000000000000000000000000000000000000000000000000000815260206004820152601f60248201527f526f6c65733a206163636f756e7420616c72656164792068617320726f6c6500604482015290519081900360640190fd5b6001600160a01b0316600090815260209190915260409020805460ff19166001179055565b60006001600160a01b038216620003b0576040517f08c379a000000000000000000000000000000000000000000000000000000000815260040180806020018281038252602281526020018062004e436022913960400191505060405180910390fd5b506001600160a01b03166000908152602091909152604090205460ff1690565b828054600181600116156101000203166002900490600052602060002090601f016020900481019282601f106200041357805160ff191683800117855562000443565b8280016001018555821562000443579182015b828111156200044357825182559160200191906001019062000426565b506200045192915062000455565b5090565b6200025191905b808211156200045157600081556001016200045c565b6149c180620004826000396000f3fe6080604052600436106102675760003560e01c80636ebcf60711610144578063ac5dc637116100b6578063e3d670d71161007a578063e3d670d714610d29578063e51e2c1814610d5c578063e985e9c514610d92578063f5fcd7b814610dcd578063f6a83cf914610df9578063fcf84a2114610e3257610267565b8063ac5dc63714610b13578063b450f97914610b3d578063b88d4fde14610b76578063c87b56dd14610c47578063d9ed28b714610c7157610267565b806382dc1ec41161010857806382dc1ec41461097c5780638456cb59146109af5780638832e6e3146109c457806395d89b4114610a8a57806396680cd414610a9f578063a22cb46514610ad857610267565b80636ebcf607146108b45780636ef8d66d146108e757806370a08231146108fc5780637af74bb41461092f5780637f7f80de1461095257610267565b80633500e4a9116101dd5780634c3fb9ec116101a15780634c3fb9ec146106c45780634e06bad1146106ee5780635422ff6b146107275780635c975abb146107f45780636352211e146108095780636b7881d51461083357610267565b80633500e4a9146105e55780633902c3381461060f5780633f4ba83a1461063957806342842e0e1461064e57806346fbf68e1461069157610267565b806308aa83591161022f57806308aa8359146104b9578063095ea7b3146104f25780631133a8231461052b5780631bae137b1461055557806323b872dd1461057f5780632bd89b56146105c257610267565b806301ffc9a7146102a057806304cd0b2a146102e857806305f7fb61146103c357806306fdde03146103e9578063081812fc14610473575b60405162461bcd60e51b81526004018080602001828103825260218152602001806146e26021913960400191505060405180910390fd5b005b3480156102ac57600080fd5b506102d4600480360360208110156102c357600080fd5b50356001600160e01b031916610e68565b604080519115158252519081900360200190f35b6103b1600480360360a08110156102fe57600080fd5b6001600160a01b03823581169260208101359091169160408201359160608101359181019060a081016080820135600160201b81111561033d57600080fd5b82018360208201111561034f57600080fd5b803590602001918460018302840111600160201b8311171561037057600080fd5b91908080601f016020809104026020016040519081016040528093929190818152602001838380828437600092019190915250929550610e8b945050505050565b60408051918252519081900360200190f35b61029e600480360360208110156103d957600080fd5b50356001600160a01b0316610eba565b3480156103f557600080fd5b506103fe610f0d565b6040805160208082528351818301528351919283929083019185019080838360005b83811015610438578181015183820152602001610420565b50505050905090810190601f1680156104655780820380516001836020036101000a031916815260200191505b509250505060405180910390f35b34801561047f57600080fd5b5061049d6004803603602081101561049657600080fd5b5035610fa4565b604080516001600160a01b039092168252519081900360200190f35b3480156104c557600080fd5b5061029e600480360360408110156104dc57600080fd5b50803590602001356001600160a01b0316611006565b3480156104fe57600080fd5b5061029e6004803603604081101561051557600080fd5b506001600160a01b0381351690602001356111f0565b34801561053757600080fd5b5061029e6004803603602081101561054e57600080fd5b5035611318565b34801561056157600080fd5b506103b16004803603602081101561057857600080fd5b5035611406565b34801561058b57600080fd5b5061029e600480360360608110156105a257600080fd5b506001600160a01b03813581169160208101359091169060400135611465565b61029e600480360360408110156105d857600080fd5b50803590602001356114c1565b3480156105f157600080fd5b5061029e6004803603602081101561060857600080fd5b5035611547565b34801561061b57600080fd5b5061029e6004803603602081101561063257600080fd5b5035611848565b34801561064557600080fd5b5061029e61193e565b34801561065a57600080fd5b5061029e6004803603606081101561067157600080fd5b506001600160a01b03813581169160208101359091169060400135611a27565b34801561069d57600080fd5b506102d4600480360360208110156106b457600080fd5b50356001600160a01b0316611a42565b3480156106d057600080fd5b5061049d600480360360208110156106e757600080fd5b5035611a55565b3480156106fa57600080fd5b5061029e6004803603604081101561071157600080fd5b506001600160a01b038135169060200135611a70565b34801561073357600080fd5b506103b16004803603608081101561074a57600080fd5b6001600160a01b038235169160208101359160408201359190810190608081016060820135600160201b81111561078057600080fd5b82018360208201111561079257600080fd5b803590602001918460018302840111600160201b831117156107b357600080fd5b91908080601f016020809104026020016040519081016040528093929190818152602001838380828437600092019190915250929550611bf9945050505050565b34801561080057600080fd5b506102d4611e67565b34801561081557600080fd5b5061049d6004803603602081101561082c57600080fd5b5035611e70565b34801561083f57600080fd5b5061085d6004803603602081101561085657600080fd5b5035611ec4565b604080516001600160a01b03909a168a5260208a0198909852888801969096526060880194909452608087019290925260a0860152151560c0850152151560e0840152151561010083015251908190036101200190f35b3480156108c057600080fd5b506103b1600480360360208110156108d757600080fd5b50356001600160a01b0316611f30565b3480156108f357600080fd5b5061029e611f42565b34801561090857600080fd5b506103b16004803603602081101561091f57600080fd5b50356001600160a01b0316611f54565b61029e6004803603604081101561094557600080fd5b5080359060200135611fbc565b34801561095e57600080fd5b506103b16004803603602081101561097557600080fd5b503561229a565b34801561098857600080fd5b5061029e6004803603602081101561099f57600080fd5b50356001600160a01b031661231e565b3480156109bb57600080fd5b5061029e61236d565b3480156109d057600080fd5b506102d4600480360360608110156109e757600080fd5b6001600160a01b0382351691602081013591810190606081016040820135600160201b811115610a1657600080fd5b820183602082011115610a2857600080fd5b803590602001918460018302840111600160201b83111715610a4957600080fd5b91908080601f01602080910402602001604051908101604052809392919081815260200183838082843760009201919091525092955061242f945050505050565b348015610a9657600080fd5b506103fe612446565b348015610aab57600080fd5b5061029e60048036036040811015610ac257600080fd5b50803590602001356001600160a01b03166124a7565b348015610ae457600080fd5b5061029e60048036036040811015610afb57600080fd5b506001600160a01b03813516906020013515156125b8565b348015610b1f57600080fd5b5061029e60048036036020811015610b3657600080fd5b50356126bd565b348015610b4957600080fd5b506102d460048036036040811015610b6057600080fd5b506001600160a01b038135169060200135612877565b348015610b8257600080fd5b5061029e60048036036080811015610b9957600080fd5b6001600160a01b03823581169260208101359091169160408201359190810190608081016060820135600160201b811115610bd357600080fd5b820183602082011115610be557600080fd5b803590602001918460018302840111600160201b83111715610c0657600080fd5b91908080601f0160208091040260200160405190810160405280939291908181526020018383808284376000920191909152509295506128ad945050505050565b348015610c5357600080fd5b506103fe60048036036020811015610c6a57600080fd5b503561290b565b348015610c7d57600080fd5b5061029e60048036036040811015610c9457600080fd5b81359190810190604081016020820135600160201b811115610cb557600080fd5b820183602082011115610cc757600080fd5b803590602001918460018302840111600160201b83111715610ce857600080fd5b91908080601f0160208091040260200160405190810160405280939291908181526020018383808284376000920191909152509295506129f0945050505050565b348015610d3557600080fd5b506103b160048036036020811015610d4c57600080fd5b50356001600160a01b0316612af6565b348015610d6857600080fd5b5061029e60048036036060811015610d7f57600080fd5b5080359060208101359060400135612b11565b348015610d9e57600080fd5b506102d460048036036040811015610db557600080fd5b506001600160a01b0381358116916020013516612d8a565b61029e60048036036040811015610de357600080fd5b506001600160a01b038135169060200135612db8565b348015610e0557600080fd5b506102d460048036036040811015610e1c57600080fd5b506001600160a01b038135169060200135613049565b348015610e3e57600080fd5b5061029e60048036036060811015610e5557600080fd5b50803590602081013590604001356130d1565b6001600160e01b0319811660009081526020819052604090205460ff165b919050565b600080610e9a87868686611bf9565b9050610ea68187611006565b610eb081346114c1565b9695505050505050565b600a5460ff1615610f00576040805162461bcd60e51b815260206004820152601060248201526000805160206148a7833981519152604482015290519081900360640190fd5b610f0a8134613334565b50565b60058054604080516020601f6002600019610100600188161502019095169490940493840181900481028201810190925282815260609390929091830182828015610f995780601f10610f6e57610100808354040283529160200191610f99565b820191906000526020600020905b815481529060010190602001808311610f7c57829003601f168201915b505050505090505b90565b6000610faf82613340565b610fea5760405162461bcd60e51b815260040180806020018281038252602c81526020018061476e602c913960400191505060405180910390fd5b506000908152600260205260409020546001600160a01b031690565b600a5460ff161561104c576040805162461bcd60e51b815260206004820152601060248201526000805160206148a7833981519152604482015290519081900360640190fd5b81600d818154811061105a57fe5b906000526020600020906007020160040154600014806110fc575061107d61335d565b6110fa600d838154811061108d57fe5b9060005260206000209060070201600301546110ee600d85815481106110af57fe5b906000526020600020906007020160050154600d86815481106110ce57fe5b90600052602060002090600702016004015461336190919063ffffffff16565b9063ffffffff61336116565b115b6111375760405162461bcd60e51b815260040180806020018281038252602b8152602001806145a6602b913960400191505060405180910390fd5b826111423382613049565b61117d5760405162461bcd60e51b81526004018080602001828103825260258152602001806149686025913960400191505060405180910390fd5b611186846133c2565b82600d858154811061119457fe5b6000918252602082206007919091020180546001600160a01b0319166001600160a01b039384161790556040519185169186917f83427b902c0b29e25648733d627e1d00c64884af894a246782f8846e728f617191a350505050565b60006111fb82611e70565b9050806001600160a01b0316836001600160a01b0316141561124e5760405162461bcd60e51b81526004018080602001828103825260218152602001806148626021913960400191505060405180910390fd5b806001600160a01b0316611260613416565b6001600160a01b0316148061128157506112818161127c613416565b612d8a565b6112bc5760405162461bcd60e51b81526004018080602001828103825260388152602001806146276038913960400191505060405180910390fd5b60008281526002602052604080822080546001600160a01b0319166001600160a01b0387811691821790925591518593918516917f8c5be1e5ebec7d5bd14f71427d1e84f3dd0314c0f7b2291e5b200ac8c7c3b92591a4505050565b600a5460ff161561135e576040805162461bcd60e51b815260206004820152601060248201526000805160206148a7833981519152604482015290519081900360640190fd5b806113693382613049565b6113a45760405162461bcd60e51b81526004018080602001828103825260258152602001806149686025913960400191505060405180910390fd5b6000828152600b60205260409020546001600160a01b03166113f75760405162461bcd60e51b815260040180806020018281038252602f8152602001806143bd602f913960400191505060405180910390fd5b61140282600061341a565b5050565b600a5460009060ff161561144f576040805162461bcd60e51b815260206004820152601060248201526000805160206148a7833981519152604482015290519081900360640190fd5b61145f600d838154811061108d57fe5b92915050565b611476611470613416565b82613448565b6114b15760405162461bcd60e51b81526004018080602001828103825260318152602001806148f56031913960400191505060405180910390fd5b6114bc8383836134e4565b505050565b81600d81815481106114cf57fe5b906000526020600020906007020160060160029054906101000a900460ff161561152a5760405162461bcd60e51b815260040180806020018281038252602e8152602001806148c7602e913960400191505060405180910390fd5b61153333610eba565b61153d8383613628565b6114bc3383613668565b600a5460ff161561158d576040805162461bcd60e51b815260206004820152601060248201526000805160206148a7833981519152604482015290519081900360640190fd5b806115983382613049565b6115d35760405162461bcd60e51b81526004018080602001828103825260258152602001806149686025913960400191505060405180910390fd5b81600d81815481106115e157fe5b600091825260209091206006600790920201015460ff16156116345760405162461bcd60e51b815260040180806020018281038252602c8152602001806145fb602c913960400191505060405180910390fd5b82600d818154811061164257fe5b906000526020600020906007020160060160029054906101000a900460ff161561169d5760405162461bcd60e51b815260040180806020018281038252602e8152602001806148c7602e913960400191505060405180910390fd5b600d84815481106116aa57fe5b600091825260209091206006600790920201015460ff1615611713576040805162461bcd60e51b815260206004820152601860248201527f636c61696d2063616e6e6f742062652072656465656d65640000000000000000604482015290519081900360640190fd5b6001600d858154811061172257fe5b600091825260209182902060079190910201600601805460ff191692151592909217909155604080516331a9108f60e11b81526004810187905290513092636352211e9260248082019391829003018186803b15801561178157600080fd5b505afa158015611795573d6000803e3d6000fd5b505050506040513d60208110156117ab57600080fd5b5051600d80546001600160a01b0390921691869081106117c757fe5b6000918252602090912060079091020154600d80546001600160a01b039092169187917f86afadddfa6b10e828fc109ac8196b8c78522a657e58f037d3f11aa1df04df81918390811061181657fe5b6000918252602091829020600660079092020101546040805160ff90921615158252519081900390910190a450505050565b600a5460ff161561188e576040805162461bcd60e51b815260206004820152601060248201526000805160206148a7833981519152604482015290519081900360640190fd5b806118993382613049565b6118d45760405162461bcd60e51b81526004018080602001828103825260258152602001806149686025913960400191505060405180910390fd5b81600d81815481106118e257fe5b600091825260209091206006600790920201015460ff16156119355760405162461bcd60e51b815260040180806020018281038252602c8152602001806145fb602c913960400191505060405180910390fd5b6114bc83613674565b61194e611949613416565b611a42565b6119895760405162461bcd60e51b81526004018080602001828103825260308152602001806144456030913960400191505060405180910390fd5b600a5460ff166119d7576040805162461bcd60e51b815260206004820152601460248201527314185d5cd8589b194e881b9bdd081c185d5cd95960621b604482015290519081900360640190fd5b600a805460ff191690557f5db9ee0a495bf2e6ff9c91a7834c1ba4fdd244a5e8aa4e537bd38aeae4b073aa611a0a613416565b604080516001600160a01b039092168252519081900360200190a1565b6114bc838383604051806020016040528060008152506128ad565b600061145f60098363ffffffff61388c16565b600b602052600090815260409020546001600160a01b031681565b6008805460010190819055600a5460ff1615611ac1576040805162461bcd60e51b815260206004820152601060248201526000805160206148a7833981519152604482015290519081900360640190fd5b336000908152600c60205260409020548280821015611b115760405162461bcd60e51b81526004018080602001828103825260248152602001806148836024913960400191505060405180910390fd5b33856001600160a01b038116611b245750805b611b2e8287613668565b611b476001600160a01b0382168763ffffffff6138f316565b6001600160a01b038281166000818152600c60209081526040918290205482518b8152918201528151938516937f91fb9d98b786c57d74c099ccd2beca1739e9f6a81fb49001ca465c4b7591bbe2929181900390910190a35050505060085481146114bc576040805162461bcd60e51b815260206004820152601f60248201527f5265656e7472616e637947756172643a207265656e7472616e742063616c6c00604482015290519081900360640190fd5b600a5460009060ff1615611c42576040805162461bcd60e51b815260206004820152601060248201526000805160206148a7833981519152604482015290519081900360640190fd5b600d5464174876e8008410611c885760405162461bcd60e51b81526004018080602001828103825260278152602001806143ec6027913960400191505060405180910390fd5b611c9286826139d9565b825115611ca357611ca381846139f3565b60408051610120810182526001600160a01b038881168252600060208301818152938301898152606084018981526080850183815260a0860184815260c0870185815260e08801868152610100808a01888152600d8054600181018255995299517fd7b6990105719101dabeb77144f2a3385c8033acd3af97e9423a695e81ad1eb5600790990298890180546001600160a01b03191691909a161790985598517fd7b6990105719101dabeb77144f2a3385c8033acd3af97e9423a695e81ad1eb687015593517fd7b6990105719101dabeb77144f2a3385c8033acd3af97e9423a695e81ad1eb786015591517fd7b6990105719101dabeb77144f2a3385c8033acd3af97e9423a695e81ad1eb8850155517fd7b6990105719101dabeb77144f2a3385c8033acd3af97e9423a695e81ad1eb9840155517fd7b6990105719101dabeb77144f2a3385c8033acd3af97e9423a695e81ad1eba830155517fd7b6990105719101dabeb77144f2a3385c8033acd3af97e9423a695e81ad1ebb90910180549451935160ff19959095169115159190911761ff0019169215159091029190911762ff00001916620100009215159290920291909117905590505b949350505050565b600a5460ff1690565b6000818152600160205260408120546001600160a01b03168061145f5760405162461bcd60e51b81526004018080602001828103825260298152602001806146b96029913960400191505060405180910390fd5b600d8181548110611ed157fe5b600091825260209091206007909102018054600182015460028301546003840154600485015460058601546006909601546001600160a01b039095169650929491939092919060ff808216916101008104821691620100009091041689565b600c6020526000908152604090205481565b611f52611f4d613416565b613a56565b565b60006001600160a01b038216611f9b5760405162461bcd60e51b815260040180806020018281038252602a81526020018061468f602a913960400191505060405180910390fd5b6001600160a01b038216600090815260036020526040902061145f90613a9e565b600a5460ff1615612002576040805162461bcd60e51b815260206004820152601060248201526000805160206148a7833981519152604482015290519081900360640190fd5b81600d818154811061201057fe5b600091825260209091206006600790920201015460ff16156120635760405162461bcd60e51b815260040180806020018281038252602c8152602001806145fb602c913960400191505060405180910390fd5b82600d818154811061207157fe5b906000526020600020906007020160060160029054906101000a900460ff16156120cc5760405162461bcd60e51b815260040180806020018281038252602e8152602001806148c7602e913960400191505060405180910390fd5b6000600d85815481106120db57fe5b60009182526020808320888452600b909152604090922054600790910290910191506001600160a01b031633146121435760405162461bcd60e51b815260040180806020018281038252603f81526020018061437e603f913960400191505060405180910390fd5b6000612152346110ee33612af6565b905081600101548110156121975760405162461bcd60e51b815260040180806020018281038252603081526020018061465f6030913960400191505060405180910390fd5b81600101548510156121da5760405162461bcd60e51b815260040180806020018281038252602a8152602001806145d1602a913960400191505060405180910390fd5b6000306001600160a01b0316636352211e886040518263ffffffff1660e01b81526004018082815260200191505060206040518083038186803b15801561222057600080fd5b505afa158015612234573d6000803e3d6000fd5b505050506040513d602081101561224a57600080fd5b5051600184015490915061225f908290613334565b6000600184015561227087876114c1565b61227b813389611465565b6122868160006125b8565b61229187600061341a565b50505050505050565b600a5460009060ff16156122e3576040805162461bcd60e51b815260206004820152601060248201526000805160206148a7833981519152604482015290519081900360640190fd5b60006122ee83611406565b905060006122fa61335d565b905080821161230e57600092505050610e86565b611e5f828263ffffffff613aa216565b612329611949613416565b6123645760405162461bcd60e51b81526004018080602001828103825260308152602001806144456030913960400191505060405180910390fd5b610f0a81613ae4565b612378611949613416565b6123b35760405162461bcd60e51b81526004018080602001828103825260308152602001806144456030913960400191505060405180910390fd5b600a5460ff16156123f9576040805162461bcd60e51b815260206004820152601060248201526000805160206148a7833981519152604482015290519081900360640190fd5b600a805460ff191660011790557f62e78cea01bee320cd4e420270b5ea74000d11b0c9f74754ebdbfc544b05a258611a0a613416565b600061243c848484613b2c565b5060019392505050565b60068054604080516020601f6002600019610100600188161502019095169490940493840181900481028201810190925282815260609390929091830182828015610f995780601f10610f6e57610100808354040283529160200191610f99565b600a5460ff16156124ed576040805162461bcd60e51b815260206004820152601060248201526000805160206148a7833981519152604482015290519081900360640190fd5b816124f83382613049565b6125335760405162461bcd60e51b81526004018080602001828103825260258152602001806149686025913960400191505060405180910390fd5b6000838152600b60205260409020546001600160a01b0316156125875760405162461bcd60e51b815260040180806020018281038252603a81526020018061449f603a913960400191505060405180910390fd5b6000838152600b6020526040902080546001600160a01b0319166001600160a01b0384161790556114bc82846111f0565b6125c0613416565b6001600160a01b0316826001600160a01b03161415612626576040805162461bcd60e51b815260206004820152601960248201527f4552433732313a20617070726f766520746f2063616c6c657200000000000000604482015290519081900360640190fd5b8060046000612633613416565b6001600160a01b03908116825260208083019390935260409182016000908120918716808252919093529120805460ff191692151592909217909155612677613416565b60408051841515815290516001600160a01b0392909216917f17307eab39ab6107e8899845ad3d59bd9653f200f220920489ca2b5937696c319181900360200190a35050565b600a5460ff1615612703576040805162461bcd60e51b815260206004820152601060248201526000805160206148a7833981519152604482015290519081900360640190fd5b8061270e3382612877565b6127495760405162461bcd60e51b81526004018080602001828103825260298152602001806147246029913960400191505060405180910390fd5b81600d818154811061275757fe5b906000526020600020906007020160060160029054906101000a900460ff16156127b25760405162461bcd60e51b815260040180806020018281038252602e8152602001806148c7602e913960400191505060405180910390fd5b61284a306001600160a01b0316636352211e856040518263ffffffff1660e01b81526004018082815260200191505060206040518083038186803b1580156127f957600080fd5b505afa15801561280d573d6000803e3d6000fd5b505050506040513d602081101561282357600080fd5b5051600d80548690811061283357fe5b906000526020600020906007020160010154613334565b6000600d848154811061285957fe5b9060005260206000209060070201600101819055506114bc83613674565b6000600d828154811061288657fe5b60009182526020909120600790910201546001600160a01b03848116911614905092915050565b6128be6128b8613416565b83613448565b6128f95760405162461bcd60e51b81526004018080602001828103825260318152602001806148f56031913960400191505060405180910390fd5b61290584848484613b7e565b50505050565b606061291682613340565b6129515760405162461bcd60e51b815260040180806020018281038252602f815260200180614811602f913960400191505060405180910390fd5b60008281526007602090815260409182902080548351601f6002600019610100600186161502019093169290920491820184900484028101840190945280845290918301828280156129e45780601f106129b9576101008083540402835291602001916129e4565b820191906000526020600020905b8154815290600101906020018083116129c757829003601f168201915b50505050509050919050565b816129fb3382613049565b80612a0b5750612a0b3382612877565b612a465760405162461bcd60e51b81526004018080602001828103825260428152602001806149266042913960600191505060405180910390fd5b8151156114bc57336001600160a01b0316837f71b085e84d048f4eaadafa2a9c62e0a1e4dfc78167cf39bef193d29cd869b96d846040518080602001828103825283818151815260200191508051906020019080838360005b83811015612ab7578181015183820152602001612a9f565b50505050905090810190601f168015612ae45780820380516001836020036101000a031916815260200191505b509250505060405180910390a3505050565b6001600160a01b03166000908152600c602052604090205490565b600a5460ff1615612b57576040805162461bcd60e51b815260206004820152601060248201526000805160206148a7833981519152604482015290519081900360640190fd5b82612b623382612877565b612b9d5760405162461bcd60e51b81526004018080602001828103825260298152602001806147246029913960400191505060405180910390fd5b83600d8181548110612bab57fe5b906000526020600020906007020160060160029054906101000a900460ff1615612c065760405162461bcd60e51b815260040180806020018281038252602e8152602001806148c7602e913960400191505060405180910390fd5b84600d8181548110612c1457fe5b600091825260209091206006600790920201015460ff1615612c675760405162461bcd60e51b815260040180806020018281038252602c8152602001806145fb602c913960400191505060405180910390fd5b612c7c856110ee86600d8a815481106110ce57fe5b600d8781548110612c8957fe5b90600052602060002090600702016004015480821015612cda5760405162461bcd60e51b81526004018080602001828103825260248152602001806148836024913960400191505060405180910390fd5b612d0b86600d8a81548110612ceb57fe5b90600052602060002090600702016005015461336190919063ffffffff16565b600d8981548110612d1857fe5b906000526020600020906007020160050181905550612d5e87600d8a81548110612d3e57fe5b90600052602060002090600702016003015461336190919063ffffffff16565b600d8981548110612d6b57fe5b9060005260206000209060070201600301819055505050505050505050565b6001600160a01b03918216600090815260046020908152604080832093909416825291909152205460ff1690565b600a5460ff1615612dfe576040805162461bcd60e51b815260206004820152601060248201526000805160206148a7833981519152604482015290519081900360640190fd5b80612e093382612877565b612e445760405162461bcd60e51b81526004018080602001828103825260298152602001806147246029913960400191505060405180910390fd5b82826001600160a01b03821615612e9a57612e5f8282613049565b612e9a5760405162461bcd60e51b815260040180806020018281038252602a815260200180614475602a913960400191505060405180910390fd5b6000600d8581548110612ea957fe5b906000526020600020906007020190506000612ec433612af6565b9050612ed03382613668565b6000612eed826110ee34866001015461336190919063ffffffff16565b90508260020154811015612f325760405162461bcd60e51b81526004018080602001828103825260438152602001806144d96043913960600191505060405180910390fd5b612f5233612f4d856002015484613aa290919063ffffffff16565b613334565b612fcf306001600160a01b0316636352211e896040518263ffffffff1660e01b81526004018082815260200191505060206040518083038186803b158015612f9957600080fd5b505afa158015612fad573d6000803e3d6000fd5b505050506040513d6020811015612fc357600080fd5b50516002850154613334565b612fda876000613bd0565b60068301805461ff00191661010017908190556040805160ff9290921615158252516001600160a01b038a169133918a917f9f9c8663145ded983e086a2f32f250e210c222b9f010730fe0075613215e07cb919081900360200190a461303f87613674565b5050505050505050565b6000306001600160a01b0316636352211e836040518263ffffffff1660e01b81526004018082815260200191505060206040518083038186803b15801561308f57600080fd5b505afa1580156130a3573d6000803e3d6000fd5b505050506040513d60208110156130b957600080fd5b50516001600160a01b03848116911614905092915050565b600a5460ff1615613117576040805162461bcd60e51b815260206004820152601060248201526000805160206148a7833981519152604482015290519081900360640190fd5b826131223382613049565b8061313257506131323382612877565b61316d5760405162461bcd60e51b81526004018080602001828103825260428152602001806149266042913960600191505060405180910390fd5b600d848154811061317a57fe5b600091825260209091206006600790920201015460ff166131cc5760405162461bcd60e51b81526004018080602001828103825260228152602001806148406022913960400191505060405180910390fd5b6000600d85815481106131db57fe5b600091825260209182902060079190910201600601805460ff191692151592909217909155604080516331a9108f60e11b81526004810187905290513092636352211e9260248082019391829003018186803b15801561323a57600080fd5b505afa15801561324e573d6000803e3d6000fd5b505050506040513d602081101561326457600080fd5b5051600d80546001600160a01b03909216918690811061328057fe5b6000918252602090912060079091020154600d80546001600160a01b039092169187917f86afadddfa6b10e828fc109ac8196b8c78522a657e58f037d3f11aa1df04df8191839081106132cf57fe5b6000918252602091829020600660079092020101546040805160ff90921615158252519081900390910190a4600d848154811061330857fe5b60009182526020909120600790910201546001600160a01b031633141561290557612905848484612b11565b61140282826000613c54565b6000908152600160205260409020546001600160a01b0316151590565b4290565b6000828201838110156133bb576040805162461bcd60e51b815260206004820152601b60248201527f536166654d6174683a206164646974696f6e206f766572666c6f770000000000604482015290519081900360640190fd5b9392505050565b600d81815481106133cf57fe5b90600052602060002090600702016004015460001415610f0a576133f161335d565b600d82815481106133fe57fe5b90600052602060002090600702016004018190555050565b3390565b6000918252600b602052604090912080546001600160a01b0319166001600160a01b03909216919091179055565b600061345382613340565b61348e5760405162461bcd60e51b815260040180806020018281038252602c81526020018061457a602c913960400191505060405180910390fd5b600061349983611e70565b9050806001600160a01b0316846001600160a01b031614806134d45750836001600160a01b03166134c984610fa4565b6001600160a01b0316145b80611e5f5750611e5f8185612d8a565b826001600160a01b03166134f782611e70565b6001600160a01b03161461353c5760405162461bcd60e51b81526004018080602001828103825260298152602001806147e86029913960400191505060405180910390fd5b6001600160a01b0382166135815760405162461bcd60e51b815260040180806020018281038252602481526020018061451c6024913960400191505060405180910390fd5b61358a81613d4c565b6001600160a01b03831660009081526003602052604090206135ab90613d87565b6001600160a01b03821660009081526003602052604090206135cc90613d9e565b60008181526001602052604080822080546001600160a01b0319166001600160a01b0386811691821790925591518493918716917fddf252ad1be2c89b69c2b068fc378daa952ba7f163c4a11628f55a4df523b3ef91a4505050565b8015611402576114028261366383600d868154811061364357fe5b90600052602060002090600702016001015461336190919063ffffffff16565b613bd0565b61140282826001613c54565b80600d818154811061368257fe5b906000526020600020906007020160060160029054906101000a900460ff16156136dd5760405162461bcd60e51b815260040180806020018281038252602e8152602001806148c7602e913960400191505060405180910390fd5b6000600d83815481106136ec57fe5b906000526020600020906007020190508060060160019054906101000a900460ff1615801561371e5750600181015415155b1561383c5760006137426137318561229a565b60038401549063ffffffff613aa216565b90506000613799836003015461378d613768858760010154613da790919063ffffffff16565b600387015460018801546137819163ffffffff613da716565b9063ffffffff613aa216565b9063ffffffff613e0016565b9050613814306001600160a01b0316636352211e876040518263ffffffff1660e01b81526004018082815260200191505060206040518083038186803b1580156137e257600080fd5b505afa1580156137f6573d6000803e3d6000fd5b505050506040513d602081101561380c57600080fd5b505182613334565b82546001840154613839916001600160a01b031690612f4d908463ffffffff613aa216565b50505b60068101805462ff000019166201000017905561385a836000613bd0565b604051339084907f44a06e0195686640a65c731706ddc3739d11ddc6fa9517ce5a4aec790e2eb03790600090a3505050565b60006001600160a01b0382166138d35760405162461bcd60e51b81526004018080602001828103825260228152602001806147c66022913960400191505060405180910390fd5b506001600160a01b03166000908152602091909152604090205460ff1690565b3031811115613949576040805162461bcd60e51b815260206004820152601d60248201527f416464726573733a20696e73756666696369656e742062616c616e6365000000604482015290519081900360640190fd5b6040516000906001600160a01b0384169083908381818185875af1925050503d8060008114613994576040519150601f19603f3d011682016040523d82523d6000602084013e613999565b606091505b50509050806114bc5760405162461bcd60e51b815260040180806020018281038252603a815260200180614540603a913960400191505060405180910390fd5b611402828260405180602001604052806000815250613b2c565b6139fc82613340565b613a375760405162461bcd60e51b815260040180806020018281038252602c81526020018061479a602c913960400191505060405180910390fd5b600082815260076020908152604090912082516114bc928401906142e5565b613a6760098263ffffffff613e4216565b6040516001600160a01b038216907fcd265ebaf09df2871cc7bd4133404a235ba12eff2041bb89d9c714a2621c7c7e90600090a250565b5490565b60006133bb83836040518060400160405280601e81526020017f536166654d6174683a207375627472616374696f6e206f766572666c6f770000815250613ea9565b613af560098263ffffffff613f4016565b6040516001600160a01b038216907f6719d08c1888103bea251a4ed56406bd0c3e69723c8a1686e017e7bbe159b6f890600090a250565b613b368383613fc1565b613b4360008484846140f2565b6114bc5760405162461bcd60e51b81526004018080602001828103825260328152602001806144136032913960400191505060405180910390fd5b613b898484846134e4565b613b95848484846140f2565b6129055760405162461bcd60e51b81526004018080602001828103825260328152602001806144136032913960400191505060405180910390fd5b80600d8381548110613bde57fe5b906000526020600020906007020160010154146114025780600d8381548110613c0357fe5b906000526020600020906007020160010181905550817f9cb6070e4e6933d173cce37f39b46799295f49a5148d3713bbd9caab39b696b4826040518082815260200191505060405180910390a25050565b81613c5e576114bc565b8015613cab576001600160a01b0383166000908152600c6020526040902054613c8d908363ffffffff613aa216565b6001600160a01b0384166000908152600c6020526040902055613cee565b6001600160a01b0383166000908152600c6020526040902054613cd4908363ffffffff61336116565b6001600160a01b0384166000908152600c60205260409020555b6001600160a01b0383166000818152600c6020908152604091829020548251868152918201528315158183015290517f7d016f8eb7665cdc83ca6289966f4c4c45a0b3e2add7bd7952ebb8aca1831d019181900360600190a2505050565b6000818152600260205260409020546001600160a01b031615610f0a57600090815260026020526040902080546001600160a01b0319169055565b8054613d9a90600163ffffffff613aa216565b9055565b80546001019055565b600082613db65750600061145f565b82820282848281613dc357fe5b04146133bb5760405162461bcd60e51b815260040180806020018281038252602181526020018061474d6021913960400191505060405180910390fd5b60006133bb83836040518060400160405280601a81526020017f536166654d6174683a206469766973696f6e206279207a65726f000000000000815250614249565b613e4c828261388c565b613e875760405162461bcd60e51b81526004018080602001828103825260218152602001806147036021913960400191505060405180910390fd5b6001600160a01b0316600090815260209190915260409020805460ff19169055565b60008184841115613f385760405162461bcd60e51b81526004018080602001828103825283818151815260200191508051906020019080838360005b83811015613efd578181015183820152602001613ee5565b50505050905090810190601f168015613f2a5780820380516001836020036101000a031916815260200191505b509250505060405180910390fd5b505050900390565b613f4a828261388c565b15613f9c576040805162461bcd60e51b815260206004820152601f60248201527f526f6c65733a206163636f756e7420616c72656164792068617320726f6c6500604482015290519081900360640190fd5b6001600160a01b0316600090815260209190915260409020805460ff19166001179055565b6001600160a01b03821661401c576040805162461bcd60e51b815260206004820181905260248201527f4552433732313a206d696e7420746f20746865207a65726f2061646472657373604482015290519081900360640190fd5b61402581613340565b15614077576040805162461bcd60e51b815260206004820152601c60248201527f4552433732313a20746f6b656e20616c7265616479206d696e74656400000000604482015290519081900360640190fd5b600081815260016020908152604080832080546001600160a01b0319166001600160a01b0387169081179091558352600390915290206140b690613d9e565b60405181906001600160a01b038416906000907fddf252ad1be2c89b69c2b068fc378daa952ba7f163c4a11628f55a4df523b3ef908290a45050565b6000614106846001600160a01b03166142ae565b61411257506001611e5f565b6000846001600160a01b031663150b7a0261412b613416565b8887876040518563ffffffff1660e01b815260040180856001600160a01b03166001600160a01b03168152602001846001600160a01b03166001600160a01b0316815260200183815260200180602001828103825283818151815260200191508051906020019080838360005b838110156141b0578181015183820152602001614198565b50505050905090810190601f1680156141dd5780820380516001836020036101000a031916815260200191505b5095505050505050602060405180830381600087803b1580156141ff57600080fd5b505af1158015614213573d6000803e3d6000fd5b505050506040513d602081101561422957600080fd5b50516001600160e01b031916630a85bd0160e11b14915050949350505050565b600081836142985760405162461bcd60e51b8152602060048201818152835160248401528351909283926044909101919085019080838360008315613efd578181015183820152602001613ee5565b5060008385816142a457fe5b0495945050505050565b6000813f7fc5d2460186f7233c927e7db2dcc703c0e500b653ca82273b7bfad8045d85a4708115801590611e5f5750141592915050565b828054600181600116156101000203166002900490600052602060002090601f016020900481019282601f1061432657805160ff1916838001178555614353565b82800160010185558215614353579182015b82811115614353578251825591602001919060010190614338565b5061435f929150614363565b5090565b610fa191905b8082111561435f576000815560010161436956fe756e61626c6520746f2068616e64206f666620636c61696d20756e6c65737320697420697320666972737420706f7374656420666f72207472616e736665726f6e6c7920636c61696d73207468617420617265206265696e6720736f6c642063616e206265206465706f73746564657870697265732061667465722076616c75652063616e6e6f7420626520746f6f206c617267654552433732313a207472616e7366657220746f206e6f6e20455243373231526563656976657220696d706c656d656e746572506175736572526f6c653a2063616c6c657220646f6573206e6f742068617665207468652050617573657220726f6c656d75737420626520776f726b696e6720776974682074686520636f72726563742077617272616e7465656f6e6c7920636c61696d73207468617420617265206e6f74206265696e6720736f6c642063616e2062652070757420757020666f722073616c65636c61696d2063616e206f6e6c792062652066756c6c66696c6c656420666f7220746865206f726967696e616c206167726565642075706f6e2076616c756174696f6e4552433732313a207472616e7366657220746f20746865207a65726f2061646472657373416464726573733a20756e61626c6520746f2073656e642076616c75652c20726563697069656e74206d617920686176652072657665727465644552433732313a206f70657261746f7220717565727920666f72206e6f6e6578697374656e7420746f6b656e6f6e6c79206e6f6e206578706972656420636c61696d732063616e207573652074686973206d6574686f64636c61696d206d7573742070726573657276652063757272656e746c79206261636b65642076616c75656f6e6c79206e6f6e2072656465656d656420636c61696d732063616e207573652074686973206d6574686f644552433732313a20617070726f76652063616c6c6572206973206e6f74206f776e6572206e6f7220617070726f76656420666f7220616c6c617661696c61626c6520637265646974206d757374206d656574206f722065786365656420636c61696d2076616c75654552433732313a2062616c616e636520717565727920666f7220746865207a65726f20616464726573734552433732313a206f776e657220717565727920666f72206e6f6e6578697374656e7420746f6b656e66616c6c6261636b2066756e6374696f6e20757365206e6f7420616c6c6f776564526f6c65733a206163636f756e7420646f6573206e6f74206861766520726f6c6573656e646572206d757374206265207468652077617272616e746f72206f662074686520746f6b656e536166654d6174683a206d756c7469706c69636174696f6e206f766572666c6f774552433732313a20617070726f76656420717565727920666f72206e6f6e6578697374656e7420746f6b656e4552433732314d657461646174613a2055524920736574206f66206e6f6e6578697374656e7420746f6b656e526f6c65733a206163636f756e7420697320746865207a65726f20616464726573734552433732313a207472616e73666572206f6620746f6b656e2074686174206973206e6f74206f776e4552433732314d657461646174613a2055524920717565727920666f72206e6f6e6578697374656e7420746f6b656e6f6e6c7920612072656465656d656420636c61696d2063616e2062652072657365744552433732313a20617070726f76616c20746f2063757272656e74206f776e657261206d7573742062652067726561746572207468616e206f7220657175616c20746f20625061757361626c653a20706175736564000000000000000000000000000000006f6e6c79206e6f6e207465726d696e6174656420636c61696d732063616e207573652074686973206d6574686f644552433732313a207472616e736665722063616c6c6572206973206e6f74206f776e6572206e6f7220617070726f76656473656e646572206d757374206569746865722062652074686520746f6b656e206f776e6572202877617272616e74656529206f72207468652077617272616e746f7273656e646572206d75737420626520746865206f776e6572206f662074686520746f6b656ea265627a7a7231582069936082b14cd95f6f60db73f5aee0965c6b354686af91fae3df8b66967f88a264736f6c634300050c0032526f6c65733a206163636f756e7420697320746865207a65726f2061646472657373",
  "source": "pragma solidity >=0.4.21 <0.7.0;\n\nimport \"@openzeppelin/contracts/math/SafeMath.sol\";\nimport \"@openzeppelin/contracts/math/Math.sol\";\nimport \"@openzeppelin/contracts/utils/Address.sol\";\nimport \"@openzeppelin/contracts/token/ERC721/ERC721Metadata.sol\";\nimport \"@openzeppelin/contracts/utils/ReentrancyGuard.sol\";\nimport \"@openzeppelin/contracts/lifecycle/Pausable.sol\";\n\n/**\n * @title A digital relationship between two entities\n * @author Michael McLaughlin\n * @notice You can use this contract for basic warranties\n */\ncontract Warranty is ERC721Metadata, ReentrancyGuard, Pausable {\n  using SafeMath for uint256;\n  using Math for uint256;\n  using Address for address payable;\n\n  mapping(uint256 => address) public _pendingTransfer;\n  mapping(address => uint256) public _balances;\n\n  Claim[] public _claims;\n  struct Claim {\n    address warrantor;\n    uint256 value;\n    uint256 valuation;\n    uint256 expiresAfter;\n    uint256 activatedAt;\n    uint256 delayTime;\n    bool redeemed;\n    bool fulfilled;\n    bool terminated;\n  }\n\n  event BalanceUpdated(address indexed account, uint256 amount, uint256 balance, bool negative);\n  event Withdrawn(address indexed account, address indexed target, uint256 amount, uint256 balance);\n  event Redeemed(uint256 indexed tokenId, address indexed warrantor, address indexed warrantee, bool redeemed);\n  event Fulfilled(uint256 indexed tokenId, address indexed warrantor, address indexed warrantee, bool redeemed);\n  event Terminated(uint256 indexed tokenId, address indexed account);\n  event WarrantorshipChanged(uint256 indexed tokenId, address indexed warrantor);\n  event ClaimBalanceUpdated(uint256 indexed tokenId, uint256 value);\n  event NotesAppended(uint256 indexed tokenId, address indexed account, string notes);\n\n  constructor()\n    ERC721Metadata(\"Warrantee\", \"WRNT\")\n    ReentrancyGuard()\n    Pausable()\n    public\n  {}\n\n  function () external payable {\n    require(false, \"fallback function use not allowed\");\n  }\n\n  /**\n   * @notice Allows only the two entities to run operation\n   * @param tokenId uint256 ID is the token in question\n   */\n  modifier warranteeOrWarrantorOnly(uint256 tokenId) {\n    require((\n      isWarrantee(msg.sender, tokenId) ||\n      isWarrantor(msg.sender, tokenId)\n    ), \"sender must either be the token owner (warrantee) or the warrantor\");\n    _;\n  }\n  /**\n   * @notice Allows only the warrantee of a claim to operate\n   * @param tokenId uint256 ID is the token in question\n   */\n  modifier warranteeOnly(uint256 tokenId) {\n    require(isWarrantee(msg.sender, tokenId), \"sender must be the owner of the token\");\n    _;\n  }\n  /**\n   * @notice Allows only the warrantor of a claim to operate\n   * @param tokenId uint256 ID is the token in question\n   */\n  modifier warrantorOnly(uint256 tokenId) {\n    require(isWarrantor(msg.sender, tokenId), \"sender must be the warrantor of the token\");\n    _;\n  }\n  /**\n   * @notice Allows only non redeemed tokens to be operated upon\n   * @param tokenId uint256 ID is the token in question\n   */\n  modifier notRedeemedOnly(uint256 tokenId) {\n    require(!_claims[tokenId].redeemed, \"only non redeemed claims can use this method\");\n    _;\n  }\n  /**\n   * @notice Allows only non terminated tokens to be operated upon\n   * @param tokenId uint256 ID is the token in question\n   */\n  modifier notTerminatedOnly(uint256 tokenId) {\n    require(!_claims[tokenId].terminated, \"only non terminated claims can use this method\");\n    _;\n  }\n  /**\n   * @notice Allows only non expired tokens to be operated upon\n   * @param tokenId uint256 ID is the token in question\n   */\n  modifier notExpiredOnly(uint256 tokenId) {\n    require(\n      _claims[tokenId].activatedAt == 0 ||\n      _claims[tokenId].activatedAt.add(_claims[tokenId].delayTime).add(_claims[tokenId].expiresAfter) > timestamp(),\n      \"only non expired claims can use this method\"\n    );\n    _;\n  }\n  /**\n   * @notice Requires two values to be greater than or equal\n   * when compared to one another\n   * @param a uint256 is the first value, which must be greater than or equal to the second parameter\n   * @param b uint256 is the second value, which must be less than or equal to the first parameter\n   */\n  modifier greaterThanOrEqual(uint256 a, uint256 b) {\n    require(a >= b, \"a must be greater than or equal to b\");\n    _;\n  }\n  /**\n   * @notice Checks whether a given token is owned by a particular address\n   * @param warrantee address is the owner in question\n   * @param tokenId uint256 is the token in question\n   */\n  modifier checkWarranteeOf(address warrantee, uint256 tokenId) {\n    if (warrantee != address(0)) { // any owner is honored\n      require(isWarrantee(warrantee, tokenId), \"must be working with the correct warrantee\");\n    }\n    _;\n  }\n  /**\n   * @notice Makes sure that the account passed is the owner of the token\n   * @param account address is the address being checked against\n   * @param tokenId uint256 ID is the token in question\n   * @return matches as bool whether the account is indeed the owner of the token\n   */\n  function isWarrantee(address account, uint256 tokenId) public view returns(bool matches) {\n    return account == this.ownerOf(tokenId);\n  }\n  /**\n   * @notice Makes sure that the account passed is set as the token's warrantor\n   * @param account address is the address being checked against\n   * @param tokenId uint256 ID is the token in question\n   * @return matches as bool whether the account is indeed the warrantor of the token\n   */\n  function isWarrantor(address account, uint256 tokenId) public view returns(bool matches) {\n    return account == _claims[tokenId].warrantor;\n  }\n  function timestamp() internal view returns(uint256) {\n    return block.timestamp;\n  }\n  /**\n   * @notice Checks the balance of a given account\n   * @param account address to check the balance credited by the contract\n   * @return amount as uint256 as the balance credited to the account and available for withdrawal\n   */\n  function balance(address account) public view returns(uint256 amount) {\n    return _balances[account];\n  }\n  /**\n   * @notice Extend the timeline until the claim expires\n   * @param tokenId uint256 as the targeted token\n   * @param expiryTime uint256 as the amount of time to be added to the expiry time first set when the claim was created\n   * @param delayTime uint256 as the amount of time to be added to the delay time first set to zero\n   */\n  function extendClaimExpiration(uint256 tokenId, uint256 expiryTime, uint256 delayTime)\n    public\n    whenNotPaused\n    warrantorOnly(tokenId)\n    notTerminatedOnly(tokenId)\n    notRedeemedOnly(tokenId)\n    // ensure no overflow occurs\n    greaterThanOrEqual(_claims[tokenId].activatedAt.add(delayTime).add(expiryTime), _claims[tokenId].activatedAt)\n  {\n    _claims[tokenId].delayTime = _claims[tokenId].delayTime.add(delayTime);\n    _claims[tokenId].expiresAfter = _claims[tokenId].expiresAfter.add(expiryTime);\n  }\n  /**\n   * @notice Updates a given account's credited balance.\n   * @param account address to be credited or debited\n   * @param amount uint256 is the amount to add or subtract\n   * @param negative bool defines whether or not the value should be added or subtracted\n   */\n  function updateBalance(address account, uint256 amount, bool negative) internal {\n    if (amount == 0) return;\n    if (negative) {\n      _balances[account] = _balances[account].sub(amount);\n    } else {\n      _balances[account] = _balances[account].add(amount);\n    }\n    emit BalanceUpdated(account, amount, _balances[account], negative);\n  }\n  function creditAccount(address payee, uint256 amount) internal {\n    updateBalance(payee, amount, false);\n  }\n  function debitAccount(address payer, uint256 amount) internal {\n    updateBalance(payer, amount, true);\n  }\n  /**\n   * @notice Deposits eth and directly credits an account\n   * @param account address to send the eth to\n   */\n  function depositToAccount(address account) public payable whenNotPaused {\n    creditAccount(account, msg.value);\n  }\n  /**\n   * @notice Warrantor can fulfill the claim for the amount agreed upon when the claim was first created.\n   * @param warrantee address to check ownership of the token (optional)\n   * @param tokenId uint256 the id of the token in question\n   */\n  function fulfillClaim(address warrantee, uint256 tokenId)\n    public\n    payable\n    whenNotPaused\n    warrantorOnly(tokenId)\n    checkWarranteeOf(warrantee, tokenId)\n  {\n    Claim storage claim = _claims[tokenId];\n    // if the warrantor sends more than enough or has enough in their balance\n    uint256 bal = balance(msg.sender);\n    debitAccount(msg.sender, bal); // guarantor temporarily has zero balance\n    uint256 value = claim.value.add(msg.value).add(bal);\n    require(value >= claim.valuation, \"claim can only be fullfilled for the original agreed upon valuation\");\n    creditAccount(msg.sender, value.sub(claim.valuation));\n    creditAccount(this.ownerOf(tokenId), claim.valuation);\n    updateClaimValue(tokenId, 0); // remove funds locked in claim\n    claim.fulfilled = true;\n    emit Fulfilled(tokenId, msg.sender, warrantee, claim.redeemed);\n    _terminateClaim(tokenId);\n  }\n  function _terminateClaim(uint256 tokenId)\n    internal\n    notTerminatedOnly(tokenId)\n  {\n    Claim storage claim = _claims[tokenId];\n    if (!claim.fulfilled && claim.value != 0) {\n      // should only have value assigned, to be divii'd up if claim has not been fulfilled\n      uint256 elapsed = claim.expiresAfter.sub(timeToClaimExpire(tokenId));\n      uint256 leftover = claim.value.mul(claim.expiresAfter).sub(claim.value.mul(elapsed)).div(claim.expiresAfter);\n      creditAccount(this.ownerOf(tokenId), leftover);\n      creditAccount(claim.warrantor, claim.value.sub(leftover));\n    }\n    claim.terminated = true;\n    updateClaimValue(tokenId, 0); // remove funds locked in claim\n    emit Terminated(tokenId, msg.sender);\n  }\n  /**\n   * @notice Terminates the claim in question. Ends the claim completely and hands all funds over to the warrantor.\n   * disallow redeemed tokens from being terminated\n   * @param tokenId uint256 is the targeted token\n   */\n  function terminateClaim(uint256 tokenId)\n    public\n    whenNotPaused\n    warranteeOnly(tokenId)\n    notRedeemedOnly(tokenId)\n  {\n    _terminateClaim(tokenId);\n  }\n  /**\n   * @notice Releases funds credited to the sender to a given account\n   * @dev account param will, in most cases, be the sender's address\n   * @dev nonReentrant modifier used to prevent double spends\n   * @param account address the account to send the eth to\n   * @param amount uint256 the amount of eth to send to the account\n   */\n  function releaseTo(address payable account, uint256 amount)\n    public\n    nonReentrant\n    whenNotPaused\n    greaterThanOrEqual(_balances[msg.sender], amount)\n  {\n    address payable sender = msg.sender;\n    address payable target = account;\n    if (address(0) == target) {\n      target = sender;\n    }\n    debitAccount(sender, amount);\n    target.sendValue(amount);\n    emit Withdrawn(sender, target, amount, _balances[sender]);\n  }\n  /**\n   * @notice Creates and guarantees a claim\n   * @param warrantee address is the new owner of the token\n   * @param warrantor address is the new recipient of the funds of the contract\n   * @param valuation uint256 is the value agreed that is required to fulfill the claim at the end of its life\n   * @param expiresAfter uint256 creates a window in seconds within which a claim can be redeemed to be subesequently fulfilled.\n   * @param tokenURI optional string provides the token uri in json format: https://eips.ethereum.org/EIPS/eip-721\n   * @return tokenId uint256 sends back the tokenId created\n   */\n  function createAndFundClaim(\n    address payable warrantee,\n    address payable warrantor,\n    uint256 valuation,\n    uint256 expiresAfter,\n    string memory tokenURI\n  )\n    public\n    payable\n    returns(uint256)\n  {\n    uint256 tokenId = createClaim(warrantee, valuation, expiresAfter, tokenURI);\n    transferWarrantorship(tokenId, warrantor);\n    fundClaim(tokenId, msg.value);\n    return tokenId;\n  }\n  /**\n   * @notice transfers the warrantor of the erc721 to another owner\n   * @param tokenId uint256 the token to transfer\n   * @param account address the account to transfer to\n   */\n  function transferWarrantorship(uint256 tokenId, address account)\n    public\n    whenNotPaused\n    notExpiredOnly(tokenId)\n    warranteeOnly(tokenId)\n  {\n    _activateClaim(tokenId);\n    _claims[tokenId].warrantor = account;\n    emit WarrantorshipChanged(tokenId, account);\n  }\n  /**\n   * @notice provides the full timeline for a given claim's expiration\n   * @param tokenId uint256 defines the token in question\n   * @return expireTime uint256 defines when the claim will no longer be redeemable by the warrantee\n   */\n  function claimExpireTime(uint256 tokenId)\n    public\n    view\n    whenNotPaused\n    returns(uint256 expireTime)\n  {\n    return _claims[tokenId].activatedAt.add(_claims[tokenId].delayTime).add(_claims[tokenId].expiresAfter);\n  }\n  /**\n   * @notice provides the number of seconds until the expireTime will be reached\n   * @param tokenId uint256 the token in question\n   * @return timeUntil uint256 defines the number of seconds until the expireTime is met\n   */\n  function timeToClaimExpire(uint256 tokenId)\n    public\n    view\n    whenNotPaused\n    returns(uint256 timeUntil)\n  {\n    uint256 expireTime = claimExpireTime(tokenId);\n    uint256 tsmp = timestamp();\n    if (expireTime <= tsmp) {\n      return 0;\n    }\n    return expireTime.sub(tsmp);\n  }\n  /**\n   * @notice Guarantees a claim by claiming responsibility for the other side of the transaction, the warrantor\n   * also useful when being sold a warranty by another warrantor or by the warrantee\n   * @param tokenId uint256 targets a specific token\n   */\n  function guaranteeClaim(uint256 tokenId, uint256 value)\n    public\n    payable\n    whenNotPaused\n    notRedeemedOnly(tokenId)\n    notTerminatedOnly(tokenId)\n  {\n    Claim storage claim = _claims[tokenId];\n    require((\n      _pendingTransfer[tokenId] == msg.sender\n    ), \"unable to hand off claim unless it is first posted for transfer\");\n    // activatedAt will not yet be set if first time\n    uint256 availableCredit = balance(msg.sender).add(msg.value);\n    require(availableCredit >= claim.value, \"available credit must meet or exceed claim value\");\n    require(value >= claim.value, \"claim must preserve currently backed value\");\n    address previousOwner = this.ownerOf(tokenId);\n    creditAccount(previousOwner, claim.value); // give back the value provided by previous warrantor\n    claim.value = 0; // reset value\n    fundClaim(tokenId, value); // back claim with new and old value\n    transferFrom(previousOwner, msg.sender, tokenId); // transfer token\n    setApprovalForAll(previousOwner, false); // disallow previous owner to move token\n    _pendingTransferClaim(tokenId, address(0));\n  }\n  function _activateClaim(uint256 tokenId) internal {\n    if (_claims[tokenId].activatedAt == 0) {\n      _claims[tokenId].activatedAt = timestamp();\n    }\n  }\n  /**\n   * @notice Posts a claim to be picked up \"guaranteed\" by another entity\n   * @dev can only sell if the token is not already being sold\n   * @param tokenId uint256 the targeted token\n   * @param account address the buyer to pick up the claim\n   */\n  function postClaim(uint256 tokenId, address account)\n    public\n    whenNotPaused\n    warranteeOnly(tokenId)\n  {\n    require(_pendingTransfer[tokenId] == address(0), \"only claims that are not being sold can be put up for sale\");\n    _pendingTransfer[tokenId] = account;\n    approve(account, tokenId);\n  }\n  /**\n   * @notice Un-posts a claim that was previously posted.\n   * If there is a disagreement, the warrantee can refuse the transfer\n   * @param tokenId uint256 the targeted token\n   */\n  function depostClaim(uint256 tokenId)\n    public\n    whenNotPaused\n    warranteeOnly(tokenId)\n  {\n    require(_pendingTransfer[tokenId] != address(0), \"only claims that are being sold can be deposted\");\n    _pendingTransferClaim(tokenId, address(0));\n  }\n  function _pendingTransferClaim(uint256 tokenId, address account) internal {\n    _pendingTransfer[tokenId] = account;\n  }\n  /**\n   * @notice Fund a claim\n   * @notice anybody can add to a claim's value. value will only be accessable to the owner\n   * @dev only funds if the claim has not already been terminated.\n   * Otherwise it would go directly to the warrantor or the warrantee if it was redeemed.\n   * That's just confusing.\n   * @param tokenId uint256 the token to be targeted\n   */\n  function fundClaim(uint256 tokenId, uint256 amount)\n    public\n    payable\n    notTerminatedOnly(tokenId)\n  {\n    depositToAccount(msg.sender);\n    creditClaim(tokenId, amount);\n    debitAccount(msg.sender, amount);\n  }\n  function creditClaim(uint256 tokenId, uint256 value) internal {\n    if (value != 0) {\n      updateClaimValue(tokenId, _claims[tokenId].value.add(value));\n    }\n  }\n  function updateClaimValue(uint256 tokenId, uint256 value) internal {\n    if (_claims[tokenId].value != value) {\n      _claims[tokenId].value = value;\n      emit ClaimBalanceUpdated(tokenId, value);\n    }\n  }\n  /**\n   * @notice De-Redeems a claim. Allows for warrantee or warrantor to reset time if guarantee's submission did not meet agreement, or for any other reason\n   * @dev Can only be completed by the warrantee or warrantor.\n   * only warrantor adds extra time. transactions would be no-ops if they came from user, or at worst would waste the tx fees from the business\n   * @param tokenId uint256 targets a token\n   * @param expiryTime uint256 adds more time (in seconds) to the expiration decay\n   * @param delayTime uint256 adds more time to the delay offset (in seconds)\n   */\n  function deredeemClaim(uint256 tokenId, uint256 expiryTime, uint256 delayTime)\n    public\n    whenNotPaused\n    warranteeOrWarrantorOnly(tokenId)\n  {\n    require(_claims[tokenId].redeemed, \"only a redeemed claim can be reset\");\n    _claims[tokenId].redeemed = false;\n    emit Redeemed(tokenId, _claims[tokenId].warrantor, this.ownerOf(tokenId), _claims[tokenId].redeemed);\n    if (msg.sender == _claims[tokenId].warrantor) {\n      extendClaimExpiration(tokenId, expiryTime, delayTime);\n    }\n  }\n  function refundClaim(uint256 tokenId)\n    public\n    whenNotPaused\n    warrantorOnly(tokenId)\n    // can be expired, just not terminated\n    notTerminatedOnly(tokenId)\n  {\n    creditAccount(this.ownerOf(tokenId), _claims[tokenId].value);\n    _claims[tokenId].value = 0;\n    _terminateClaim(tokenId);\n  }\n  /**\n   * @notice Redeems a claim such that an account is notified that it needs to be fulfilled\n   * if claim is accepted guarantee will get the funds defined in valuation back\n   * @param tokenId targets a given token\n   */\n  function redeemClaim(uint256 tokenId)\n    public\n    whenNotPaused\n    warranteeOnly(tokenId)\n    notRedeemedOnly(tokenId)\n    notTerminatedOnly(tokenId)\n  {\n    require(!_claims[tokenId].redeemed, \"claim cannot be redeemed\");\n    _claims[tokenId].redeemed = true;\n    emit Redeemed(tokenId, _claims[tokenId].warrantor, this.ownerOf(tokenId), _claims[tokenId].redeemed);\n  }\n  /**\n   * @notice overwrites an internal safeMint to allow anyone to mint their own\n   * could probably be gotten rid of if a factory was used instead\n   * @param to address the address to assign ownership of the newly minted token to\n   * @param tokenId uint256 the id of the token to be minted\n   * @param _data bytes a set of bytes to hold with the tokenId\n   */\n  function safeMint(address to, uint256 tokenId, bytes memory _data) public returns (bool) {\n    _safeMint(to, tokenId, _data);\n    return true;\n  }\n  /**\n   * @notice Create a claim by minting it yourself or any given contract\n   * @notice A distinct Uniform Resource Identifier (URI) for a given asset.\n   * @dev safeMint is used so integrating with a contract should be possible\n   * @param warrantee address is the address that should own the token to start\n   * @param valuation holds the agreed upon valuation of the claim\n   * @param expiresAfter holds the number of seconds after the claim is guaranteed by a warrantor that the warranty should expire\n   * @param tokenURI optional string provides the token uri in json format: https://eips.ethereum.org/EIPS/eip-721\n   * @return tokenId uint256 sends back the tokenId created\n   */\n  function createClaim(\n    address warrantee,\n    uint256 valuation,\n    uint256 expiresAfter,\n    string memory tokenURI\n  )\n    public\n    whenNotPaused\n    returns(uint256)\n  {\n    uint256 tokenId = _claims.length;\n    require(expiresAfter < 100000000000, \"expires after value cannot be too large\");\n    _safeMint(warrantee, tokenId);\n    if (bytes(tokenURI).length > 0) {\n      _setTokenURI(tokenId, tokenURI);\n    }\n    // metadata to associate with the id\n    _claims.push(Claim({\n      valuation: valuation,\n      // set when the claim is guaranteed\n      value: 0,\n      warrantor: warrantee,\n      activatedAt: 0,\n      delayTime: 0,\n      // only need approximations\n      expiresAfter: expiresAfter,\n      redeemed: false,\n      fulfilled: false,\n      terminated: false\n    }));\n    return tokenId;\n  }\n  /**\n   * @notice adds notes to a particular claim\n   * @param tokenId uint256 the token to target\n   * @param notes optional string the notes to append\n   */\n  function addNotes(\n    uint256 tokenId,\n    string memory notes\n  )\n    public\n    warranteeOrWarrantorOnly(tokenId)\n  {\n    if (bytes(notes).length > 0) {\n      emit NotesAppended(tokenId, msg.sender, notes);\n    }\n  }\n}\n",
  "sourcePath": "/Users/michaelmclaughlin/Sites/blockchain/ethereum/warrantee/contracts/Warranty.sol",
  "compiler": {
    "name": "solc",
    "version": "0.5.12+commit.7709ece9.Emscripten.clang"
  },
  "schemaVersion": "3.0.19",
  "updatedAt": "2020-02-22T05:40:01.830Z",
  "networkType": "ethereum",
  "devdoc": {
    "author": "Michael McLaughlin",
    "methods": {
      "addNotes(uint256,string)": {
        "params": {
          "notes": "optional string the notes to append",
          "tokenId": "uint256 the token to target"
        }
      },
      "approve(address,uint256)": {
        "details": "Approves another address to transfer the given token ID The zero address indicates there is no approved address. There can only be one approved address per token at a given time. Can only be called by the token owner or an approved operator.",
        "params": {
          "to": "address to be approved for the given token ID",
          "tokenId": "uint256 ID of the token to be approved"
        }
      },
      "balance(address)": {
        "params": {
          "account": "address to check the balance credited by the contract"
        },
        "return": "amount as uint256 as the balance credited to the account and available for withdrawal"
      },
      "balanceOf(address)": {
        "details": "Gets the balance of the specified address.",
        "params": {
          "owner": "address to query the balance of"
        },
        "return": "uint256 representing the amount owned by the passed address"
      },
      "claimExpireTime(uint256)": {
        "params": {
          "tokenId": "uint256 defines the token in question"
        },
        "return": "expireTime uint256 defines when the claim will no longer be redeemable by the warrantee"
      },
      "createAndFundClaim(address,address,uint256,uint256,string)": {
        "params": {
          "expiresAfter": "uint256 creates a window in seconds within which a claim can be redeemed to be subesequently fulfilled.",
          "tokenURI": "optional string provides the token uri in json format: https://eips.ethereum.org/EIPS/eip-721",
          "valuation": "uint256 is the value agreed that is required to fulfill the claim at the end of its life",
          "warrantee": "address is the new owner of the token",
          "warrantor": "address is the new recipient of the funds of the contract"
        },
        "return": "tokenId uint256 sends back the tokenId created"
      },
      "createClaim(address,uint256,uint256,string)": {
        "details": "safeMint is used so integrating with a contract should be possible",
        "params": {
          "expiresAfter": "holds the number of seconds after the claim is guaranteed by a warrantor that the warranty should expire",
          "tokenURI": "optional string provides the token uri in json format: https://eips.ethereum.org/EIPS/eip-721",
          "valuation": "holds the agreed upon valuation of the claim",
          "warrantee": "address is the address that should own the token to start"
        },
        "return": "tokenId uint256 sends back the tokenId created"
      },
      "depositToAccount(address)": {
        "params": {
          "account": "address to send the eth to"
        }
      },
      "depostClaim(uint256)": {
        "params": {
          "tokenId": "uint256 the targeted token"
        }
      },
      "deredeemClaim(uint256,uint256,uint256)": {
        "details": "Can only be completed by the warrantee or warrantor. only warrantor adds extra time. transactions would be no-ops if they came from user, or at worst would waste the tx fees from the business",
        "params": {
          "delayTime": "uint256 adds more time to the delay offset (in seconds)",
          "expiryTime": "uint256 adds more time (in seconds) to the expiration decay",
          "tokenId": "uint256 targets a token"
        }
      },
      "extendClaimExpiration(uint256,uint256,uint256)": {
        "params": {
          "delayTime": "uint256 as the amount of time to be added to the delay time first set to zero",
          "expiryTime": "uint256 as the amount of time to be added to the expiry time first set when the claim was created",
          "tokenId": "uint256 as the targeted token"
        }
      },
      "fulfillClaim(address,uint256)": {
        "params": {
          "tokenId": "uint256 the id of the token in question",
          "warrantee": "address to check ownership of the token (optional)"
        }
      },
      "fundClaim(uint256,uint256)": {
        "details": "only funds if the claim has not already been terminated. Otherwise it would go directly to the warrantor or the warrantee if it was redeemed. That's just confusing.",
        "params": {
          "tokenId": "uint256 the token to be targeted"
        }
      },
      "getApproved(uint256)": {
        "details": "Gets the approved address for a token ID, or zero if no address set Reverts if the token ID does not exist.",
        "params": {
          "tokenId": "uint256 ID of the token to query the approval of"
        },
        "return": "address currently approved for the given token ID"
      },
      "guaranteeClaim(uint256,uint256)": {
        "params": {
          "tokenId": "uint256 targets a specific token"
        }
      },
      "isApprovedForAll(address,address)": {
        "details": "Tells whether an operator is approved by a given owner.",
        "params": {
          "operator": "operator address which you want to query the approval of",
          "owner": "owner address which you want to query the approval of"
        },
        "return": "bool whether the given operator is approved by the given owner"
      },
      "isWarrantee(address,uint256)": {
        "params": {
          "account": "address is the address being checked against",
          "tokenId": "uint256 ID is the token in question"
        },
        "return": "matches as bool whether the account is indeed the owner of the token"
      },
      "isWarrantor(address,uint256)": {
        "params": {
          "account": "address is the address being checked against",
          "tokenId": "uint256 ID is the token in question"
        },
        "return": "matches as bool whether the account is indeed the warrantor of the token"
      },
      "name()": {
        "details": "Gets the token name.",
        "return": "string representing the token name"
      },
      "ownerOf(uint256)": {
        "details": "Gets the owner of the specified token ID.",
        "params": {
          "tokenId": "uint256 ID of the token to query the owner of"
        },
        "return": "address currently marked as the owner of the given token ID"
      },
      "pause()": {
        "details": "Called by a pauser to pause, triggers stopped state."
      },
      "paused()": {
        "details": "Returns true if the contract is paused, and false otherwise."
      },
      "postClaim(uint256,address)": {
        "details": "can only sell if the token is not already being sold",
        "params": {
          "account": "address the buyer to pick up the claim",
          "tokenId": "uint256 the targeted token"
        }
      },
      "redeemClaim(uint256)": {
        "params": {
          "tokenId": "targets a given token"
        }
      },
      "releaseTo(address,uint256)": {
        "details": "account param will, in most cases, be the sender's addressnonReentrant modifier used to prevent double spends",
        "params": {
          "account": "address the account to send the eth to",
          "amount": "uint256 the amount of eth to send to the account"
        }
      },
      "safeMint(address,uint256,bytes)": {
        "params": {
          "_data": "bytes a set of bytes to hold with the tokenId",
          "to": "address the address to assign ownership of the newly minted token to",
          "tokenId": "uint256 the id of the token to be minted"
        }
      },
      "safeTransferFrom(address,address,uint256)": {
        "details": "Safely transfers the ownership of a given token ID to another address If the target address is a contract, it must implement {IERC721Receiver-onERC721Received}, which is called upon a safe transfer, and return the magic value `bytes4(keccak256(\"onERC721Received(address,address,uint256,bytes)\"))`; otherwise, the transfer is reverted. Requires the msg.sender to be the owner, approved, or operator",
        "params": {
          "from": "current owner of the token",
          "to": "address to receive the ownership of the given token ID",
          "tokenId": "uint256 ID of the token to be transferred"
        }
      },
      "safeTransferFrom(address,address,uint256,bytes)": {
        "details": "Safely transfers the ownership of a given token ID to another address If the target address is a contract, it must implement {IERC721Receiver-onERC721Received}, which is called upon a safe transfer, and return the magic value `bytes4(keccak256(\"onERC721Received(address,address,uint256,bytes)\"))`; otherwise, the transfer is reverted. Requires the _msgSender() to be the owner, approved, or operator",
        "params": {
          "_data": "bytes data to send along with a safe transfer check",
          "from": "current owner of the token",
          "to": "address to receive the ownership of the given token ID",
          "tokenId": "uint256 ID of the token to be transferred"
        }
      },
      "setApprovalForAll(address,bool)": {
        "details": "Sets or unsets the approval of a given operator An operator is allowed to transfer all tokens of the sender on their behalf.",
        "params": {
          "approved": "representing the status of the approval to be set",
          "to": "operator address to set the approval"
        }
      },
      "supportsInterface(bytes4)": {
        "details": "See {IERC165-supportsInterface}.     * Time complexity O(1), guaranteed to always use less than 30 000 gas."
      },
      "symbol()": {
        "details": "Gets the token symbol.",
        "return": "string representing the token symbol"
      },
      "terminateClaim(uint256)": {
        "params": {
          "tokenId": "uint256 is the targeted token"
        }
      },
      "timeToClaimExpire(uint256)": {
        "params": {
          "tokenId": "uint256 the token in question"
        },
        "return": "timeUntil uint256 defines the number of seconds until the expireTime is met"
      },
      "tokenURI(uint256)": {
        "details": "Returns an URI for a given token ID. Throws if the token ID does not exist. May return an empty string.",
        "params": {
          "tokenId": "uint256 ID of the token to query"
        }
      },
      "transferFrom(address,address,uint256)": {
        "details": "Transfers the ownership of a given token ID to another address. Usage of this method is discouraged, use {safeTransferFrom} whenever possible. Requires the msg.sender to be the owner, approved, or operator.",
        "params": {
          "from": "current owner of the token",
          "to": "address to receive the ownership of the given token ID",
          "tokenId": "uint256 ID of the token to be transferred"
        }
      },
      "transferWarrantorship(uint256,address)": {
        "params": {
          "account": "address the account to transfer to",
          "tokenId": "uint256 the token to transfer"
        }
      },
      "unpause()": {
        "details": "Called by a pauser to unpause, returns to normal state."
      }
    },
    "title": "A digital relationship between two entities"
  },
  "userdoc": {
    "methods": {
      "addNotes(uint256,string)": {
        "notice": "adds notes to a particular claim"
      },
      "balance(address)": {
        "notice": "Checks the balance of a given account"
      },
      "claimExpireTime(uint256)": {
        "notice": "provides the full timeline for a given claim's expiration"
      },
      "createAndFundClaim(address,address,uint256,uint256,string)": {
        "notice": "Creates and guarantees a claim"
      },
      "createClaim(address,uint256,uint256,string)": {
        "notice": "Create a claim by minting it yourself or any given contractA distinct Uniform Resource Identifier (URI) for a given asset."
      },
      "depositToAccount(address)": {
        "notice": "Deposits eth and directly credits an account"
      },
      "depostClaim(uint256)": {
        "notice": "Un-posts a claim that was previously posted. If there is a disagreement, the warrantee can refuse the transfer"
      },
      "deredeemClaim(uint256,uint256,uint256)": {
        "notice": "De-Redeems a claim. Allows for warrantee or warrantor to reset time if guarantee's submission did not meet agreement, or for any other reason"
      },
      "extendClaimExpiration(uint256,uint256,uint256)": {
        "notice": "Extend the timeline until the claim expires"
      },
      "fulfillClaim(address,uint256)": {
        "notice": "Warrantor can fulfill the claim for the amount agreed upon when the claim was first created."
      },
      "fundClaim(uint256,uint256)": {
        "notice": "Fund a claimanybody can add to a claim's value. value will only be accessable to the owner"
      },
      "guaranteeClaim(uint256,uint256)": {
        "notice": "Guarantees a claim by claiming responsibility for the other side of the transaction, the warrantor also useful when being sold a warranty by another warrantor or by the warrantee"
      },
      "isWarrantee(address,uint256)": {
        "notice": "Makes sure that the account passed is the owner of the token"
      },
      "isWarrantor(address,uint256)": {
        "notice": "Makes sure that the account passed is set as the token's warrantor"
      },
      "postClaim(uint256,address)": {
        "notice": "Posts a claim to be picked up \"guaranteed\" by another entity"
      },
      "redeemClaim(uint256)": {
        "notice": "Redeems a claim such that an account is notified that it needs to be fulfilled if claim is accepted guarantee will get the funds defined in valuation back"
      },
      "releaseTo(address,uint256)": {
        "notice": "Releases funds credited to the sender to a given account"
      },
      "safeMint(address,uint256,bytes)": {
        "notice": "overwrites an internal safeMint to allow anyone to mint their own could probably be gotten rid of if a factory was used instead"
      },
      "terminateClaim(uint256)": {
        "notice": "Terminates the claim in question. Ends the claim completely and hands all funds over to the warrantor. disallow redeemed tokens from being terminated"
      },
      "timeToClaimExpire(uint256)": {
        "notice": "provides the number of seconds until the expireTime will be reached"
      },
      "transferWarrantorship(uint256,address)": {
        "notice": "transfers the warrantor of the erc721 to another owner"
      }
    },
    "notice": "You can use this contract for basic warranties"
  }
}