{
  "contractName": "Warrantee",
  "abi": [
    {
      "inputs": [],
      "payable": false,
      "stateMutability": "nonpayable",
      "type": "constructor"
    },
    {
      "anonymous": false,
      "inputs": [
        {
          "indexed": true,
          "internalType": "address",
          "name": "owner",
          "type": "address"
        },
        {
          "indexed": true,
          "internalType": "address",
          "name": "approved",
          "type": "address"
        },
        {
          "indexed": true,
          "internalType": "uint256",
          "name": "tokenId",
          "type": "uint256"
        }
      ],
      "name": "Approval",
      "type": "event"
    },
    {
      "anonymous": false,
      "inputs": [
        {
          "indexed": true,
          "internalType": "address",
          "name": "owner",
          "type": "address"
        },
        {
          "indexed": true,
          "internalType": "address",
          "name": "operator",
          "type": "address"
        },
        {
          "indexed": false,
          "internalType": "bool",
          "name": "approved",
          "type": "bool"
        }
      ],
      "name": "ApprovalForAll",
      "type": "event"
    },
    {
      "anonymous": false,
      "inputs": [
        {
          "indexed": true,
          "internalType": "address",
          "name": "payee",
          "type": "address"
        },
        {
          "indexed": false,
          "internalType": "uint256",
          "name": "amount",
          "type": "uint256"
        }
      ],
      "name": "Deposited",
      "type": "event"
    },
    {
      "anonymous": false,
      "inputs": [
        {
          "indexed": true,
          "internalType": "address",
          "name": "account",
          "type": "address"
        }
      ],
      "name": "MinterAdded",
      "type": "event"
    },
    {
      "anonymous": false,
      "inputs": [
        {
          "indexed": true,
          "internalType": "address",
          "name": "account",
          "type": "address"
        }
      ],
      "name": "MinterRemoved",
      "type": "event"
    },
    {
      "anonymous": false,
      "inputs": [
        {
          "indexed": true,
          "internalType": "address",
          "name": "previousOwner",
          "type": "address"
        },
        {
          "indexed": true,
          "internalType": "address",
          "name": "newOwner",
          "type": "address"
        }
      ],
      "name": "OwnershipTransferred",
      "type": "event"
    },
    {
      "anonymous": false,
      "inputs": [
        {
          "indexed": true,
          "internalType": "uint256",
          "name": "tokenId",
          "type": "uint256"
        },
        {
          "indexed": false,
          "internalType": "uint256",
          "name": "value",
          "type": "uint256"
        },
        {
          "indexed": false,
          "internalType": "uint256",
          "name": "leftover",
          "type": "uint256"
        },
        {
          "indexed": false,
          "internalType": "bool",
          "name": "claimed",
          "type": "bool"
        }
      ],
      "name": "Terminated",
      "type": "event"
    },
    {
      "anonymous": false,
      "inputs": [
        {
          "indexed": true,
          "internalType": "address",
          "name": "from",
          "type": "address"
        },
        {
          "indexed": true,
          "internalType": "address",
          "name": "to",
          "type": "address"
        },
        {
          "indexed": true,
          "internalType": "uint256",
          "name": "tokenId",
          "type": "uint256"
        }
      ],
      "name": "Transfer",
      "type": "event"
    },
    {
      "anonymous": false,
      "inputs": [
        {
          "indexed": true,
          "internalType": "address",
          "name": "warrantee",
          "type": "address"
        },
        {
          "indexed": true,
          "internalType": "address",
          "name": "target",
          "type": "address"
        },
        {
          "indexed": false,
          "internalType": "uint256",
          "name": "amount",
          "type": "uint256"
        },
        {
          "indexed": false,
          "internalType": "uint256",
          "name": "balance",
          "type": "uint256"
        }
      ],
      "name": "Withdrawn",
      "type": "event"
    },
    {
      "constant": true,
      "inputs": [],
      "name": "_lockedBalance",
      "outputs": [
        {
          "internalType": "uint256",
          "name": "",
          "type": "uint256"
        }
      ],
      "payable": false,
      "stateMutability": "view",
      "type": "function"
    },
    {
      "constant": true,
      "inputs": [],
      "name": "_sku",
      "outputs": [
        {
          "internalType": "string",
          "name": "",
          "type": "string"
        }
      ],
      "payable": false,
      "stateMutability": "view",
      "type": "function"
    },
    {
      "constant": true,
      "inputs": [
        {
          "internalType": "uint256",
          "name": "",
          "type": "uint256"
        }
      ],
      "name": "_warranties",
      "outputs": [
        {
          "internalType": "uint256",
          "name": "value",
          "type": "uint256"
        },
        {
          "internalType": "uint256",
          "name": "valuation",
          "type": "uint256"
        },
        {
          "internalType": "uint256",
          "name": "expiresAfter",
          "type": "uint256"
        },
        {
          "internalType": "uint256",
          "name": "createdAt",
          "type": "uint256"
        },
        {
          "internalType": "bool",
          "name": "claimed",
          "type": "bool"
        },
        {
          "internalType": "bool",
          "name": "terminated",
          "type": "bool"
        }
      ],
      "payable": false,
      "stateMutability": "view",
      "type": "function"
    },
    {
      "constant": false,
      "inputs": [
        {
          "internalType": "address",
          "name": "account",
          "type": "address"
        }
      ],
      "name": "addMinter",
      "outputs": [],
      "payable": false,
      "stateMutability": "nonpayable",
      "type": "function"
    },
    {
      "constant": false,
      "inputs": [
        {
          "internalType": "address",
          "name": "to",
          "type": "address"
        },
        {
          "internalType": "uint256",
          "name": "tokenId",
          "type": "uint256"
        }
      ],
      "name": "approve",
      "outputs": [],
      "payable": false,
      "stateMutability": "nonpayable",
      "type": "function"
    },
    {
      "constant": true,
      "inputs": [
        {
          "internalType": "address",
          "name": "owner",
          "type": "address"
        }
      ],
      "name": "balanceOf",
      "outputs": [
        {
          "internalType": "uint256",
          "name": "",
          "type": "uint256"
        }
      ],
      "payable": false,
      "stateMutability": "view",
      "type": "function"
    },
    {
      "constant": false,
      "inputs": [
        {
          "internalType": "uint256",
          "name": "tokenId",
          "type": "uint256"
        }
      ],
      "name": "burn",
      "outputs": [],
      "payable": false,
      "stateMutability": "nonpayable",
      "type": "function"
    },
    {
      "constant": true,
      "inputs": [],
      "name": "decimals",
      "outputs": [
        {
          "internalType": "uint256",
          "name": "",
          "type": "uint256"
        }
      ],
      "payable": false,
      "stateMutability": "view",
      "type": "function"
    },
    {
      "constant": true,
      "inputs": [
        {
          "internalType": "uint256",
          "name": "tokenId",
          "type": "uint256"
        }
      ],
      "name": "getApproved",
      "outputs": [
        {
          "internalType": "address",
          "name": "",
          "type": "address"
        }
      ],
      "payable": false,
      "stateMutability": "view",
      "type": "function"
    },
    {
      "constant": true,
      "inputs": [
        {
          "internalType": "address",
          "name": "owner",
          "type": "address"
        },
        {
          "internalType": "address",
          "name": "operator",
          "type": "address"
        }
      ],
      "name": "isApprovedForAll",
      "outputs": [
        {
          "internalType": "bool",
          "name": "",
          "type": "bool"
        }
      ],
      "payable": false,
      "stateMutability": "view",
      "type": "function"
    },
    {
      "constant": true,
      "inputs": [
        {
          "internalType": "address",
          "name": "account",
          "type": "address"
        }
      ],
      "name": "isMinter",
      "outputs": [
        {
          "internalType": "bool",
          "name": "",
          "type": "bool"
        }
      ],
      "payable": false,
      "stateMutability": "view",
      "type": "function"
    },
    {
      "constant": true,
      "inputs": [],
      "name": "isOwner",
      "outputs": [
        {
          "internalType": "bool",
          "name": "",
          "type": "bool"
        }
      ],
      "payable": false,
      "stateMutability": "view",
      "type": "function"
    },
    {
      "constant": false,
      "inputs": [
        {
          "internalType": "address",
          "name": "to",
          "type": "address"
        },
        {
          "internalType": "uint256",
          "name": "tokenId",
          "type": "uint256"
        }
      ],
      "name": "mint",
      "outputs": [
        {
          "internalType": "bool",
          "name": "",
          "type": "bool"
        }
      ],
      "payable": false,
      "stateMutability": "nonpayable",
      "type": "function"
    },
    {
      "constant": true,
      "inputs": [],
      "name": "name",
      "outputs": [
        {
          "internalType": "string",
          "name": "",
          "type": "string"
        }
      ],
      "payable": false,
      "stateMutability": "view",
      "type": "function"
    },
    {
      "constant": true,
      "inputs": [],
      "name": "owner",
      "outputs": [
        {
          "internalType": "address",
          "name": "",
          "type": "address"
        }
      ],
      "payable": false,
      "stateMutability": "view",
      "type": "function"
    },
    {
      "constant": true,
      "inputs": [
        {
          "internalType": "uint256",
          "name": "tokenId",
          "type": "uint256"
        }
      ],
      "name": "ownerOf",
      "outputs": [
        {
          "internalType": "address",
          "name": "",
          "type": "address"
        }
      ],
      "payable": false,
      "stateMutability": "view",
      "type": "function"
    },
    {
      "constant": false,
      "inputs": [],
      "name": "renounceMinter",
      "outputs": [],
      "payable": false,
      "stateMutability": "nonpayable",
      "type": "function"
    },
    {
      "constant": false,
      "inputs": [],
      "name": "renounceOwnership",
      "outputs": [],
      "payable": false,
      "stateMutability": "nonpayable",
      "type": "function"
    },
    {
      "constant": false,
      "inputs": [
        {
          "internalType": "address",
          "name": "to",
          "type": "address"
        },
        {
          "internalType": "uint256",
          "name": "tokenId",
          "type": "uint256"
        },
        {
          "internalType": "bytes",
          "name": "_data",
          "type": "bytes"
        }
      ],
      "name": "safeMint",
      "outputs": [
        {
          "internalType": "bool",
          "name": "",
          "type": "bool"
        }
      ],
      "payable": false,
      "stateMutability": "nonpayable",
      "type": "function"
    },
    {
      "constant": false,
      "inputs": [
        {
          "internalType": "address",
          "name": "to",
          "type": "address"
        },
        {
          "internalType": "uint256",
          "name": "tokenId",
          "type": "uint256"
        }
      ],
      "name": "safeMint",
      "outputs": [
        {
          "internalType": "bool",
          "name": "",
          "type": "bool"
        }
      ],
      "payable": false,
      "stateMutability": "nonpayable",
      "type": "function"
    },
    {
      "constant": false,
      "inputs": [
        {
          "internalType": "address",
          "name": "from",
          "type": "address"
        },
        {
          "internalType": "address",
          "name": "to",
          "type": "address"
        },
        {
          "internalType": "uint256",
          "name": "tokenId",
          "type": "uint256"
        }
      ],
      "name": "safeTransferFrom",
      "outputs": [],
      "payable": false,
      "stateMutability": "nonpayable",
      "type": "function"
    },
    {
      "constant": false,
      "inputs": [
        {
          "internalType": "address",
          "name": "from",
          "type": "address"
        },
        {
          "internalType": "address",
          "name": "to",
          "type": "address"
        },
        {
          "internalType": "uint256",
          "name": "tokenId",
          "type": "uint256"
        },
        {
          "internalType": "bytes",
          "name": "_data",
          "type": "bytes"
        }
      ],
      "name": "safeTransferFrom",
      "outputs": [],
      "payable": false,
      "stateMutability": "nonpayable",
      "type": "function"
    },
    {
      "constant": false,
      "inputs": [
        {
          "internalType": "address",
          "name": "to",
          "type": "address"
        },
        {
          "internalType": "bool",
          "name": "approved",
          "type": "bool"
        }
      ],
      "name": "setApprovalForAll",
      "outputs": [],
      "payable": false,
      "stateMutability": "nonpayable",
      "type": "function"
    },
    {
      "constant": true,
      "inputs": [
        {
          "internalType": "bytes4",
          "name": "interfaceId",
          "type": "bytes4"
        }
      ],
      "name": "supportsInterface",
      "outputs": [
        {
          "internalType": "bool",
          "name": "",
          "type": "bool"
        }
      ],
      "payable": false,
      "stateMutability": "view",
      "type": "function"
    },
    {
      "constant": true,
      "inputs": [],
      "name": "symbol",
      "outputs": [
        {
          "internalType": "string",
          "name": "",
          "type": "string"
        }
      ],
      "payable": false,
      "stateMutability": "view",
      "type": "function"
    },
    {
      "constant": false,
      "inputs": [
        {
          "internalType": "address",
          "name": "from",
          "type": "address"
        },
        {
          "internalType": "address",
          "name": "to",
          "type": "address"
        },
        {
          "internalType": "uint256",
          "name": "tokenId",
          "type": "uint256"
        }
      ],
      "name": "transferFrom",
      "outputs": [],
      "payable": false,
      "stateMutability": "nonpayable",
      "type": "function"
    },
    {
      "constant": false,
      "inputs": [
        {
          "internalType": "address",
          "name": "newOwner",
          "type": "address"
        }
      ],
      "name": "transferOwnership",
      "outputs": [],
      "payable": false,
      "stateMutability": "nonpayable",
      "type": "function"
    },
    {
      "constant": true,
      "inputs": [],
      "name": "timestamp",
      "outputs": [
        {
          "internalType": "uint256",
          "name": "",
          "type": "uint256"
        }
      ],
      "payable": false,
      "stateMutability": "view",
      "type": "function"
    },
    {
      "constant": true,
      "inputs": [
        {
          "internalType": "address",
          "name": "account",
          "type": "address"
        }
      ],
      "name": "balance",
      "outputs": [
        {
          "internalType": "uint256",
          "name": "",
          "type": "uint256"
        }
      ],
      "payable": false,
      "stateMutability": "view",
      "type": "function"
    },
    {
      "constant": false,
      "inputs": [
        {
          "internalType": "uint256",
          "name": "id",
          "type": "uint256"
        }
      ],
      "name": "terminateAgreement",
      "outputs": [],
      "payable": false,
      "stateMutability": "nonpayable",
      "type": "function"
    },
    {
      "constant": false,
      "inputs": [
        {
          "internalType": "address payable",
          "name": "_target",
          "type": "address"
        },
        {
          "internalType": "uint256",
          "name": "amount",
          "type": "uint256"
        }
      ],
      "name": "release",
      "outputs": [],
      "payable": false,
      "stateMutability": "nonpayable",
      "type": "function"
    },
    {
      "constant": false,
      "inputs": [
        {
          "internalType": "uint256",
          "name": "id",
          "type": "uint256"
        }
      ],
      "name": "claim",
      "outputs": [],
      "payable": false,
      "stateMutability": "nonpayable",
      "type": "function"
    },
    {
      "constant": false,
      "inputs": [
        {
          "internalType": "address payable",
          "name": "owner",
          "type": "address"
        },
        {
          "internalType": "uint256",
          "name": "valuation",
          "type": "uint256"
        },
        {
          "internalType": "uint256",
          "name": "expiresAfter",
          "type": "uint256"
        }
      ],
      "name": "create",
      "outputs": [],
      "payable": true,
      "stateMutability": "payable",
      "type": "function"
    },
    {
      "constant": true,
      "inputs": [
        {
          "internalType": "bool",
          "name": "includeExpired",
          "type": "bool"
        }
      ],
      "name": "valuation",
      "outputs": [
        {
          "internalType": "uint256",
          "name": "",
          "type": "uint256"
        }
      ],
      "payable": false,
      "stateMutability": "view",
      "type": "function"
    }
  ],
  "bytecode": "0x60806040523480156200001157600080fd5b506200002a6301ffc9a760e01b620001e160201b60201c565b620000426380ac58cd60e01b620001e160201b60201c565b6200006262000056620002ea60201b60201c565b620002f260201b60201c565b62000072620002ea60201b60201c565b600660006101000a81548173ffffffffffffffffffffffffffffffffffffffff021916908373ffffffffffffffffffffffffffffffffffffffff160217905550600660009054906101000a900473ffffffffffffffffffffffffffffffffffffffff1673ffffffffffffffffffffffffffffffffffffffff16600073ffffffffffffffffffffffffffffffffffffffff167f8be0079c531659141344cd1fd0a4f28419497f9722a3daafe3b4186f6b6457e060405160405180910390a360016007819055506040518060400160405280600581526020017f57524e5445000000000000000000000000000000000000000000000000000000815250600c90805190602001906200018492919062000517565b506040518060400160405280600981526020017f57617272616e7465650000000000000000000000000000000000000000000000815250600d9080519060200190620001d292919062000517565b506000600e81905550620005c6565b63ffffffff60e01b817bffffffffffffffffffffffffffffffffffffffffffffffffffffffff191614156200027e576040517f08c379a000000000000000000000000000000000000000000000000000000000815260040180806020018281038252601c8152602001807f4552433136353a20696e76616c696420696e746572666163652069640000000081525060200191505060405180910390fd5b6001600080837bffffffffffffffffffffffffffffffffffffffffffffffffffffffff19167bffffffffffffffffffffffffffffffffffffffffffffffffffffffff1916815260200190815260200160002060006101000a81548160ff02191690831515021790555050565b600033905090565b6200030d8160056200035360201b620040a11790919060201c565b8073ffffffffffffffffffffffffffffffffffffffff167f6ae172837ea30b801fbfcdd4108aa1d5bf8ff775444fd70256b44e6bf3dfc3f660405160405180910390a250565b6200036582826200043760201b60201c565b15620003d9576040517f08c379a000000000000000000000000000000000000000000000000000000000815260040180806020018281038252601f8152602001807f526f6c65733a206163636f756e7420616c72656164792068617320726f6c650081525060200191505060405180910390fd5b60018260000160008373ffffffffffffffffffffffffffffffffffffffff1673ffffffffffffffffffffffffffffffffffffffff16815260200190815260200160002060006101000a81548160ff0219169083151502179055505050565b60008073ffffffffffffffffffffffffffffffffffffffff168273ffffffffffffffffffffffffffffffffffffffff161415620004c0576040517f08c379a000000000000000000000000000000000000000000000000000000000815260040180806020018281038252602281526020018062004d1e6022913960400191505060405180910390fd5b8260000160008373ffffffffffffffffffffffffffffffffffffffff1673ffffffffffffffffffffffffffffffffffffffff16815260200190815260200160002060009054906101000a900460ff16905092915050565b828054600181600116156101000203166002900490600052602060002090601f016020900481019282601f106200055a57805160ff19168380011785556200058b565b828001600101855582156200058b579182015b828111156200058a5782518255916020019190600101906200056d565b5b5090506200059a91906200059e565b5090565b620005c391905b80821115620005bf576000816000905550600101620005a5565b5090565b90565b61474880620005d66000396000f3fe6080604052600436106101f95760003560e01c8063715018a61161010d578063a1448194116100a0578063b88d4fde1161006f578063b88d4fde14610ce6578063e3d670d714610df8578063e985e9c514610e5d578063eaee6a6114610ee6578063f2fde38b14610f37576101f9565b8063a144819414610b82578063a22cb46514610bf5578063aa271e1a14610c52578063b80777ea14610cbb576101f9565b806395d89b41116100dc57806395d89b4114610a4f578063983b2d5614610adf5780639865027514610b305780639a02692414610b47576101f9565b8063715018a6146108a85780638832e6e3146108bf5780638da5cb5b146109c95780638f32d59b14610a20576101f9565b8063379607f5116101905780635165da301161015f5780635165da30146106b557806358d478c41461070d57806362d790db146107385780636352211e146107c857806370a0823114610843576101f9565b8063379607f51461055157806340c10f191461058c57806342842e0e146105ff57806342966c681461067a576101f9565b8063095ea7b3116101cc578063095ea7b3146103d657806323b872dd146104315780632fe90375146104ac578063313ce56714610526576101f9565b806301ffc9a7146101fe5780630357371d1461027057806306fdde03146102cb578063081812fc1461035b575b600080fd5b34801561020a57600080fd5b506102566004803603602081101561022157600080fd5b8101908080357bffffffffffffffffffffffffffffffffffffffffffffffffffffffff19169060200190929190505050610f88565b604051808215151515815260200191505060405180910390f35b34801561027c57600080fd5b506102c96004803603604081101561029357600080fd5b81019080803573ffffffffffffffffffffffffffffffffffffffff16906020019092919080359060200190929190505050610fef565b005b3480156102d757600080fd5b506102e06112d4565b6040518080602001828103825283818151815260200191508051906020019080838360005b83811015610320578082015181840152602081019050610305565b50505050905090810190601f16801561034d5780820380516001836020036101000a031916815260200191505b509250505060405180910390f35b34801561036757600080fd5b506103946004803603602081101561037e57600080fd5b8101908080359060200190929190505050611372565b604051808273ffffffffffffffffffffffffffffffffffffffff1673ffffffffffffffffffffffffffffffffffffffff16815260200191505060405180910390f35b3480156103e257600080fd5b5061042f600480360360408110156103f957600080fd5b81019080803573ffffffffffffffffffffffffffffffffffffffff1690602001909291908035906020019092919050505061140d565b005b34801561043d57600080fd5b506104aa6004803603606081101561045457600080fd5b81019080803573ffffffffffffffffffffffffffffffffffffffff169060200190929190803573ffffffffffffffffffffffffffffffffffffffff169060200190929190803590602001909291905050506115f4565b005b3480156104b857600080fd5b506104e5600480360360208110156104cf57600080fd5b810190808035906020019092919050505061166a565b604051808781526020018681526020018581526020018481526020018315151515815260200182151515158152602001965050505050505060405180910390f35b34801561053257600080fd5b5061053b6116cd565b6040518082815260200191505060405180910390f35b34801561055d57600080fd5b5061058a6004803603602081101561057457600080fd5b81019080803590602001909291905050506116d3565b005b34801561059857600080fd5b506105e5600480360360408110156105af57600080fd5b81019080803573ffffffffffffffffffffffffffffffffffffffff169060200190929190803590602001909291905050506118b2565b604051808215151515815260200191505060405180910390f35b34801561060b57600080fd5b506106786004803603606081101561062257600080fd5b81019080803573ffffffffffffffffffffffffffffffffffffffff169060200190929190803573ffffffffffffffffffffffffffffffffffffffff1690602001909291908035906020019092919050505061192d565b005b34801561068657600080fd5b506106b36004803603602081101561069d57600080fd5b810190808035906020019092919050505061194d565b005b61070b600480360360608110156106cb57600080fd5b81019080803573ffffffffffffffffffffffffffffffffffffffff16906020019092919080359060200190929190803590602001909291905050506119bf565b005b34801561071957600080fd5b50610722611bb2565b6040518082815260200191505060405180910390f35b34801561074457600080fd5b5061074d611bb8565b6040518080602001828103825283818151815260200191508051906020019080838360005b8381101561078d578082015181840152602081019050610772565b50505050905090810190601f1680156107ba5780820380516001836020036101000a031916815260200191505b509250505060405180910390f35b3480156107d457600080fd5b50610801600480360360208110156107eb57600080fd5b8101908080359060200190929190505050611c56565b604051808273ffffffffffffffffffffffffffffffffffffffff1673ffffffffffffffffffffffffffffffffffffffff16815260200191505060405180910390f35b34801561084f57600080fd5b506108926004803603602081101561086657600080fd5b81019080803573ffffffffffffffffffffffffffffffffffffffff169060200190929190505050611d1e565b6040518082815260200191505060405180910390f35b3480156108b457600080fd5b506108bd611df3565b005b3480156108cb57600080fd5b506109af600480360360608110156108e257600080fd5b81019080803573ffffffffffffffffffffffffffffffffffffffff169060200190929190803590602001909291908035906020019064010000000081111561092957600080fd5b82018360208201111561093b57600080fd5b8035906020019184600183028401116401000000008311171561095d57600080fd5b91908080601f016020809104026020016040519081016040528093929190818152602001838380828437600081840152601f19601f820116905080830192505050505050509192919290505050611f2e565b604051808215151515815260200191505060405180910390f35b3480156109d557600080fd5b506109de611fab565b604051808273ffffffffffffffffffffffffffffffffffffffff1673ffffffffffffffffffffffffffffffffffffffff16815260200191505060405180910390f35b348015610a2c57600080fd5b50610a35611fd5565b604051808215151515815260200191505060405180910390f35b348015610a5b57600080fd5b50610a64612034565b6040518080602001828103825283818151815260200191508051906020019080838360005b83811015610aa4578082015181840152602081019050610a89565b50505050905090810190601f168015610ad15780820380516001836020036101000a031916815260200191505b509250505060405180910390f35b348015610aeb57600080fd5b50610b2e60048036036020811015610b0257600080fd5b81019080803573ffffffffffffffffffffffffffffffffffffffff1690602001909291905050506120d2565b005b348015610b3c57600080fd5b50610b45612143565b005b348015610b5357600080fd5b50610b8060048036036020811015610b6a57600080fd5b8101908080359060200190929190505050612155565b005b348015610b8e57600080fd5b50610bdb60048036036040811015610ba557600080fd5b81019080803573ffffffffffffffffffffffffffffffffffffffff169060200190929190803590602001909291905050506127fc565b604051808215151515815260200191505060405180910390f35b348015610c0157600080fd5b50610c5060048036036040811015610c1857600080fd5b81019080803573ffffffffffffffffffffffffffffffffffffffff169060200190929190803515159060200190929190505050612877565b005b348015610c5e57600080fd5b50610ca160048036036020811015610c7557600080fd5b81019080803573ffffffffffffffffffffffffffffffffffffffff169060200190929190505050612a2f565b604051808215151515815260200191505060405180910390f35b348015610cc757600080fd5b50610cd0612a4c565b6040518082815260200191505060405180910390f35b348015610cf257600080fd5b50610df660048036036080811015610d0957600080fd5b81019080803573ffffffffffffffffffffffffffffffffffffffff169060200190929190803573ffffffffffffffffffffffffffffffffffffffff1690602001909291908035906020019092919080359060200190640100000000811115610d7057600080fd5b820183602082011115610d8257600080fd5b80359060200191846001830284011164010000000083111715610da457600080fd5b91908080601f016020809104026020016040519081016040528093929190818152602001838380828437600081840152601f19601f820116905080830192505050505050509192919290505050612a54565b005b348015610e0457600080fd5b50610e4760048036036020811015610e1b57600080fd5b81019080803573ffffffffffffffffffffffffffffffffffffffff169060200190929190505050612acc565b6040518082815260200191505060405180910390f35b348015610e6957600080fd5b50610ecc60048036036040811015610e8057600080fd5b81019080803573ffffffffffffffffffffffffffffffffffffffff169060200190929190803573ffffffffffffffffffffffffffffffffffffffff169060200190929190505050612b15565b604051808215151515815260200191505060405180910390f35b348015610ef257600080fd5b50610f2160048036036020811015610f0957600080fd5b81019080803515159060200190929190505050612ba9565b6040518082815260200191505060405180910390f35b348015610f4357600080fd5b50610f8660048036036020811015610f5a57600080fd5b81019080803573ffffffffffffffffffffffffffffffffffffffff169060200190929190505050612d06565b005b6000806000837bffffffffffffffffffffffffffffffffffffffffffffffffffffffff19167bffffffffffffffffffffffffffffffffffffffffffffffffffffffff1916815260200190815260200160002060009054906101000a900460ff169050919050565b600160076000828254019250508190555060006007549050600860003373ffffffffffffffffffffffffffffffffffffffff1673ffffffffffffffffffffffffffffffffffffffff1681526020019081526020016000205482808210156110a1576040517f08c379a00000000000000000000000000000000000000000000000000000000081526004018080602001828103825260248152602001806146456024913960400191505060405180910390fd5b600033905060008690508073ffffffffffffffffffffffffffffffffffffffff16600073ffffffffffffffffffffffffffffffffffffffff1614156110e4578190505b600061113887600860008673ffffffffffffffffffffffffffffffffffffffff1673ffffffffffffffffffffffffffffffffffffffff16815260200190815260200160002054612d8c90919063ffffffff16565b905080600860008573ffffffffffffffffffffffffffffffffffffffff1673ffffffffffffffffffffffffffffffffffffffff168152602001908152602001600020819055506111a7878373ffffffffffffffffffffffffffffffffffffffff16612dd690919063ffffffff16565b8173ffffffffffffffffffffffffffffffffffffffff168373ffffffffffffffffffffffffffffffffffffffff167f91fb9d98b786c57d74c099ccd2beca1739e9f6a81fb49001ca465c4b7591bbe289600860008873ffffffffffffffffffffffffffffffffffffffff1673ffffffffffffffffffffffffffffffffffffffff16815260200190815260200160002054604051808381526020018281526020019250505060405180910390a3505050505060075481146112cf576040517f08c379a000000000000000000000000000000000000000000000000000000000815260040180806020018281038252601f8152602001807f5265656e7472616e637947756172643a207265656e7472616e742063616c6c0081525060200191505060405180910390fd5b505050565b600d8054600181600116156101000203166002900480601f01602080910402602001604051908101604052809291908181526020018280546001816001161561010002031660029004801561136a5780601f1061133f5761010080835404028352916020019161136a565b820191906000526020600020905b81548152906001019060200180831161134d57829003601f168201915b505050505081565b600061137d82612f27565b6113d2576040517f08c379a000000000000000000000000000000000000000000000000000000000815260040180806020018281038252602c8152602001806145ad602c913960400191505060405180910390fd5b6002600083815260200190815260200160002060009054906101000a900473ffffffffffffffffffffffffffffffffffffffff169050919050565b600061141882611c56565b90508073ffffffffffffffffffffffffffffffffffffffff168373ffffffffffffffffffffffffffffffffffffffff16141561149f576040517f08c379a00000000000000000000000000000000000000000000000000000000081526004018080602001828103825260218152602001806146246021913960400191505060405180910390fd5b8073ffffffffffffffffffffffffffffffffffffffff166114be612f99565b73ffffffffffffffffffffffffffffffffffffffff1614806114ed57506114ec816114e7612f99565b612b15565b5b611542576040517f08c379a00000000000000000000000000000000000000000000000000000000081526004018080602001828103825260388152602001806144676038913960400191505060405180910390fd5b826002600084815260200190815260200160002060006101000a81548173ffffffffffffffffffffffffffffffffffffffff021916908373ffffffffffffffffffffffffffffffffffffffff160217905550818373ffffffffffffffffffffffffffffffffffffffff168273ffffffffffffffffffffffffffffffffffffffff167f8c5be1e5ebec7d5bd14f71427d1e84f3dd0314c0f7b2291e5b200ac8c7c3b92560405160405180910390a4505050565b6116056115ff612f99565b82612fa1565b61165a576040517f08c379a00000000000000000000000000000000000000000000000000000000081526004018080602001828103825260318152602001806146696031913960400191505060405180910390fd5b611665838383613095565b505050565b600b818154811061167757fe5b90600052602060002090600502016000915090508060000154908060010154908060020154908060030154908060040160009054906101000a900460ff16908060040160019054906101000a900460ff16905086565b600e5481565b803073ffffffffffffffffffffffffffffffffffffffff16636352211e826040518263ffffffff1660e01b81526004018082815260200191505060206040518083038186803b15801561172557600080fd5b505afa158015611739573d6000803e3d6000fd5b505050506040513d602081101561174f57600080fd5b810190808051906020019092919050505073ffffffffffffffffffffffffffffffffffffffff163373ffffffffffffffffffffffffffffffffffffffff16146117e3576040517f08c379a00000000000000000000000000000000000000000000000000000000081526004018080602001828103825260258152602001806146ef6025913960400191505060405180910390fd5b6000600b83815481106117f257fe5b906000526020600020906005020190508060040160009054906101000a900460ff1615611887576040517f08c379a000000000000000000000000000000000000000000000000000000000815260040180806020018281038252601a8152602001807f77617272616e74792063616e6e6f7420626520636c61696d656400000000000081525060200191505060405180910390fd5b60018160040160006101000a81548160ff0219169083151502179055506118ad83612155565b505050565b60006118c46118bf612f99565b612a2f565b611919576040517f08c379a00000000000000000000000000000000000000000000000000000000081526004018080602001828103825260308152602001806144f26030913960400191505060405180910390fd5b61192383836132f0565b6001905092915050565b61194883838360405180602001604052806000815250612a54565b505050565b61195e611958612f99565b82612fa1565b6119b3576040517f08c379a00000000000000000000000000000000000000000000000000000000081526004018080602001828103825260308152602001806146bf6030913960400191505060405180910390fd5b6119bc81613508565b50565b6119c7611fd5565b611a39576040517f08c379a00000000000000000000000000000000000000000000000000000000081526004018080602001828103825260208152602001807f4f776e61626c653a2063616c6c6572206973206e6f7420746865206f776e657281525060200191505060405180910390fd5b6000349050611a5381600a5461351d90919063ffffffff16565b600a81905550611a6884600b805490506127fc565b611ada576040517f08c379a00000000000000000000000000000000000000000000000000000000081526004018080602001828103825260208152602001807f73686f756c642062652061626c6520746f206d696e742074686520746f6b656e81525060200191505060405180910390fd5b600b6040518060c00160405280838152602001858152602001848152602001611b01612a4c565b815260200160001515815260200160001515815250908060018154018082558091505090600182039060005260206000209060050201600090919290919091506000820151816000015560208201518160010155604082015181600201556060820151816003015560808201518160040160006101000a81548160ff02191690831515021790555060a08201518160040160016101000a81548160ff02191690831515021790555050505050505050565b600a5481565b60098054600181600116156101000203166002900480601f016020809104026020016040519081016040528092919081815260200182805460018160011615610100020316600290048015611c4e5780601f10611c2357610100808354040283529160200191611c4e565b820191906000526020600020905b815481529060010190602001808311611c3157829003601f168201915b505050505081565b6000806001600084815260200190815260200160002060009054906101000a900473ffffffffffffffffffffffffffffffffffffffff169050600073ffffffffffffffffffffffffffffffffffffffff168173ffffffffffffffffffffffffffffffffffffffff161415611d15576040517f08c379a00000000000000000000000000000000000000000000000000000000081526004018080602001828103825260298152602001806144c96029913960400191505060405180910390fd5b80915050919050565b60008073ffffffffffffffffffffffffffffffffffffffff168273ffffffffffffffffffffffffffffffffffffffff161415611da5576040517f08c379a000000000000000000000000000000000000000000000000000000000815260040180806020018281038252602a81526020018061449f602a913960400191505060405180910390fd5b611dec600360008473ffffffffffffffffffffffffffffffffffffffff1673ffffffffffffffffffffffffffffffffffffffff1681526020019081526020016000206135a5565b9050919050565b611dfb611fd5565b611e6d576040517f08c379a00000000000000000000000000000000000000000000000000000000081526004018080602001828103825260208152602001807f4f776e61626c653a2063616c6c6572206973206e6f7420746865206f776e657281525060200191505060405180910390fd5b600073ffffffffffffffffffffffffffffffffffffffff16600660009054906101000a900473ffffffffffffffffffffffffffffffffffffffff1673ffffffffffffffffffffffffffffffffffffffff167f8be0079c531659141344cd1fd0a4f28419497f9722a3daafe3b4186f6b6457e060405160405180910390a36000600660006101000a81548173ffffffffffffffffffffffffffffffffffffffff021916908373ffffffffffffffffffffffffffffffffffffffff160217905550565b6000611f40611f3b612f99565b612a2f565b611f95576040517f08c379a00000000000000000000000000000000000000000000000000000000081526004018080602001828103825260308152602001806144f26030913960400191505060405180910390fd5b611fa08484846135b3565b600190509392505050565b6000600660009054906101000a900473ffffffffffffffffffffffffffffffffffffffff16905090565b6000600660009054906101000a900473ffffffffffffffffffffffffffffffffffffffff1673ffffffffffffffffffffffffffffffffffffffff16612018612f99565b73ffffffffffffffffffffffffffffffffffffffff1614905090565b600c8054600181600116156101000203166002900480601f0160208091040260200160405190810160405280929190818152602001828054600181600116156101000203166002900480156120ca5780601f1061209f576101008083540402835291602001916120ca565b820191906000526020600020905b8154815290600101906020018083116120ad57829003601f168201915b505050505081565b6120e26120dd612f99565b612a2f565b612137576040517f08c379a00000000000000000000000000000000000000000000000000000000081526004018080602001828103825260308152602001806144f26030913960400191505060405180910390fd5b61214081613624565b50565b61215361214e612f99565b61367e565b565b803073ffffffffffffffffffffffffffffffffffffffff16636352211e826040518263ffffffff1660e01b81526004018082815260200191505060206040518083038186803b1580156121a757600080fd5b505afa1580156121bb573d6000803e3d6000fd5b505050506040513d60208110156121d157600080fd5b810190808051906020019092919050505073ffffffffffffffffffffffffffffffffffffffff163373ffffffffffffffffffffffffffffffffffffffff161415612480576000600b838154811061222457fe5b90600052602060002090600502019050600061223e612a4c565b905060008260000154905060006122746122658560030154856136d890919063ffffffff16565b84612d8c90919063ffffffff16565b905060006122c985600201546122bb61229685876136f190919063ffffffff16565b6122ad8960020154886136f190919063ffffffff16565b612d8c90919063ffffffff16565b61377790919063ffffffff16565b90506123603073ffffffffffffffffffffffffffffffffffffffff16636352211e896040518263ffffffff1660e01b81526004018082815260200191505060206040518083038186803b15801561231f57600080fd5b505afa158015612333573d6000803e3d6000fd5b505050506040513d602081101561234957600080fd5b8101908080519060200190929190505050826137c1565b6123fc3073ffffffffffffffffffffffffffffffffffffffff16638da5cb5b6040518163ffffffff1660e01b815260040160206040518083038186803b1580156123a957600080fd5b505afa1580156123bd573d6000803e3d6000fd5b505050506040513d60208110156123d357600080fd5b81019080805190602001909291905050506123f78386612d8c90919063ffffffff16565b6137c1565b60018560040160016101000a81548160ff021916908315150217905550867fe5a3856f4df0777382b9b9f9abca95d27e3ea4ca7c37625094320c5c2ca4243c84838860040160009054906101000a900460ff166040518084815260200183815260200182151515158152602001935050505060405180910390a250505050506127f8565b3073ffffffffffffffffffffffffffffffffffffffff16638da5cb5b6040518163ffffffff1660e01b815260040160206040518083038186803b1580156124c657600080fd5b505afa1580156124da573d6000803e3d6000fd5b505050506040513d60208110156124f057600080fd5b810190808051906020019092919050505073ffffffffffffffffffffffffffffffffffffffff163373ffffffffffffffffffffffffffffffffffffffff16141561279f576000600b838154811061254357fe5b90600052602060002090600502019050600061255d612a4c565b905060008260000154905060006125936125848560030154856136d890919063ffffffff16565b84612d8c90919063ffffffff16565b905060006125e885600201546125da6125b585876136f190919063ffffffff16565b6125cc8960020154886136f190919063ffffffff16565b612d8c90919063ffffffff16565b61377790919063ffffffff16565b905061267f3073ffffffffffffffffffffffffffffffffffffffff16636352211e896040518263ffffffff1660e01b81526004018082815260200191505060206040518083038186803b15801561263e57600080fd5b505afa158015612652573d6000803e3d6000fd5b505050506040513d602081101561266857600080fd5b8101908080519060200190929190505050826137c1565b61271b3073ffffffffffffffffffffffffffffffffffffffff16638da5cb5b6040518163ffffffff1660e01b815260040160206040518083038186803b1580156126c857600080fd5b505afa1580156126dc573d6000803e3d6000fd5b505050506040513d60208110156126f257600080fd5b81019080805190602001909291905050506127168386612d8c90919063ffffffff16565b6137c1565b60018560040160016101000a81548160ff021916908315150217905550867fe5a3856f4df0777382b9b9f9abca95d27e3ea4ca7c37625094320c5c2ca4243c84838860040160009054906101000a900460ff166040518084815260200183815260200182151515158152602001935050505060405180910390a250505050506127f7565b60006127f6576040517f08c379a00000000000000000000000000000000000000000000000000000000081526004018080602001828103825260498152602001806145436049913960600191505060405180910390fd5b5b5b5050565b600061280e612809612f99565b612a2f565b612863576040517f08c379a00000000000000000000000000000000000000000000000000000000081526004018080602001828103825260308152602001806144f26030913960400191505060405180910390fd5b61286d83836138b7565b6001905092915050565b61287f612f99565b73ffffffffffffffffffffffffffffffffffffffff168273ffffffffffffffffffffffffffffffffffffffff161415612920576040517f08c379a00000000000000000000000000000000000000000000000000000000081526004018080602001828103825260198152602001807f4552433732313a20617070726f766520746f2063616c6c65720000000000000081525060200191505060405180910390fd5b806004600061292d612f99565b73ffffffffffffffffffffffffffffffffffffffff1673ffffffffffffffffffffffffffffffffffffffff16815260200190815260200160002060008473ffffffffffffffffffffffffffffffffffffffff1673ffffffffffffffffffffffffffffffffffffffff16815260200190815260200160002060006101000a81548160ff0219169083151502179055508173ffffffffffffffffffffffffffffffffffffffff166129da612f99565b73ffffffffffffffffffffffffffffffffffffffff167f17307eab39ab6107e8899845ad3d59bd9653f200f220920489ca2b5937696c3183604051808215151515815260200191505060405180910390a35050565b6000612a458260056138d590919063ffffffff16565b9050919050565b600042905090565b612a65612a5f612f99565b83612fa1565b612aba576040517f08c379a00000000000000000000000000000000000000000000000000000000081526004018080602001828103825260318152602001806146696031913960400191505060405180910390fd5b612ac6848484846139b3565b50505050565b6000600860008373ffffffffffffffffffffffffffffffffffffffff1673ffffffffffffffffffffffffffffffffffffffff168152602001908152602001600020549050919050565b6000600460008473ffffffffffffffffffffffffffffffffffffffff1673ffffffffffffffffffffffffffffffffffffffff16815260200190815260200160002060008373ffffffffffffffffffffffffffffffffffffffff1673ffffffffffffffffffffffffffffffffffffffff16815260200190815260200160002060009054906101000a900460ff16905092915050565b600080612bb4612a4c565b90508215612bc157600090505b6060600b805480602002602001604051908101604052809291908181526020016000905b82821015612c7557838290600052602060002090600502016040518060c0016040529081600082015481526020016001820154815260200160028201548152602001600382015481526020016004820160009054906101000a900460ff161515151581526020016004820160019054906101000a900460ff16151515158152505081526020019060010190612be5565b505050509050600081519050600080905060008090505b82811015612cf957612c9c61434a565b848281518110612ca857fe5b602002602001015190508060800151158015612cce575080604001518160600151018611155b15612ced57612cea81602001518461351d90919063ffffffff16565b92505b50600181019050612c8c565b5080945050505050919050565b612d0e611fd5565b612d80576040517f08c379a00000000000000000000000000000000000000000000000000000000081526004018080602001828103825260208152602001807f4f776e61626c653a2063616c6c6572206973206e6f7420746865206f776e657281525060200191505060405180910390fd5b612d8981613a25565b50565b6000612dce83836040518060400160405280601e81526020017f536166654d6174683a207375627472616374696f6e206f766572666c6f770000815250613b6b565b905092915050565b803073ffffffffffffffffffffffffffffffffffffffff16311015612e63576040517f08c379a000000000000000000000000000000000000000000000000000000000815260040180806020018281038252601d8152602001807f416464726573733a20696e73756666696369656e742062616c616e636500000081525060200191505060405180910390fd5b60008273ffffffffffffffffffffffffffffffffffffffff168260405180600001905060006040518083038185875af1925050503d8060008114612ec3576040519150601f19603f3d011682016040523d82523d6000602084013e612ec8565b606091505b5050905080612f22576040517f08c379a000000000000000000000000000000000000000000000000000000000815260040180806020018281038252603a815260200180614401603a913960400191505060405180910390fd5b505050565b6000806001600084815260200190815260200160002060009054906101000a900473ffffffffffffffffffffffffffffffffffffffff169050600073ffffffffffffffffffffffffffffffffffffffff168173ffffffffffffffffffffffffffffffffffffffff161415915050919050565b600033905090565b6000612fac82612f27565b613001576040517f08c379a000000000000000000000000000000000000000000000000000000000815260040180806020018281038252602c81526020018061443b602c913960400191505060405180910390fd5b600061300c83611c56565b90508073ffffffffffffffffffffffffffffffffffffffff168473ffffffffffffffffffffffffffffffffffffffff16148061307b57508373ffffffffffffffffffffffffffffffffffffffff1661306384611372565b73ffffffffffffffffffffffffffffffffffffffff16145b8061308c575061308b8185612b15565b5b91505092915050565b8273ffffffffffffffffffffffffffffffffffffffff166130b582611c56565b73ffffffffffffffffffffffffffffffffffffffff1614613121576040517f08c379a00000000000000000000000000000000000000000000000000000000081526004018080602001828103825260298152602001806145fb6029913960400191505060405180910390fd5b600073ffffffffffffffffffffffffffffffffffffffff168273ffffffffffffffffffffffffffffffffffffffff1614156131a7576040517f08c379a00000000000000000000000000000000000000000000000000000000081526004018080602001828103825260248152602001806143dd6024913960400191505060405180910390fd5b6131b081613c2b565b6131f7600360008573ffffffffffffffffffffffffffffffffffffffff1673ffffffffffffffffffffffffffffffffffffffff168152602001908152602001600020613ce9565b61323e600360008473ffffffffffffffffffffffffffffffffffffffff1673ffffffffffffffffffffffffffffffffffffffff168152602001908152602001600020613d0c565b816001600083815260200190815260200160002060006101000a81548173ffffffffffffffffffffffffffffffffffffffff021916908373ffffffffffffffffffffffffffffffffffffffff160217905550808273ffffffffffffffffffffffffffffffffffffffff168473ffffffffffffffffffffffffffffffffffffffff167fddf252ad1be2c89b69c2b068fc378daa952ba7f163c4a11628f55a4df523b3ef60405160405180910390a4505050565b600073ffffffffffffffffffffffffffffffffffffffff168273ffffffffffffffffffffffffffffffffffffffff161415613393576040517f08c379a00000000000000000000000000000000000000000000000000000000081526004018080602001828103825260208152602001807f4552433732313a206d696e7420746f20746865207a65726f206164647265737381525060200191505060405180910390fd5b61339c81612f27565b1561340f576040517f08c379a000000000000000000000000000000000000000000000000000000000815260040180806020018281038252601c8152602001807f4552433732313a20746f6b656e20616c7265616479206d696e7465640000000081525060200191505060405180910390fd5b816001600083815260200190815260200160002060006101000a81548173ffffffffffffffffffffffffffffffffffffffff021916908373ffffffffffffffffffffffffffffffffffffffff1602179055506134a8600360008473ffffffffffffffffffffffffffffffffffffffff1673ffffffffffffffffffffffffffffffffffffffff168152602001908152602001600020613d0c565b808273ffffffffffffffffffffffffffffffffffffffff16600073ffffffffffffffffffffffffffffffffffffffff167fddf252ad1be2c89b69c2b068fc378daa952ba7f163c4a11628f55a4df523b3ef60405160405180910390a45050565b61351a61351482611c56565b82613d22565b50565b60008082840190508381101561359b576040517f08c379a000000000000000000000000000000000000000000000000000000000815260040180806020018281038252601b8152602001807f536166654d6174683a206164646974696f6e206f766572666c6f77000000000081525060200191505060405180910390fd5b8091505092915050565b600081600001549050919050565b6135bd83836132f0565b6135ca6000848484613eb1565b61361f576040517f08c379a00000000000000000000000000000000000000000000000000000000081526004018080602001828103825260328152602001806143856032913960400191505060405180910390fd5b505050565b6136388160056140a190919063ffffffff16565b8073ffffffffffffffffffffffffffffffffffffffff167f6ae172837ea30b801fbfcdd4108aa1d5bf8ff775444fd70256b44e6bf3dfc3f660405160405180910390a250565b61369281600561417c90919063ffffffff16565b8073ffffffffffffffffffffffffffffffffffffffff167fe94479a9f7e1952cc78f2d6baab678adc1b772d936c6583def489e524cb6669260405160405180910390a250565b60008183106136e757816136e9565b825b905092915050565b6000808314156137045760009050613771565b600082840290508284828161371557fe5b041461376c576040517f08c379a000000000000000000000000000000000000000000000000000000000815260040180806020018281038252602181526020018061458c6021913960400191505060405180910390fd5b809150505b92915050565b60006137b983836040518060400160405280601a81526020017f536166654d6174683a206469766973696f6e206279207a65726f000000000000815250614239565b905092915050565b60008114156137cf576138b3565b61382181600860008573ffffffffffffffffffffffffffffffffffffffff1673ffffffffffffffffffffffffffffffffffffffff1681526020019081526020016000205461351d90919063ffffffff16565b600860008473ffffffffffffffffffffffffffffffffffffffff1673ffffffffffffffffffffffffffffffffffffffff168152602001908152602001600020819055508173ffffffffffffffffffffffffffffffffffffffff167f2da466a7b24304f47e87fa2e1e5a81b9831ce54fec19055ce277ca2f39ba42c4826040518082815260200191505060405180910390a25b5050565b6138d18282604051806020016040528060008152506135b3565b5050565b60008073ffffffffffffffffffffffffffffffffffffffff168273ffffffffffffffffffffffffffffffffffffffff16141561395c576040517f08c379a00000000000000000000000000000000000000000000000000000000081526004018080602001828103825260228152602001806145d96022913960400191505060405180910390fd5b8260000160008373ffffffffffffffffffffffffffffffffffffffff1673ffffffffffffffffffffffffffffffffffffffff16815260200190815260200160002060009054906101000a900460ff16905092915050565b6139be848484613095565b6139ca84848484613eb1565b613a1f576040517f08c379a00000000000000000000000000000000000000000000000000000000081526004018080602001828103825260328152602001806143856032913960400191505060405180910390fd5b50505050565b600073ffffffffffffffffffffffffffffffffffffffff168173ffffffffffffffffffffffffffffffffffffffff161415613aab576040517f08c379a00000000000000000000000000000000000000000000000000000000081526004018080602001828103825260268152602001806143b76026913960400191505060405180910390fd5b8073ffffffffffffffffffffffffffffffffffffffff16600660009054906101000a900473ffffffffffffffffffffffffffffffffffffffff1673ffffffffffffffffffffffffffffffffffffffff167f8be0079c531659141344cd1fd0a4f28419497f9722a3daafe3b4186f6b6457e060405160405180910390a380600660006101000a81548173ffffffffffffffffffffffffffffffffffffffff021916908373ffffffffffffffffffffffffffffffffffffffff16021790555050565b6000838311158290613c18576040517f08c379a00000000000000000000000000000000000000000000000000000000081526004018080602001828103825283818151815260200191508051906020019080838360005b83811015613bdd578082015181840152602081019050613bc2565b50505050905090810190601f168015613c0a5780820380516001836020036101000a031916815260200191505b509250505060405180910390fd5b5060008385039050809150509392505050565b600073ffffffffffffffffffffffffffffffffffffffff166002600083815260200190815260200160002060009054906101000a900473ffffffffffffffffffffffffffffffffffffffff1673ffffffffffffffffffffffffffffffffffffffff1614613ce65760006002600083815260200190815260200160002060006101000a81548173ffffffffffffffffffffffffffffffffffffffff021916908373ffffffffffffffffffffffffffffffffffffffff1602179055505b50565b613d0160018260000154612d8c90919063ffffffff16565b816000018190555050565b6001816000016000828254019250508190555050565b8173ffffffffffffffffffffffffffffffffffffffff16613d4282611c56565b73ffffffffffffffffffffffffffffffffffffffff1614613dae576040517f08c379a000000000000000000000000000000000000000000000000000000000815260040180806020018281038252602581526020018061469a6025913960400191505060405180910390fd5b613db781613c2b565b613dfe600360008473ffffffffffffffffffffffffffffffffffffffff1673ffffffffffffffffffffffffffffffffffffffff168152602001908152602001600020613ce9565b60006001600083815260200190815260200160002060006101000a81548173ffffffffffffffffffffffffffffffffffffffff021916908373ffffffffffffffffffffffffffffffffffffffff16021790555080600073ffffffffffffffffffffffffffffffffffffffff168373ffffffffffffffffffffffffffffffffffffffff167fddf252ad1be2c89b69c2b068fc378daa952ba7f163c4a11628f55a4df523b3ef60405160405180910390a45050565b6000613ed28473ffffffffffffffffffffffffffffffffffffffff166142ff565b613edf5760019050614099565b60008473ffffffffffffffffffffffffffffffffffffffff1663150b7a02613f05612f99565b8887876040518563ffffffff1660e01b8152600401808573ffffffffffffffffffffffffffffffffffffffff1673ffffffffffffffffffffffffffffffffffffffff1681526020018473ffffffffffffffffffffffffffffffffffffffff1673ffffffffffffffffffffffffffffffffffffffff16815260200183815260200180602001828103825283818151815260200191508051906020019080838360005b83811015613fc1578082015181840152602081019050613fa6565b50505050905090810190601f168015613fee5780820380516001836020036101000a031916815260200191505b5095505050505050602060405180830381600087803b15801561401057600080fd5b505af1158015614024573d6000803e3d6000fd5b505050506040513d602081101561403a57600080fd5b8101908080519060200190929190505050905063150b7a0260e01b7bffffffffffffffffffffffffffffffffffffffffffffffffffffffff1916817bffffffffffffffffffffffffffffffffffffffffffffffffffffffff1916149150505b949350505050565b6140ab82826138d5565b1561411e576040517f08c379a000000000000000000000000000000000000000000000000000000000815260040180806020018281038252601f8152602001807f526f6c65733a206163636f756e7420616c72656164792068617320726f6c650081525060200191505060405180910390fd5b60018260000160008373ffffffffffffffffffffffffffffffffffffffff1673ffffffffffffffffffffffffffffffffffffffff16815260200190815260200160002060006101000a81548160ff0219169083151502179055505050565b61418682826138d5565b6141db576040517f08c379a00000000000000000000000000000000000000000000000000000000081526004018080602001828103825260218152602001806145226021913960400191505060405180910390fd5b60008260000160008373ffffffffffffffffffffffffffffffffffffffff1673ffffffffffffffffffffffffffffffffffffffff16815260200190815260200160002060006101000a81548160ff0219169083151502179055505050565b600080831182906142e5576040517f08c379a00000000000000000000000000000000000000000000000000000000081526004018080602001828103825283818151815260200191508051906020019080838360005b838110156142aa57808201518184015260208101905061428f565b50505050905090810190601f1680156142d75780820380516001836020036101000a031916815260200191505b509250505060405180910390fd5b5060008385816142f157fe5b049050809150509392505050565b60008060007fc5d2460186f7233c927e7db2dcc703c0e500b653ca82273b7bfad8045d85a47060001b9050833f91506000801b82141580156143415750808214155b92505050919050565b6040518060c0016040528060008152602001600081526020016000815260200160008152602001600015158152602001600015158152509056fe4552433732313a207472616e7366657220746f206e6f6e20455243373231526563656976657220696d706c656d656e7465724f776e61626c653a206e6577206f776e657220697320746865207a65726f20616464726573734552433732313a207472616e7366657220746f20746865207a65726f2061646472657373416464726573733a20756e61626c6520746f2073656e642076616c75652c20726563697069656e74206d617920686176652072657665727465644552433732313a206f70657261746f7220717565727920666f72206e6f6e6578697374656e7420746f6b656e4552433732313a20617070726f76652063616c6c6572206973206e6f74206f776e6572206e6f7220617070726f76656420666f7220616c6c4552433732313a2062616c616e636520717565727920666f7220746865207a65726f20616464726573734552433732313a206f776e657220717565727920666f72206e6f6e6578697374656e7420746f6b656e4d696e746572526f6c653a2063616c6c657220646f6573206e6f74206861766520746865204d696e74657220726f6c65526f6c65733a206163636f756e7420646f6573206e6f74206861766520726f6c6573656e646572206d7573742065697468657220626520746865206f776e6572206f662074686520746f6b656e206f7220746865206f776e6572206f662074686520636f6e7472616374536166654d6174683a206d756c7469706c69636174696f6e206f766572666c6f774552433732313a20617070726f76656420717565727920666f72206e6f6e6578697374656e7420746f6b656e526f6c65733a206163636f756e7420697320746865207a65726f20616464726573734552433732313a207472616e73666572206f6620746f6b656e2074686174206973206e6f74206f776e4552433732313a20617070726f76616c20746f2063757272656e74206f776e657261206d7573742062652067726561746572207468616e206f7220657175616c20746f20624552433732313a207472616e736665722063616c6c6572206973206e6f74206f776e6572206e6f7220617070726f7665644552433732313a206275726e206f6620746f6b656e2074686174206973206e6f74206f776e4552433732314275726e61626c653a2063616c6c6572206973206e6f74206f776e6572206e6f7220617070726f76656473656e646572206d75737420626520746865206f776e6572206f662074686520746f6b656ea265627a7a723158201135c70c8a641415756269ff15438fab7eafc63b37934bf1460a47bc4b8a198464736f6c634300050c0032526f6c65733a206163636f756e7420697320746865207a65726f2061646472657373",
  "source": "pragma solidity >=0.4.21 <0.7.0;\n// pragma experimental ABIEncoderV2;\n\nimport \"@openzeppelin/contracts/ownership/Ownable.sol\";\nimport \"@openzeppelin/contracts/token/ERC721/ERC721Burnable.sol\";\nimport \"@openzeppelin/contracts/token/ERC721/ERC721Mintable.sol\";\n\nimport \"@openzeppelin/contracts/math/SafeMath.sol\";\nimport \"@openzeppelin/contracts/math/Math.sol\";\nimport \"@openzeppelin/contracts/utils/Address.sol\";\nimport \"@openzeppelin/contracts/utils/ReentrancyGuard.sol\";\n\ncontract Warrantee is ERC721Burnable, ERC721Mintable, Ownable, ReentrancyGuard {\n  using SafeMath for uint256;\n  using Math for uint256;\n  using Address for address payable;\n\n  mapping(address => uint256) private _holdings;\n  string public _sku;\n  uint256 public _lockedBalance;\n  Warranty[] public _warranties;\n  string public symbol;\n  string public name;\n  uint256 public decimals;\n  struct Warranty {\n    uint256 value;\n    uint256 valuation;\n    uint256 expiresAfter;\n    uint256 createdAt;\n    bool claimed;\n    bool terminated;\n  }\n\n  event Deposited(address indexed payee, uint256 amount);\n  event Withdrawn(address indexed warrantee, address indexed target, uint256 amount, uint256 balance);\n  event Terminated(uint256 indexed tokenId, uint256 value, uint256 leftover, bool claimed);\n\n  constructor() public {\n    symbol = \"WRNTE\";\n    name = \"Warrantee\";\n    decimals = 0;\n  }\n  modifier warranteeOrOwnerOnly(uint256 id) {\n    if (msg.sender == this.ownerOf(id)) {\n      _;\n    } else if (msg.sender == this.owner()) {\n      _;\n    } else {\n      require(false, \"sender must either be the owner of the token or the owner of the contract\");\n    }\n  }\n  modifier warranteeOnly(uint256 id) {\n    require(msg.sender == this.ownerOf(id), \"sender must be the owner of the token\");\n    _;\n  }\n  modifier greaterThanOrEqual(uint256 a, uint256 b) {\n    require(a >= b, \"a must be greater than or equal to b\");\n    _;\n  }\n  function timestamp() public view returns(uint256) {\n    return block.timestamp;\n  }\n  function balance(address account) public view returns(uint256) {\n    return _holdings[account];\n  }\n  // overwrites PullPayment method to only allow owner to assign value to be pulled\n  function deposit(address payee, uint256 amount) internal {\n    if (amount == 0) {\n      return;\n    }\n    _holdings[payee] = _holdings[payee].add(amount);\n    emit Deposited(payee, amount);\n  }\n  function terminateAgreement(uint256 id) public warranteeOrOwnerOnly(id) {\n    Warranty storage warranty = _warranties[id];\n    uint256 time = timestamp();\n    uint256 value = warranty.value;\n    uint256 elapsed = time.sub(time.min(warranty.createdAt));\n    uint256 leftover = value.mul(warranty.expiresAfter).sub(value.mul(elapsed)).div(warranty.expiresAfter);\n    deposit(this.ownerOf(id), leftover);\n    deposit(this.owner(), value.sub(leftover));\n    warranty.terminated = true;\n    emit Terminated(id, value, leftover, warranty.claimed);\n  }\n  function release(address payable _target, uint256 amount)\n    public\n    nonReentrant\n    greaterThanOrEqual(_holdings[msg.sender], amount)\n  {\n    address payable sender = msg.sender;\n    address payable target = _target;\n    if (address(0) == target) {\n      target = sender;\n    }\n    uint256 total = _holdings[sender].sub(amount);\n    _holdings[sender] = total;\n    target.sendValue(amount);\n    emit Withdrawn(sender, target, amount, _holdings[sender]);\n  }\n  function claim(uint256 id)\n    public\n    warranteeOnly(id)\n  {\n    Warranty storage warranty = _warranties[id];\n    require(!warranty.claimed, \"warranty cannot be claimed\");\n    warranty.claimed = true;\n    terminateAgreement(id);\n  }\n  function create(address payable owner, uint256 valuation, uint256 expiresAfter)\n    public\n    payable\n    onlyOwner\n  {\n    uint256 value = msg.value;\n    _lockedBalance = _lockedBalance.add(value);\n    require(super.safeMint(owner, _warranties.length), \"should be able to mint the token\");\n    _warranties.push(Warranty({\n      value: value,\n      valuation: valuation,\n      // only need approximations\n      createdAt: timestamp(),\n      expiresAfter: expiresAfter,\n      claimed: false,\n      terminated: false\n    }));\n  }\n  function valuation (bool includeExpired) public view returns (uint256) {\n    uint minTimestamp = timestamp();\n    if (includeExpired) {\n      minTimestamp = 0;\n    }\n    Warranty[] memory warranties = _warranties;\n    uint256 length = warranties.length;\n    uint256 _valuation = 0;\n    for (uint256 i = 0; i < length; i += 1) {\n      Warranty memory warranty = warranties[i];\n      if (!warranty.claimed && (minTimestamp <= (warranty.createdAt + warranty.expiresAfter))) {\n        _valuation = _valuation.add(warranty.valuation);\n      }\n    }\n    return _valuation;\n  }\n  // function () external payable {\n  //   require(false, \"unable to call default function\");\n  // }\n}\n",
  "sourcePath": "/Users/michaelmclaughlin/Sites/blockchain/ethereum/warrantee/contracts/Warrantee.sol",
  "compiler": {
    "name": "solc",
    "version": "0.5.12+commit.7709ece9.Emscripten.clang"
  },
  "schemaVersion": "3.0.19",
  "updatedAt": "2020-01-02T04:48:40.395Z",
  "networkType": "ethereum",
  "devdoc": {
    "methods": {
      "approve(address,uint256)": {
        "details": "Approves another address to transfer the given token ID The zero address indicates there is no approved address. There can only be one approved address per token at a given time. Can only be called by the token owner or an approved operator.",
        "params": {
          "to": "address to be approved for the given token ID",
          "tokenId": "uint256 ID of the token to be approved"
        }
      },
      "balanceOf(address)": {
        "details": "Gets the balance of the specified address.",
        "params": {
          "owner": "address to query the balance of"
        },
        "return": "uint256 representing the amount owned by the passed address"
      },
      "burn(uint256)": {
        "details": "Burns a specific ERC721 token.",
        "params": {
          "tokenId": "uint256 id of the ERC721 token to be burned."
        }
      },
      "getApproved(uint256)": {
        "details": "Gets the approved address for a token ID, or zero if no address set Reverts if the token ID does not exist.",
        "params": {
          "tokenId": "uint256 ID of the token to query the approval of"
        },
        "return": "address currently approved for the given token ID"
      },
      "isApprovedForAll(address,address)": {
        "details": "Tells whether an operator is approved by a given owner.",
        "params": {
          "operator": "operator address which you want to query the approval of",
          "owner": "owner address which you want to query the approval of"
        },
        "return": "bool whether the given operator is approved by the given owner"
      },
      "isOwner()": {
        "details": "Returns true if the caller is the current owner."
      },
      "mint(address,uint256)": {
        "details": "Function to mint tokens.",
        "params": {
          "to": "The address that will receive the minted token.",
          "tokenId": "The token id to mint."
        },
        "return": "A boolean that indicates if the operation was successful."
      },
      "owner()": {
        "details": "Returns the address of the current owner."
      },
      "ownerOf(uint256)": {
        "details": "Gets the owner of the specified token ID.",
        "params": {
          "tokenId": "uint256 ID of the token to query the owner of"
        },
        "return": "address currently marked as the owner of the given token ID"
      },
      "renounceOwnership()": {
        "details": "Leaves the contract without owner. It will not be possible to call `onlyOwner` functions anymore. Can only be called by the current owner.     * NOTE: Renouncing ownership will leave the contract without an owner, thereby removing any functionality that is only available to the owner."
      },
      "safeMint(address,uint256)": {
        "details": "Function to safely mint tokens.",
        "params": {
          "to": "The address that will receive the minted token.",
          "tokenId": "The token id to mint."
        },
        "return": "A boolean that indicates if the operation was successful."
      },
      "safeMint(address,uint256,bytes)": {
        "details": "Function to safely mint tokens.",
        "params": {
          "_data": "bytes data to send along with a safe transfer check.",
          "to": "The address that will receive the minted token.",
          "tokenId": "The token id to mint."
        },
        "return": "A boolean that indicates if the operation was successful."
      },
      "safeTransferFrom(address,address,uint256)": {
        "details": "Safely transfers the ownership of a given token ID to another address If the target address is a contract, it must implement {IERC721Receiver-onERC721Received}, which is called upon a safe transfer, and return the magic value `bytes4(keccak256(\"onERC721Received(address,address,uint256,bytes)\"))`; otherwise, the transfer is reverted. Requires the msg.sender to be the owner, approved, or operator",
        "params": {
          "from": "current owner of the token",
          "to": "address to receive the ownership of the given token ID",
          "tokenId": "uint256 ID of the token to be transferred"
        }
      },
      "safeTransferFrom(address,address,uint256,bytes)": {
        "details": "Safely transfers the ownership of a given token ID to another address If the target address is a contract, it must implement {IERC721Receiver-onERC721Received}, which is called upon a safe transfer, and return the magic value `bytes4(keccak256(\"onERC721Received(address,address,uint256,bytes)\"))`; otherwise, the transfer is reverted. Requires the _msgSender() to be the owner, approved, or operator",
        "params": {
          "_data": "bytes data to send along with a safe transfer check",
          "from": "current owner of the token",
          "to": "address to receive the ownership of the given token ID",
          "tokenId": "uint256 ID of the token to be transferred"
        }
      },
      "setApprovalForAll(address,bool)": {
        "details": "Sets or unsets the approval of a given operator An operator is allowed to transfer all tokens of the sender on their behalf.",
        "params": {
          "approved": "representing the status of the approval to be set",
          "to": "operator address to set the approval"
        }
      },
      "supportsInterface(bytes4)": {
        "details": "See {IERC165-supportsInterface}.     * Time complexity O(1), guaranteed to always use less than 30 000 gas."
      },
      "transferFrom(address,address,uint256)": {
        "details": "Transfers the ownership of a given token ID to another address. Usage of this method is discouraged, use {safeTransferFrom} whenever possible. Requires the msg.sender to be the owner, approved, or operator.",
        "params": {
          "from": "current owner of the token",
          "to": "address to receive the ownership of the given token ID",
          "tokenId": "uint256 ID of the token to be transferred"
        }
      },
      "transferOwnership(address)": {
        "details": "Transfers ownership of the contract to a new account (`newOwner`). Can only be called by the current owner."
      }
    }
  },
  "userdoc": {
    "methods": {}
  }
}